:020000022000DC
:10600000000001201962020001620200FDB20200DC
:10601000056202000762020009620200000000003F
:106020000000000000000000000000000B62020001
:106030000D620200000000000F6202001162020007
:106040001362020013620200E1920200CD96020088
:1060500013620200136202005D91020013620200EB
:106060001362020013620200136202001362020054
:106070001362020013620200136202001362020044
:1060800013620200E9B2020013620200136202000E
:1060900013620200136202007DD902001362020043
:1060A0001362020013620200136202001362020014
:1060B00013620200136202000000000000000000F2
:1060C00013620200136202001362020013620200F4
:1060D000136202001362020013620200000000005B
:1060E00000000000000000000000000000000000B0
:1060F00000000000000000000000000000000000A0
:10610000000000000000000000000000000000008F
:10611000000000000000000000000000000000007F
:10612000000000000000000000000000000000006F
:10613000000000000000000000000000000000005F
:10614000000000000000000000000000000000004F
:10615000000000000000000000000000000000003F
:10616000000000000000000000000000000000002F
:10617000000000000000000000000000000000001F
:10618000000000000000000000000000000000000F
:1061900000000000000000000000000000000000FF
:1061A00000000000000000000000000000000000EF
:1061B00000000000000000000000000000000000DF
:1061C00000000000000000000000000000000000CF
:1061D00000000000000000000000000000000000BF
:1061E00000000000000000000000000000000000AF
:1061F000000000000000000000000000000000009F
:10620000FEE7FEE7FEE7FEE7FEE7FEE7FEE7FEE766
:10621000FEE7FEE700F002B8FFF7FCBF0F484FF0C3
:106220000701884385460E4880470E48016841F4BF
:1062300070010160BFF34F8FBFF36F8F00F01AB88A
:1062400009480A490A4A884207D0521A05D00378F9
:1062500001300B700131013AF9D170470000012083
:10626000D175020088ED00E04CE70200F02200202A
:10627000F0220020344935480A1A02D007229143FF
:106280008D46334933480A1A06D00722914381F3D9
:106290000988022282F314882F483049304A00F0DE
:1062A00041F830483049314A00F03CF83048314933
:1062B000314A00F037F831483149324A00F032F8BB
:1062C00031483249324A00F02DF832483249334AD7
:1062D00000F028F832483349334A00F023F83348B5
:1062E0003349002200F029F832483349002200F0F7
:1062F00024F832483249091A08F0ACF9314A90477B
:106300001F482049884205D00268043003B49047F2
:1063100003BCF7E700208646EC46002000212A4A0D
:106320009047FEE7884207D0521A05D00378013023
:106330000B700131013AF9D17047884202D00270E6
:106340000130FAE7704700000000012000E0002063
:106350000000012000000120481E0300F022002060
:1063600034280020CC630200CC63020068E60200FF
:10637000481E0300F0220020F02200204CE702001B
:106380004CE702004CE702004CE702004CE7020039
:106390004CE702004CE702004CE70200481E0300F5
:1063A0008C230300342800203428002034280020C7
:1063B0000C4C00200C4C00200C4C00200C4C0020FD
:0C63C0000C6C002041620200F57002002D
:1063CC0072DF704773DF704774DF704710B5054C90
:1063DC00207828B1044B1878FFF7F6FF00232370C0
:1063EC0010BD00BF34280020002300202DE9F04709
:1063FC00304D9EB090463C2207AE044689464FF085
:10640C001F0A00210DEB02001F46A5F804A007F09F
:10641C00F5FC2346284ACDF800905146304607F04B
:10642C00DAFD3A4604464146301807F0B1FC234BDE
:10643C002349C91A3C44C908A7B2090441F0030016
:10644C003A463146039006F099F822461D490398C6
:10645C0006F056F806228DF83F2004AA18922A4618
:10646C00002352F8041BADF810300FA80696ADF8B7
:10647C001470AB81AB6002F0B0F9044698B9124EBF
:10648C00337813B1FFF7A2FF88B9104F104A294691
:10649C003846FFF795FF50B938782146FFF792FF41
:1064AC0028B90123337020461EB0BDE8F08704469E
:1064BC00F9E700BFF02200204CE7020094E602004E
:1064CC00C4E6020057E70200342800200023002015
:1064DC00042300207FDF70478FDF7047B1DF7047E8
:1064EC0069DF70470388212B07B51BD0522B0FD0C7
:1064FC00132B24D1002380881A468521FFF7EAFF4D
:10650C00E8B1104AF52103B05DF804EB04F008BAC9
:10651C00002380881A461946FFF7E0FF78B1094A34
:10652C00FB21F0E700238088ADF8043001A9FFF7C8
:10653C00D3FF20B1034A40F20F1104F0F1F903B07C
:10654C005DF804FB6FE7020037B50024032501F06A
:10655C000BFFCDE90045012349221821062002F04A
:10656C0039F818210846CDE900450123442202F0F0
:10657C0031F8CDE9004501234C2218212A2002F0E4
:10658C0029F8CDE900450123452218213C2002F0D1
:10659C0021F803B0BDE8304001F098BE37B50024B7
:1065AC00032501F0E1FECDE900450123432218212A
:1065BC00062002F00FF818210846CDE9004501230A
:1065CC004F2202F007F8CDE9004501234E22182195
:1065DC002A2001F0FFFFCDE90045012354221821A8
:1065EC003C2001F0F7FF03B0BDE8304001F06EBE77
:1065FC002DE9F04385B0012501F0B6FE00240621FB
:10660C002B460846CDE90045432201F0E3FF2B461B
:10661C00CDE900456F2206210C2001F0DBFF2B4653
:10662C00CDE9004575220621122001F0D3FF2B463F
:10663C00CDE900456E220621182001F0CBFF2B4638
:10664C00CDE90045742206211E2001F0C3FF104B3A
:10665C00104A5B68052102A807F0BDFC02AD074695
:10666C0018264FF00308A146A74204DC01F02EFEC9
:10667C0005B0BDE8F083CDE9009830B215F8012BD8
:10668C0001231821123601F0A5FF0134B6B2EBE755
:10669C0044290020E1F1020010B50446084807F037
:1066AC00EFF92378032B05D1FFF7A2FF054B04224A
:1066BC001A7010BD052BFCD1BDE81040FFF744BF8C
:1066CC00ECE70200662900200268530910B5044665
:1066DC0018D0012B40F2FF3318BF002302F01F0229
:1066EC00D340DB0704D409494FF4F67004F0AEFE36
:1066FC0023681F2B83BF03F01F03054823604FF053
:10670C00A04010BD4FF0FF33E8E700BF01E80200E6
:10671C000003005010B50F480F4C04F0A3FA0F4BB8
:10672C000F4822680F49C01AC008000440F003004B
:10673C0005F0E6FE2368013323600B4B1B783BB15D
:10674C00BDE810400348002240F2666104F054BAE0
:10675C0010BD00BF482300207428002094E60200DE
:10676C00C4E602002FE80200402900202DE9F04782
:10677C00BB4BBC4FDFF81C93FF1AFF083F0447F0DC
:10678C00030602468CB080460D463046B64905F0ED
:10679C00B7FEB64807F081FC99F80020B4493046A2
:1067AC0005F0AEFE05F052FD0028FBD1B14C23786C
:1067BC006BB9B14807F064F9AF49304605F09CFE5F
:1067CC0005F044FD0028FBD10CB0BDE8F087012D8D
:1067DC0000F0FE80A949304605F08EFE05F036FD2E
:1067EC0005460028FAD1B8F1140FEDD1DFF8D082AC
:1067FC00A349D8F80020304605F082FED8F80030C6
:10680C00092B00F2BB8099F800A0BAF1010F40F0FF
:10681C008D809C492A46304605F072FEA4F800A0F3
:10682C0004224FF42C6103A8656001F06DFB20B1CC
:10683C00954A40F2D92104F073F89449304605F09A
:10684C005BFE042203A9304605F098FE9DF80D204E
:10685C009DF80C3013409DF80E2013409DF80F202E
:10686C001340FF2B5ED18A49304605F045FE0023CC
:10687C0003934FF42C61042303A88DF82C3001F002
:10688C009DFA1F2302A80293FFF71EFF029B01250E
:10689C0005FA03F3C0F80C3501F066FD032400265D
:1068AC00182108462B465322CDE9006401F092FED4
:1068BC002B46542218212A20CDE9006401F08AFECF
:1068CC002B46412218213C20CDE9006401F082FEC8
:1068DC002B46522218214E20CDE9006401F07AFE9D
:1068EC005422182160202B46CDE9006401F072FE81
:1068FC0001F0ECFC674A684889F800404FF400410D
:10690C0004F07AF920B1604A40F2F12104F008F861
:10691C0005F09CFC0028FBD1604A0023C8F800302D
:10692C00137051E7039B1BBA6360AAE7BAF1040F1B
:10693C00F2D15B4BC4F809505D601D812570257246
:10694C0000F008FE044658B1564A574947F001007A
:10695C0005F0D6FD4C4A4FF44071204603F0E0FFA1
:10696C00FFF734FD20B1484A40F2023103F0D8FF62
:10697C00FFF714FE022389F80030CDE799F80030B8
:10698C00042BC9D1464BC4F809505D601D81637856
:10699C002570013325726370656000F0DBFD0446E1
:1069AC0058B1404A414947F0010005F0A9FD364A6B
:1069BC0040F21331204603F0B3FFFFF707FD20B17F
:1069CC00314A40F2153103F0ABFFFFF7BDFDA3E7F1
:1069DC0099F80030042B7FF4F7AE3549304605F0BA
:1069EC008BFD05F033FC02460028FAD1B8F1140FE8
:1069FC0000F09F80B8F11A0F64D0B8F10F0F7FF43C
:106A0C00E3AE63682B4901333046636005F074FDD7
:106A1C0062682949304605F073FDFFF7E9FD00F087
:106A2C0099FD054658B11F4A244947F0010005F06D
:106A3C0067FD154A40F25D31284603F071FF237A59
:106A4C00174A61686078FFF7D1FC00283FF4BCAEB0
:106A5C000D4A40F261310CB0BDE8F04703F060BF65
:106A6C0094E60200C4E602005DE8020087E802003A
:106A7C00A3E8020044290020B6E80200D5E8020091
:106A8C00ECE8020004E902006FE7020014E90200DE
:106A9C001FE90200662900206823002040290020FD
:106AAC004D29002070EF020074E90200A4E90200F5
:106ABC00D0E9020002EA02000EEA020024EA020017
:106ACC0074280020204806F0DBFF1F49304605F0F3
:106ADC0013FD616849B91D4806F0D2FF1B493046C9
:106AEC000CB0BDE8F04705F007BD013918486160EE
:106AFC0007F0D3FAFFF77CFD00F02CFD054658B1EA
:106B0C00144A154947F0010005F0FAFC134A40F20B
:106B1C007A31284603F004FF237A114A61686078C1
:106B2C00FFF764FC00283FF44FAE0C4A40F27E3174
:106B3C0091E70C4B0C480121197040F266610CB0C6
:106B4C00BDE8F04704F058B856EA020063EA0200C8
:106B5C0080EA020070EF020024EA02006FE70200F4
:106B6C004D29002040290020482300207FB54FF4F8
:106B7C008041002005F01AFB20B15F4A4FF4907160
:106B8C0003F0CEFE05F04AFA5C4C5D4B5D49E41A0D
:106B9C00E408240444F003040322204605F0B0FC6E
:106BAC000321594807F079FA584840F266620321EC
:106BBC0003F014FE20B1504A4FF4707103F0B0FE94
:106BCC005349204605F098FC514806F059FF03F054
:106BDC005DFE20B1484A40F2C63103F0A1FE2046CA
:106BEC004C4905F089FC4B4806F04AFF05F02EFB9A
:106BFC000028FBD11F2301A80193FFF765FD019B22
:106C0C0003F5E073032240F8232003F0A1FF20B129
:106C1C00394A40F2291103F083FE3F4E0F2546F00E
:106C2C0001064FF47A40B047013DFAD13B4A3C484B
:106C3C00294603F0BFFF20B12F4A4FF4967103F0A1
:106C4C006FFE384A3848002103F0B4FF20B12A4ABD
:106C5C0040F2371103F064FE3449204605F04CFC39
:106C6C0006F034FE20B1244A40F23B1103F058FEEA
:106C7C002F49204605F040FC20462E4905F03CFCEF
:106C8C0000236846009306F0A9FE20B11A4A40F290
:106C9C00411103F045FE2849204605F02DFC002348
:106CAC00CDE901330393009A012301A940208DF80B
:106CBC000530FFF715FC20B10F4A40F24D1103F0DF
:106CCC002FFE684606F094FE054620B10A4A40F2B3
:106CDC00511103F025FE1949204605F00DFC2DB18C
:106CEC00054A40F26111284603F01AFE1449204669
:106CFC0005F002FC04B070BD6FE70200C4E60200B0
:106D0C0094E6020095EA0200A5EA02001C2300208A
:106D1C00B6EA0200D2EA020090EF0200A566020079
:106D2C009CEF02002167020098EF0200EAEA0200E1
:106D3C00F2EA020002EB0200FAEA02000CEB02009B
:106D4C001EEB020000B5E1B04FF4BA73024601919C
:106D5C00029302A901AB03A805F0CDFD48B1084888
:106D6C00084B0949C01AC008000440F0030005F0A4
:106D7C00C3FB03A805F0CEFD61B05DF804FB00BFBA
:106D8C00C4E6020094E6020032EB02000F2AF8B5CA
:106D9C000F46144602D804252846F8BDC378072BA5
:106DAC0030D1002000F0A2FF054660B1164B174809
:106DBC001749C01AC008000403230022184305F029
:106DCC00A8FB0325E8E7BB7BDB0003F11002944230
:106DDC00E1D39B08DEB20424A642DDD907EB840183
:106DEC00204600F083FF50B1074B08480849C01AF1
:106DFC00C0080004E31C224640F00300DFE7043423
:106E0C00E4B2E9E70625C7E794E60200C4E602000F
:106E1C0057EB0200014670B5154805F0C5FE042875
:106E2C0013D11448144B1549C01AC008000440F083
:106E3C00030005F061FB0E4E304605F073FFF4695C
:106E4C000025338CAB4209D870BD0028F3D009481B
:106E5C00094B0B49C01AC0080004E8E72378032B40
:106E6C0004D161886068FFF76DFF08340135E8E7ED
:106E7C0098230020C4E6020094E6020074EB0200A2
:106E8C00B5EB020010B506494FF48062FFF77EFFA8
:106E9C00044610B90248FFF7BDFF204610BD00BFE5
:106EAC005D3300202DE9F04106F07CF9024640B13B
:106EBC003649374B5B1ADB0836491B0443F0030099
:106ECC0019E006F0E3F9024630B13049304B5B1A59
:106EDC00DB0831491B04F1E7304E304606F0EEF981
:106EEC00044670B12A48294B2D49C01AC008000429
:106EFC00224640F0030005F003FB03242046BDE8C6
:106F0C00F0813568DFF8A4800746B388BB4218D8F7
:106F1C00224806F0A3F8356800271435B388BB4225
:106F2C00ECD915F8023C55F8140C042B00D028B100
:106F3C0035F8101C02300239FFF704FF0137143505
:106F4C00ECE7AB7C042B01D0AB7BCBB9A88906F06A
:106F5C0061F9024630B10D490D4B5B1ADB08114942
:106F6C001B04ABE7FF224146304606F017FA0246F7
:106F7C0030B10649064B5B1ADB080B491B049DE735
:106F8C001435013708F1FF08BFE700BF94E6020093
:106F9C00C4E60200F3EB02002EEC020034230020C6
:106FAC0057EC02007EEC0200A9EC020067290020DD
:106FBC00010706D442064FEA501302D403F0030033
:106FCC0070470220704700001FB50F4B0FCB6C466B
:106FDC0084E80F00162218230C48CDE9002306F094
:106FEC004FFD002321460A481A4601F01DFE0446B7
:106FFC0030B10146074807F050F8204604B010BDE8
:10700C00054802F06FFCF8E760EF0200D2EC0200DA
:10701C0088230020E1EC02008C2300200148002191
:10702C0000F03ABD8823002038B51C4C41F2883161
:10703C00204600F085FD054628B1194806F020FDD4
:10704C000525284638BD204600F0B4FBA078FFF794
:10705C00AFFF28B1012812D0124806F011FDF0E75D
:10706C00114B12481249C01AC008000440F003002A
:10707C0005F042FA2046BDE83840FFF703BF0A4B43
:10708C000A480C49C01AC008000440F0030005F07F
:10709C0033FA2046BDE83840FFF704BF58290020DA
:1070AC0006ED02005EED020094E60200C4E602006A
:1070BC0020ED02003FED020038B500F045FE20B196
:1070CC00074A4FF4287103F02BFC064D4FF4FA6479
:1070DC0045F001054FF47A40A847013CFAD138BD80
:1070EC006FE7020090EF02002DE9F347FFF73EFD3A
:1070FC008A4C8B4B8B49E41AE408240444F00304B7
:10710C00204605F0F9F905F0A1F80028FBD1FFF7AE
:10711C005BFF20B1844A40F2945103F001FC834997
:10712C00204605F0E9F905F091F805460028FAD15A
:10713C007F4806F0A5FC7F4800F05AFF7E4806F019
:10714C009FFC2A463C21022000F08EFF7B4806F073
:10715C0097FCFFF7F9F9FFF761FF20B1724A40F293
:10716C00A15103F0DDFB7649204605F0C5F905F089
:10717C006DF80028FBD17349204605F0BDF9724922
:10718C006C4800F003F920B1674A40F2AC5103F0AF
:10719C00C7FB6E49204605F0AFF905F057F80028FB
:1071AC00FBD16B49204605F0A7F900F023F920B17B
:1071BC005D4A40F2755103F0B3FB634D65492046BF
:1071CC0005F09AF92B78DBB1FFF712FA624B69687C
:1071DC00687804221A702B7A05F10902FFF706F978
:1071EC00DFF8A4815D4F08F10409FFF71DFF0628A5
:1071FC0000F28980DFE800F00F87878771798100C2
:10720C006B682BB1FFF7CAF9534B02221A70E7E7F0
:10721C00FFF79AF9E4E75248524E06F031FC504918
:10722C00204605F069F92B7893B14F4806F035FFED
:10723C004E49204605F060F92A7A3146204605F081
:10724C009DF9FFF739FF05F001F80028FBD1CCE7D9
:10725C0033607360338198F803202A7249464FF0EB
:10726C00010A304685F800A006F092FD404806F071
:10727C0007FC4049204605F03FF931462A7A204662
:10728C0005F07CF91F2301A80193FFF71DFA019B60
:10729C000AFA03F3C0F8083500F05CF9064648B169
:1072AC003549204605F028F91F4A40F2FD31304699
:1072BC0003F036FBFFF79CF9274B696868780422CA
:1072CC001A702B7A274AFFF791F80028B9D0164A82
:1072DC0040F2024103F024FBB3E72046274905F0B6
:1072EC000BF9264806F0CCFBABE72046244905F009
:1072FC0003F9234806F0C4FBA5E72046214905F015
:10730C00FBF82048EEE73946204605F0F5F83846FC
:10731C0006F0B6FB00F018FD95E700BFC4E60200CE
:10732C0094E60200A1ED02006FE70200B4ED02004A
:10733C00C4ED020088230020DAED0200EEED02001D
:10734C0003EE020015EE02004429002029EE020093
:10735C003CEE020055EE02006629002048EF0200C8
:10736C0070EE02004D29002076EE02008DEE020038
:10737C00AEEE0200BCEE0200CDEE0200F0EE02001A
:10738C0027EF020035EF02005829002070B5124B90
:10739C00124CE41AE408240405460E4644F003009B
:1073AC000F4905F0A9F8284600F0D2FC054638B183
:1073BC000C4A0D4944F0010005F0A2F8284670BDB6
:1073CC003EB9084A094944F0010005F099F807252F
:1073DC00F4E7074B1E60F1E794E60200C4E60200F6
:1073EC0015EE02000DF20200A0EF0200C3EF020046
:1073FC00B0370020F0B5464B464E4749F61AF60812
:10740C00360446F0030595B0284605F075F82022A1
:10741C004FF42C6102A800F077FD044640B13F4ABE
:10742C003F4946F0010005F06BF8204615B0F0BD61
:10743C003C493D4F284605F05FF83C49284605F08D
:10744C005BF89DF8282002A9284605F097F89DF8CE
:10745C000D206ABB3649284605F04EF83B681C7077
:10746C001C72029B3A681BBA53609DF80C305A1E72
:10747C00D2B2FD2A08D92F49284605F03DF82E49ED
:10748C00284605F039F8012339680A7A4B700093C5
:10749C004B682A49284605F046F82846284905F045
:1074AC002BF8396828460A7A093105F067F8BCE7E9
:1074BC00FF2A1FD12846234905F01EF83B682249B4
:1074CC005C601C801C722846202505F015F82146AE
:1074DC002A460BA806F092FC4FF42C610BA88DF8F1
:1074EC004C5000F06BFC044600289ED017494FF41A
:1074FC002C6296E7092A01D91549ACE738680123B3
:10750C00037002720DF10E01093006F041FCA8E780
:10751C0094E60200C4E60200EFEF0200EEF1020076
:10752C0007F002003AF00200B037002051F00200E0
:10753C0067F0020061F10200A9F10200B9F102004A
:10754C00E4F1020096F00200D9F0020011F1020001
:10755C002DF1020010B58AB02022002101A806F0FE
:10756C004DFC0E4B1C686368227A1BBA019363783E
:10757C008DF8083004F109010DF10A008DF809208D
:10758C0006F006FC237A4FF42C61063301A88DF823
:10759C00243000F013FC0AB010BD00BFB03700203F
:1075AC004FF08053D3F83001A0F10D0358425841ED
:1075BC0070470000024AD2F80034002BFBD0704711
:1075CC0000E0014010B5FFF7EBFF40B14FF08043F6
:1075DC000022C3F80C21C3F81021C3F83825FFF79B
:1075EC00DFFF002846D04FF08052514BD2F80414E4
:1075FC00C3F82015D2F80814C3F82415D2F80C14CB
:10760C00C3F82815D2F81014C3F82C15D2F814149A
:10761C00C3F83015D2F81814C3F83415D2F81C146A
:10762C00C3F84015D2F82014C3F84415D2F824142A
:10763C00C3F84815D2F82814C3F84C15D2F82C14FA
:10764C00C3F85015D2F83014C3F85415D2F83414CA
:10765C00C3F86015D2F83814C3F86415D2F83C148A
:10766C00C3F86815D2F84014C3F86C15D2F844244A
:10767C00C3F87025FFF794FF48B14FF08043D3F85F
:10768C000024D20744BF6FF00102C3F80024294A3A
:10769C00D2F8883043F47003C2F88830BFF34F8FB0
:1076AC00BFF36F8F4FF08053D3F830210D2A0ED1DA
:1076BC00D3F83431022B02D81F4AD35C3BB14FF0C4
:1076CC001023D3F808224FF08043C3F858254FF00D
:1076DC001023D3F80022002A03DBD3F80432002B4A
:1076EC0022DA164901234FF01020C1F80435122478
:1076FC00FFF760FFC0F80042FFF75CFFC0F80442E0
:10770C00FFF758FF0023C1F80435FFF753FFBFF311
:10771C004F8F08490A4BCA6802F4E0621343CB60EE
:10772C00BFF34F8F00BFFDE7064B074A1A6010BD31
:10773C0000C0004000ED00E021F2020000E001403A
:10774C000400FA05BC2300200090D0030268530902
:10775C0010B5044618D0012B40F2FF3318BF00239C
:10776C0002F01F02D340DB0704D409494FF4F67032
:10777C0003F06CFE23681F2B83BF03F01F03054827
:10778C0023604FF0A04010BD4FF0FF33E8E700BF7F
:10779C0001E802000003005038B5054D044645F0E1
:1077AC0001054FF47A40A847013CFAD138BD00BF1F
:1077BC0030F50200F8B504461348144F06F060F992
:1077CC002178134806F069FC25466178114806F0CB
:1077DC0064FCA178104806F060FC15F8031F0F48F4
:1077EC0006F05BFC6FF00206361BE27873199A42C6
:1077FC0004DCBDE8F8400A4806F042B915F8011F50
:10780C00384606F04AFCF0E724F20200781903002F
:10781C0040F2020074F20200A3F20200B4F2020081
:10782C00A9F6020007B5084B01A81B790193FFF7D5
:10783C008DFF019BD0F81005D840C04300F001002B
:10784C0003B05DF804FB00BFC023002038B504462C
:10785C00FFF7E8FF002508B9A54200D138BD01208B
:10786C00FFF79AFF0135FFF7DDFFF4E770B5064629
:10787C0064200D46FFF7EAFFB0B10D4BDB799BB9E5
:10788C00FF2D13D00B4A10680B4A6B1CDBB2242162
:10789C00043002F0E4F8044620B908492A46304680
:1078AC0006F076FA204670BD0324FBE70624F9E7C0
:1078BC00C0230020B8390020B5380020B63800208D
:1078CC0037B506216846FFF7D1FF044680B94FF45F
:1078DC007A75FFF7A7FF18B1013DADB2002DF8D1B5
:1078EC0005490622684606F0B9FA002818BF032499
:1078FC00204603B030BD00BF36F502001B4BDB79D0
:10790C00F7B507460C466BBBF8292DD8184D2B70D4
:10791C006B70FF23AB704B1CEB70D426CB430A4629
:10792C002B7101466E71A81D06F032FA38463A19D1
:10793C003346904211D10F49254408685B4200221E
:10794C00AB7104F10803EA71DBB200922421084AFE
:10795C00043002F071F803B0F0BD10F8011B0B44B9
:10796C00DBB2E6E70320F6E70720F4E7C0230020AC
:10797C00B5380020B839002037B504460F480191BE
:10798C00154606F07DF820460199FFF7B7FF04462F
:10799C0030B101460A4806F080FB204603B030BDEA
:1079AC002846FFF753FF20B9064806F069F8032470
:1079BC00F3E703B0BDE83040FFF782BFC4F202002A
:1079CC00DBF2020003F3020070B5154D02230646EC
:1079DC004FF47A72012128462B70FFF7CDFF044635
:1079EC0028B101460F4806F058FB204670BD0D210A
:1079FC002846FFF73BFF044610B101460A48F2E760
:107A0C000A490622681C06F029FA20B1084806F03B
:107A1C0037F80524E9E7D5F807301BBA3360E4E7FB
:107A2C00B537002018F3020052F302003CF50200B7
:107A3C0076F30200431E032B10B517D80C4C1423FD
:107A4C0023706070A3704FF47A72012304212046D6
:107A5C00E370FFF791FF40B909212046FFF706FFBD
:107A6C0018B9A379152B18BF052010BD0720FCE70A
:107A7C00B5370020074B32221A70FF2205219A706D
:107A8C000122DA70187159704FF47A721846FFF7A8
:107A9C0073BF00BFB537002073B5234B234D18605F
:107AAC002B780BB100293BD0214EF479002C39D125
:107ABC003379019301A8FFF749FE019B03F5E073AD
:107ACC0040F823407379019301A8FFF73FFE019B17
:107ADC0003F5E07340F823406420FFF75DFE154882
:107AEC0005F0CEFF01A8FFF76FFF044630B1014649
:107AFC00114806F0D2FA204602B070BD0120FFF703
:107B0C0099FF04460028F6D1FF20FFF7B3FF044687
:107B1C000028F0D1012309482B7006F0BEFAEAE7E1
:107B2C000C46E8E70324E6E7B8390020B437002018
:107B3C00C023002094F30200A5F30200CCF3020052
:107B4C00F8B506462B480F4605F09AFF2EB92A4881
:107B5C0005F096FF07242046F8BD284D4A232B70CC
:107B6C0001236B706422002303212846AB70FFF7BE
:107B7C0003FF044620B10146214806F08EFAEAE7DD
:107B8C00204805F07DFF642F384638BF6420FFF78E
:107B9C005DFE20B91C4805F073FF0324DBE71921B7
:107BAC002846FFF763FE044610B101461748E4E788
:107BBC00E979012904D0164806F06FFA0B24CAE7BC
:107BCC002B7B0A2B04D9134805F05AFF0924C2E772
:107BDC00AB7A33706B7A7370EB7AB3702A7BF2707A
:107BEC0005F10D01301D06F0D3F80B4B2A7A9A7172
:107BFC00B1E700BFE2F3020003F40200B537002046
:107C0C004CF402006BF4020095F40200A2F40200A2
:107C1C00CCF402000BF50200C0230020F8B5294D6E
:107C2C001E4640232B70284B9B796B700C461746D5
:107C3C000A460146A81C06F0ABF8A11C4FF47A7258
:107C4C00C9B22846FFF798FE044628B94FF47A705B
:107C5C00FFF7FCFD10B903242046F8BD31780A313A
:107C6C00C9B22846FFF702FE04460028F4D12B784F
:107C7C006A78134323D1AB78FF2B20D1E9782A798A
:107C8C004B42DBB29A421AD16A7902F12C03DBB275
:107C9C00012B14D8D52ADED1AB79412BDBD1EB7972
:107CAC009B06D8D13378CD1EEDB29D4228BF1D4620
:107CBC0006492A46384606F06BF83570CCE70B249B
:107CCC00CAE700BFB5370020C0230020BD37002015
:107CDC00FF2910B406D01C78F62C03D85DF8044BA1
:107CEC00FFF79CBF03205DF8044B704707B51023CA
:107CFC008DF8033030230A468DF804308DF80500DA
:107D0C000DF10303022101A8FFF788FF03B05DF812
:107D1C0004FB00000B4B322210B51A7001225A7072
:107D2C0098704FF47A7203211846FFF725FE04462B
:107D3C0028B96420FFF78AFD002808BF03242046D9
:107D4C0010BD00BFB53700200020FFF7E3BF0000D7
:107D5C00144A08B5137873B1134B14481449C01A5C
:107D6C00C008000440F0030004F0C6FB104805F006
:107D7C0087FE032008BD70B90B4B0C480D49C01A87
:107D8C00C008000440F0030004F0B6FB094805F0FD
:107D9C0077FE0E20EEE708490860012111701846A5
:107DAC00E8E700BFDE39002094E60200C4E60200DA
:107DBC0042F5020069F50200E03900202DE9F3419B
:107DCC000F46054638B9434805F05AFE0E242046A6
:107DDC0002B0BDE8F08190F82020202A04D93E485A
:107DEC0005F04EFE0C24F2E701F01F031344202B88
:107DFC0002DD3A4806F051F9394B3A4C3A49DFF872
:107E0C00FC80E41AE408240444F0030495F82030C0
:107E1C003A46204604F07DFB3449204604F06CFBC6
:107E2C0095F820202946204604F0A8FB2F4806F0A0
:107E3C0034F9002695F82030B3423DDC2C4E2D4809
:107E4C0006F02BF922220021304605F0D7FF3046F0
:107E5C007FBA95F8202020F8027B294605F098FF80
:107E6C0095F820502449254F02352046EDB204F0F8
:107E7C0043FB20462A46314604F080FB1E4806F0A0
:107E8C000CF90024A5421DDC1A481D4E06F005F91C
:107E9C001C4B174A18680023009357212B460430BB
:107EAC0001F0CAFD0F25044646F001064FF47A4056
:107EBC00B047013DFAD18AE7A95D404606F0EDF8DE
:107ECC000136B7E716F8011B384606F0E6F8013420
:107EDC00D8E700BF8EF50200C2F50200FAF50200E9
:107EEC0094E60200C4E6020039F6020075F60200C0
:107EFC00BC390020A8F60200ABF60200A2F6020084
:107F0C0060F70200E03900207FB54BBAADF80C30B9
:107F1C00194C1A4BE41AE4082404CBB20546164655
:107F2C0044F003000A0A164C164904F0F2FA9DF8C4
:107F3C000D209DF80C10134806F0AFF820680023B4
:107F4C00009303AA02235721043001F075FD28B1D8
:107F5C000D4805F095FD032004B070BD2068334634
:107F6C002A465721043001F07AFD08B10748F0E7A2
:107F7C0085F82060F0E700BFC4E6020094E602003A
:107F8C00E0390020DBF6020016F7020034F702009D
:107F9C000268530910B5044618D0012B40F2FF3388
:107FAC0018BF002302F01F02D340DB0704D4094999
:107FBC004FF4F67003F04AFA23681F2B83BF03F0CB
:107FCC001F03054823604FF0A04010BD4FF0FF3356
:107FDC00E8E700BF01E8020000030050034B1B78E8
:107FEC00002B0CBF03200020704700BFF63D002083
:107FFC00064A0123137038B1054913700860054A0D
:10800C00054913703C200870704700BF033E0020E8
:10801C00F83D0020F63D0020EC3900201FB5044649
:10802C00FFF7DCFF18B10C4AE82102F079FC0B4B8E
:10803C001B7873B10A4A0B4910688DF80D40002368
:10804C0000938DF80C300978022303AA043001F058
:10805C00F3FC04B010BD00BF66F70200033E002025
:10806C00F83D0020EC390020504BF7B51870504B00
:10807C001970504B504900261E80504B1E80504B9F
:10808C0001251D704FF6FF730B804E490B804E4B34
:10809C004E491D704E4B1E7080230B804D490B803A
:1080AC004D4940230B804D490B804D4B04461E70AF
:1080BC0022B301A80196FFF76BFF019B494F05FA0C
:1080CC0003F3C0F808352F434FF47A40B84701A8A2
:1080DC000196FFF75DFF019B9D40C0F80C550A25EA
:1080EC004FF47A40B847013DFAD101A80195FFF74A
:1080FC004FFF019A01239340C0F80835AE20FFF7DB
:10810C008DFFD520FFF78AFF8020FFF787FFA8207F
:10811C00FFF784FF3F20FFF781FFD320FFF77EFF9F
:10812C000020FFF77BFF4020FFF778FF8D20FFF743
:10813C0075FF012C0CBF10201420FFF76FFF2020BF
:10814C00FFF76CFF0020FFF769FFA120FFF766FF28
:10815C00C820FFF763FFDA20FFF760FF1220FFF75C
:10816C005DFF8120FFF75AFF012C0CBF9F20CF2011
:10817C00FFF754FFD920FFF751FF012C0CBF222031
:10818C00F120FFF74BFFDB20FFF748FF4020FFF704
:10819C0045FFA420FFF742FFA620FFF73FFFAF20CB
:1081AC0003B0BDE8F040FFF739BF00BFED39002048
:1081BC00EC390020F23D0020FE3D0020F43D002073
:1081CC00023E0020003E0020043E0020E639002044
:1081DC00E8390020EE390020E4390020EA3900208B
:1081EC00FC3D002000F8020050EA010350D4314B52
:1081FC00B3F9003083424BDD2F4BB3F900308B4287
:10820C0046DD2E4B1B78022B21D0032B2AD0012BC1
:10821C0005D12B4B1B88013B5B1A014618B2012A76
:10822C0026D0022A35D0002A32D100290B46B8BFFD
:10823C00CB1D8022DB1013FB02032248012201F02C
:10824C00070102FA01F1C25C22EA01021FE01C4B99
:10825C001B88013B1B1A18B21B4B1B88013B5B1A7A
:10826C0019B2DCE7184B1B88013B1B1A0846F7E7D1
:10827C0000290B46B8BFCB1D8022DB1013FB020379
:10828C00104801F0070101228A40C15C0A43C25424
:10829C00704700290B46B8BFCB1D8022DB1013FBA7
:1082AC000203084801F0070101228A40C15C4A40E0
:1082BC00EDE700BFEE390020EA390020FC3D00203C
:1082CC00E6390020C9230020E439002013B51E48EC
:1082DC0005F0D6FB2220FFF7A1FE0020FFF79EFE43
:1082EC000720FFF79BFE2120FFF798FE0020FFF7E9
:1082FC0095FE7F20FFF792FE144B1B780BB3144CAA
:10830C00144805F0BDFB2046402300F8013B124900
:10831C004FF4806205F03CFD104B114918680023A6
:10832C000093097840F201432246043001F084FBAB
:10833C0038B10C4A40F2592102B0BDE8104002F0AD
:10834C00EFBA02B010BD00BFDBF70200033E002005
:10835C00F0390020EBF70200C9230020F83D002083
:10836C00EC39002066F7020002484FF480620021CD
:10837C0005F044BDC9230020002930B53ADB214C5F
:10838C00B4F900408C4235DD00281F4CBCBF80186E
:10839C0002B2B4F90040B8BF00208518A542C4BF92
:1083AC00241A22B2002A25DDCC1000EBC410174C85
:1083BC00204401F007040121A140012BC9B216D0C1
:1083CC00022B0BD0B3B9C943C9B20244904211D0AD
:1083DC0010F8013B0B4000F8013CF7E702449042D7
:1083EC0008D010F8013B4B4000F8013CF7E7024481
:1083FC00904200D130BD10F8013B0B4300F8013C1A
:10840C00F6E700BFE4390020E6390020C92300203C
:10841C000028F0B56ADB474CB4F90040844265DDB6
:10842C000029454CBCBF521812B2B4F90040B8BF79
:10843C0000218D18A542C4BF641A22B2002A55DD52
:10844C00C1F3C4043D4F00EBC41611F00701D2B2C6
:10845C0007EB060023D0C1F10805EDB2384CAA4257
:10846C00645D60D2A5EB020E4FF0FF0C4CFA0EFCD3
:10847C00012B04EA0C0407D0022B38D0B3BB17F83D
:10848C0006C02CEA040403E017F806C044EA0C0406
:10849C00AA42BC552AD308391144CAB28030072AE3
:1084AC0018D9022B00F1800126D1144611F8805CFA
:1084BC00083CE4B2ED43072C01F8805C01F180012B
:1084CC00F4D8A2F10801C1F3C401013100EBC110D1
:1084DC0002F0070252B11B49012B8A5C1CD0022B03
:1084EC001ED01BB9037823EA02030370F0BD17F802
:1084FC0006C084EA0C04CBE7012B4FF0FF3518BF04
:10850C000025EDB21446083CE4B2072C01F8805C5F
:10851C0001F18001F7D8D4E703781A430270E5E73C
:10852C0003785A40FAE7012BAED0022BDFD0002B98
:10853C00B1D1A4E7E6390020E4390020C92300209A
:10854C0009FD020001FD020010B40C461349097824
:10855C0002290ED003291BD0012914D110490988F6
:10856C00891A091B0CB2014620465DF8044BFFF733
:10857C0003BF0B4909880139091A08B2094909884E
:10858C00891A091B0CB221465DF8044BFFF740BF5A
:10859C00044909880139091A08B2E4E7FC3D0020B6
:1085AC00E6390020E43900202DE9F041BDF81870BF
:1085BC0088461E4604468518AC4201DBBDE8F081B6
:1085CC0020463B46324641460134FFF7BDFF24B2FC
:1085DC00F2E700002DE9F04F8BB007460393BDF88E
:1085EC00503004933C4B9DF85450B3F90030834207
:1085FC0059DD3A4BB3F900308B4254DD062313FBA3
:10860C000503002B4FDD01EBC503002B4BDD344B79
:10861C001B781BB9AF2A84BF0132D2B202EB8203A2
:10862C000993062306938BB2059308339BB200245F
:10863C000893052C1CBF2B4B099A059E18BF1B19C0
:10864C0004EB070A18BF13F80290ABB2079304FBB4
:10865C0005F313FA87F31BB207EE903A08BF4FF0FD
:10866C000009B0460FFA85FB0FFA8AFA19F0010FD0
:10867C0027D0012D1AD1039A31B25046FFF7B4FD21
:10868C00079B01369844089BB6B2B3424FEA59098E
:10869C001FFA88F8EAD1069B013B013413F0FF0363
:1086AC0064B20693C5D10BB0BDE8F08F039B009369
:1086BC0017EE900A5B465A460FFA88F1FFF774FFE3
:1086CC00DEE7DDE903239342DAD0012D01D11A460E
:1086DC00D2E7049BEBE700BFEE390020EA3900201B
:1086EC00E839002006F802006DDF704779DF70472B
:1086FC007DDF704764DF70472DE9F04F85B00025B2
:10870C000E9CBDF83CB0B4F800A001910746904611
:10871C001E46A9463A884A450DDC45B12388013BE3
:10872C00A3EB0A039BB2FF2B39D806F80A300020C2
:10873C0005B0BDE8F08F7A6852F82900039000224A
:10874C000DF10B0103A8FFF7D5FF0028F0D19DF820
:10875C000B20424520D1228885F0010002EB080154
:10876C0001EB400159451ADC3DB9013292B2019B33
:10877C002280B35422880132228022880DF10B0111
:10878C00324403A8FFF7B6FF0028D1D121889DF809
:10879C000B200A442280012509F10109BAE70C20BB
:1087AC00C6E72DE9F341089FBDF824801546CDE9B5
:1087BC000078022204461E46FFF79EFF50B933464E
:1087CC00102229462046CDE9087802B0BDE8F041D8
:1087DC00FFF792BF02B0BDE8F0812DE9F04F002306
:1087EC001788138090F82D3085B006460D46144638
:1087FC005BB3082F01D80C2028E102A8FFF774FF07
:10880C00002840F023812388DDF809100822EA545F
:10881C00238801339BB21B222380EA542388013323
:10882C009BB2EA182380E950BDF80D309380238861
:10883C009DF8082006339BB212F0FE0218BF0122ED
:10884C002380EA54238801332380B378FBB1238837
:10885C000433BB42CFD802A8FFF748FF002840F0F2
:10886C00F58023880322EA54238801339BB2192212
:10887C002380EA542388BDF8082001339BB2E91801
:10888C002380EA54120A4A70238802332380F27838
:10889C009AB12388D91CB942ADD80221E954238856
:1088AC0001339BB201212380E95423880B449BB2F2
:1088BC002380EA5423880B4423807368ABB193F96B
:1088CC0000202388D91CB94295D80221E954238869
:1088DC0001339BB20A212380E954238801339BB2D4
:1088EC002380EA542388013323803389002B40F002
:1088FC00A180338A5BB1CDE900472B4607220321C7
:10890C0006F11000FFF74DFF002840F09F80338BDD
:10891C005BB1CDE900472B461522142106F1180056
:10892C00FFF73FFF002840F09180326A002A40F0A8
:10893C009080D6F82480B8F1000F30D0B8F804300D
:10894C002188981C8A1C0244BA423FF654AFFE2878
:10895C003FF651AF03336B54238801339BB2FF2294
:10896C002380EA54238801339BB22380B8F800207B
:10897C00EA54E918120A4A702088023080B220802A
:10898C00B8F804205AB1D8F8081000296BD0284444
:10899C0005F0FEF92388B8F804201344238096F8D8
:1089AC002C30002B40F09880307800284ED0338843
:1089BC00012B58D0228802F1020CBC453FF61BAFAC
:1089CC00012805D17378023313449F42FFF413AF8F
:1089DC00023FBF1ABFB202A905EB0C00ADF808703C
:1089EC00FFF786FE90BB3178BDF80830022900F005
:1089FC00B98072789A4202D39F4280F0B1800129EB
:108A0C0040F0B280974293B2C0F0AE80ADF808301F
:108A1C000821BDF80830FE2B3FF6EDAE228801335D
:108A2C00AB542288013292B22280A954228813447A
:108A3C0023800BE0CDE900472B460622022106F1EC
:108A4C000800FFF7AEFE00283FF453AF05B0BDE8B9
:108A5C00F08FB4F800C00CF10603BB423FF6CBAE6E
:108A6C001188052901D80720F0E76FF4486E01EB57
:108A7C000E039BB24FF27D3E7345F4D95388052B00
:108A8C00F1D96FF44860181880B27045EBD94FF6E5
:108A9C00FF70814201D09942E5D8052305F80C30CE
:108AAC00238801339BB212212380E954238801339C
:108ABC009BB223801188E954E818090A4170238875
:108ACC0002339BB223805288EA54E918120A4A7086
:108ADC002388023323802CE7B36A002BC3D04FF0DA
:108AEC0000084FF00C0A4FF0160BB16A5FFA88F2CF
:108AFC000AFB02F201EB0209B9F80430981CFE28BB
:108B0C003FF679AE208803332B54238801339BB274
:108B1C00238005F803B0238801339BB223808A5A43
:108B2C00EA54E918120A4A702088023080B2208078
:108B3C00B9F804205AB1D9F80810002993D0284468
:108B4C0005F026F92388B9F804201344238096F8FD
:108B5C002C2008F101085FFA88F39A42C5D823E764
:108B6C00092156E79F42FBD2ADF8087050E7000090
:108B7C001FB503788DF800308388ADF80430836816
:108B8C008DF80630C3688DF807300369029343698A
:108B9C00054A0393054B684653F8213052F82110CF
:108BAC00984705B05DF804FB083E0020103E0020FD
:108BBC000268530910B5044618D0012B40F2FF335C
:108BCC0018BF002302F01F02D340DB0704D409496D
:108BDC004FF4F67002F03AFC23681F2B83BF03F0AE
:108BEC001F03054823604FF0A04010BD4FF0FF332A
:108BFC00E8E700BF01E802000003005007B5019050
:108C0C0001A8FFF7D5FF019A01239340C0F808355E
:108C1C0003B05DF804FB0000024B4FF4807043F08E
:108C2C000103184720FD02002DE9F743154690F883
:108C3C000080354A42F82850344A42F828304B7BA1
:108C4C0006460C467BB308684FF0A04700F5E0736E
:108C5C0040F20C6247F823204B6803F5E0734FF0A9
:108C6C00010947F82320FFF7C9FF6068FFF7C6FF2B
:108C7C00236803F5E07340F20D6247F82320636824
:108C8C0003F5E07347F82320FFF7C6FF002763685E
:108C9C00019301A8FFF78CFF019AD0F81035D3404F
:108CAC00DB070CD5FFB91A4A002D434608BF2A46EC
:108CBC002146301D03B0BDE8F04300F069BD2368C8
:108CCC00019301A8FFF774FF019B09FA03F3C0F8A5
:108CDC000C35FFF7A1FF01372068FFF78FFFFFF777
:108CEC009BFF092FD3D16368019301A8FFF760FFA5
:108CFC00019A01239340C0F80C35FFF78DFF606893
:108D0C00FFF77CFFCFE700BF103E0020083E00209D
:108D1C007D8B02001FB503788DF8003043680193FA
:108D2C0083688DF80830C368054A0393054B684681
:108D3C0053F8213052F82110984705B05DF804FB28
:108D4C00183E0020203E00201FB503788DF800301F
:108D5C004368019383688DF80830C368054A039310
:108D6C00054B684653F8213052F82110984705B04E
:108D7C005DF804FB183E0020203E0020F0B5194B96
:108D8C0090F800C0DFF86CE043F82C20164B164628
:108D9C000A6943F82C204B7F0EF80C300C46074622
:108DAC000FCC89B06D460FC594E80F0085E80F0015
:108DBC003B78CDF810C01EF803304BB1002E0B4A97
:108DCC00694608BF3246381D01F004FA09B0F0BDFF
:108DDC00002E074A694608BF324607F10C0000F026
:108DEC0061FFF3E7203E0020183E0020218D020099
:108DFC00558D0200283E002000F1804000F5C04057
:108E0C00002382B0036003680193019B02B070479A
:108E1C0043090BD0012B40F2FF3318BF002300F0A5
:108E2C001F0023FA00F000F0010070474FF0FF33F1
:108E3C00F5E70000054B4FF0FF32072843F82020E0
:108E4C0084BF1B1883F85220704700BF2C3E0020B3
:108E5C0010B504460068FFF7DBFF20B907494FF453
:108E6C00F67002F0F3FA23681F2B83BF03F01F0385
:108E7C00034823604FF0A04010BD00BF01E8020082
:108E8C000003005013B5019001A80C46FFF7E0FF5A
:108E9C00019B00EB8300D0F8003723F44033C0F87B
:108EAC000037D0F8003743EA0443C0F8003702B06B
:108EBC0010BD000010B5184991F8642052BBFF2476
:108ECC001046FFF7A5FF10B18B1883F83040013224
:108EDC002A2AF5D10024E0B20134FFF7ABFF0C2CA9
:108EEC00F9D10E4B0022C1F85E209A800C4BC020A9
:108EFC0083F80603402018604FF4BE70FFF77CFF28
:108F0C00084B4FF00040C3F80403012381F8643090
:108F1C00104610BD0820FCE72C3E00208A3E0020A5
:108F2C0000E100E000600040034B93F8640000385F
:108F3C0018BF0120704700BF2C3E00202DE9F743DD
:108F4C0004460F469146FFF763FF20B941494FF4A1
:108F5C000C7002F07BFADFF8048108EB040393F940
:108F6C003030002B73DABB78C3F34003002B15BFF2
:108F7C000025082508220C22954203D1042003B0B9
:108F8C00BDE8F08358F82510013146D108EB0402F6
:108F9C006EB248F8259082F830601BB908EB0503D7
:108FAC0083F85240BB785A0717D4D90737D501A894
:108FBC000194FFF74DFF019B00EB8300D0F80037C5
:108FCC0023F00203C0F800372349E20804F007003D
:108FDC0001238340885C03438B54B8783B7810F0B2
:108FEC0002002AD0AD0005F1804505F5C0452402EC
:108FFC00D5F8102522F44F3222F44072C5F8102512
:10900C001B04D5F8102504F47C5403F440331C43A2
:10901C001443C5F810450020B1E70135ACE701A8B1
:10902C0097F801900194FFF713FF019B03F5E07390
:10903C004FEA890240F82320C6E7083E48FA86F634
:10904C0096F85A2042EA831386F85A3097E708209C
:10905C0095E700BF26FD02008A3E00202C3E002032
:10906C0073B505460C46FFF7D3FE20B929494FF4DA
:10907C00187002F0EBF9284E731993F93030002B6D
:10908C0004DA244940F2612002F0E0F9731993F9F3
:10909C003020072A1DDD083A46FA82F292F85A303F
:1090AC009B09032B10D101A80195FFF7D1FE019B61
:1090BC00D0F81015D94001F001010231284602B058
:1090CC00BDE87040FFF7DEBE012B0CBF022103216F
:1090DC00F4E7D3B2072B1AD8930003F1804303F5BE
:1090EC00C04302F14000D3F8101540B241F0010129
:1090FC008000C3F8101580B2FFF77EFE3CB156F825
:10910C00223023B101239340044AC2F8043302B045
:10911C0070BD00BF26FD02002C3E00200060004008
:10912C0013B50446FFF774FE20B9084940F2B2208B
:10913C0002F08CF901A80194FFF78AFE019BD0F88C
:10914C001005D84000F0010002B010BD26FD020051
:10915C002DE9F04F002485B0CDE90244594D4FF470
:10916C008072012102F1804303F5C04390B21B6869
:10917C00012B06D1D5F804330B4202D0FFF73CFE8D
:10918C000C430432B2F5907F4FEA4101EAD14D4BCA
:10919C00D3F87C31012B11D14FF4BE70FFF72CFEAC
:1091AC004FF0A04344F00044D3F820250292C3F8BA
:1091BC002025D3F820280392C3F82028E3B2D3B19A
:1091CC00414F00250126344210D0AB0003F18043FF
:1091DC0003F5C043D3F81005D3F8101557F8253014
:1091EC0023B1C1F30141C0F3052098470135082D87
:1091FC004FEA4606E7D1002C5CDA334D334C344E43
:10920C004FF00009012716F9013F5A1C3FD0C3F358
:10921C00C20210326A445FFA83FA12F8082C03F087
:10922C003F0803F0070307FA03F31A422FD001A8F3
:10923C00CDF80480FFF70CFE019B03F5E07350F8AA
:10924C002330C3F3014BBBF1020F0CBF03210221EE
:10925C004046FFF717FE01A8CDF80480FFF7F8FD94
:10926C00019B07FA03F3C0F8203505EB080393F9CB
:10927C00303055F8233053B14FEA9A11032904D0FA
:10928C00BBF1020F19D1012901D14046984709F1D0
:10929C000109B9F1040FB6D14FF0A042D2F8203534
:1092AC000293C2F82035D4F8202503921343C4F856
:1092BC002025A4D105B0BDE8F08FBBF1030FE6D19A
:1092CC000229E1E7006000402C3E00200003005022
:1092DC00853E002010B5054C23681BB9044951206C
:1092EC0002F0B4F82368BDE810401847943E002003
:1092FC00ACFD020037B50D4630B90F49772002F0AE
:10930C00A5F8002003B030BD0C4B9842F9D10023D6
:10931C000DF107008DF8073001F0E0FD084B1C79CA
:10932C0014B901221D601A719DF8070001F004FEAA
:10933C00002CE6D01120E5E7ACFD02000020004037
:10934C00943E002018B906499B2002F07FB8054BCB
:10935C00984201BF044B00221A601A71704700BF7B
:10936C00ACFD020000200040943E0020002343503E
:10937C0082B043580193019B02B0704702685309B5
:10938C0010B5044618D0012B40F2FF3318BF002350
:10939C0002F01F02D340DB0704D409494FF4F670E6
:1093AC0002F054F823681F2B83BF03F01F030548FA
:1093BC0023604FF0A04010BD4FF0FF33E8E700BF33
:1093CC0001E80200000300508B6A4A6B9A4210B508
:1093DC004FF0010305D2496A8A5CC0F81C251A4675
:1093EC0004E091F82C201AB1C3610022104610BD84
:1093FC000C6A640603D5C36181F82D30F6E743612E
:10940C00EDE770B5D0F8046105460C4626B14FF473
:10941C008271FFF7ABFF012694F82F2022B34FF493
:10942C0092712846FFF7A2FF4FF48E71FFF79EFF53
:10943C004FF48471FFF79AFF002E69D094F82F2017
:10944C00002384F82D3092BBA36A616B99421CBF38
:10945C001646052386F001061CBFC5F80025C5F885
:10946C00003584F82F6023E0D5F824314BB14FF44C
:10947C0092712846FFF77AFF01236B6184F82F3035
:10948C00DAE7D5F81C31ABB14FF48E712846FFF7F3
:10949C006DFF636B01336363D5F8243113B14FF463
:1094AC009271E7E72146FFF78FFF0028C4D1002215
:1094BC00104670BDD5F80831002BBDD04FF4847127
:1094CC002846FFF753FFD5F82431002BE7D1636B07
:1094DC00A16A8B42B0D2616AD5F81805C854636B87
:1094EC00A16A0133481E8342636308D1206A400697
:1094FC0010D40223C5F8003201232B629CE78B4267
:10950C00FAD1236A5B0697D5022384F82D30CFE776
:10951C000122CDE78B42EFD1F6E7000037B5314B96
:10952C0001930D464FF48271FFF720FF4FF49271B7
:10953C00FFF71CFF4FF48E71FFF718FF4FF4847187
:10954C00FFF714FF0023C0F800326B6385F82F304F
:10955C000123036295F82D209A4218BF8360294697
:10956C000446FFF731FF2B6883B140F28623AB60D2
:10957C00AB68C4F80433002003B030BD2946204644
:10958C00FFF73FFF28B1019B013B0193019B002B8F
:10959C00F4DC95F82F0050B9019B002BECDC002378
:1095AC00C4F800350523C4F800350320E4E7D4F8EB
:1095BC00C434C4F8C43493B113F0010F14BF4FF486
:1095CC000240032048F2012213F0020F18BF10468C
:1095DC0013F0040F48F2022318BF1846DCE70320EF
:1095EC00DAE700BFA086010037B5344B01930D4676
:1095FC004FF48271FFF7BAFE4FF49271FFF7B6FE8B
:10960C004FF48E71FFF7B2FE4FF48471FFF7AEFE8C
:10961C0000236B6385F82F30AB6A012B044617D1FE
:10962C002B6A5B0614D40223C4F800320123236294
:10963C0095F82D20022A18BF23602B6893B140F2B5
:10964C008623AB60AB68C4F80433002003B030BD94
:10965C000123E9E729462046FFF7D3FE28B1019BF9
:10966C00013B0193019B002BF4DC95F82F0050B9C2
:10967C00019B002BEADC0023C4F800350523C4F859
:10968C0000350320E2E7D4F8C434C4F8C43493B1F1
:10969C0013F0010F14BF4FF40240032048F20122D3
:1096AC0013F0020F18BF104613F0040F48F20223F8
:1096BC0018BF1846DCE70320DAE700BFA0860100DC
:1096CC00F0B52F4C236887B023B92E4940F2BA204D
:1096DC0001F0BCFE2A492C48FFF793FE002847D125
:1096EC0094F82F70D4F820C0FFB9237B9A1E012A5E
:1096FC001BD8616AA269914217D1E2696262CCF30C
:10970C00401C62691E492048A262032B84F82CC0BD
:10971C0084F82D7004D107B0BDE8F040FFF7FEBE11
:10972C0007B0BDE8F040FFF75FBF184E0FCE01AD9C
:10973C000FC533682B60EFB1134AD2F8C434C2F8AA
:10974C00C434990718D45A0718D403F00103C3F191
:10975C000403DBB28DF800301CF0040F4FF0000353
:10976C0084F8303000D01FB1D4E9003168469847F6
:10977C0007B0F0BD3B46EDE70123EBE70223E9E739
:10978C009C3E002030FE020000300040A83E00202D
:10979C002DE9F04F85B08046924601938B4619B95E
:1097AC004A49AA2001F052FEDBE900239A4203D178
:1097BC004649AB2001F04AFE98F80470444E3C2216
:1097CC0002FB07F906EB090595F82E30002B79D131
:1097DC004049D8F80000FFF78DFD0446002873D1EE
:1097EC00019B6B609BF80D30A86085F82D0085F807
:1097FC00310085F8300085F8383046F809A0DBF8E0
:10980C000030039303A8FFF7B9FD039B03F5E07346
:10981C0040F20C6540F82350DBF80430039303A8A6
:10982C00FFF7ACFD039B56F8092003F5E07340F8F5
:10983C002350DBE90010D8F80030C3F80815DBF82A
:10984C000810C3F80C05C3F824158AB39BF80C5008
:10985C004FEA133A43F30739AB1E012B06D96B1FA2
:10986C00022B03D91C496B2001F0F0FDB9F1000F5C
:10987C00AEBF09F16043194B0AF00F0A4FEA4515C8
:10988C00A8BF03F56143EDB2B4BF03F80A5083F8E7
:10989C000053D8F80030190B43F30733002B07DBC8
:1098AC00012201F01F018A405B090D4941F8232078
:1098BC003C2303FB0766012386F82E30204605B0B7
:1098CC00BDE8F08F0824F9E71124F7E730FE020019
:1098DC009C3E0020CD960200ACFE020014ED00E090
:1098EC0000E100E070B50D4C06793C2303FB064308
:1098FC00054693F82E30012B04D009494FF485709E
:10990C0001F0A4FD2B680522C3F800253C2303FBC2
:10991C000644022384F82E3070BD00BF9C3E00200C
:10992C0030FE02002DE9F0470579404F4FF03C091D
:10993C0009FB05F9064657F809300C469046A3B9C1
:10994C000B78022B08D02378032B0ED1384940F228
:10995C00872001F07BFD08E0354940F2862001F0BC
:10996C0075FD57F80930002BEDD03C2303FB057334
:10997C00D6F8009093F82D30012B04D12378012BCD
:10998C0006D1082011E0022B02D12378012BF8D14B
:10999C003C26284BC9F8083306FB057696F8303080
:1099AC002BB1B368C9F804331120BDE8F08788F0F7
:1099BC000403C3F3800386F83030C6F82080A64633
:1099CC00BEE80F0006F10C0CACE80F00DEF800301E
:1099DC00CCF800306368B362E36873626378C9F8EB
:1099EC0088352378C5EB051A012B07EB8A0A17D0AB
:1099FC009BB9C8F340183C2303FB0573514683F80D
:109A0C002C804846FFF78AFD3C235D437A197B592D
:109A1C00002BCAD182F83030C7E74FF00108EAE7D3
:109A2C0051464846FFF7E0FDEEE700BF9C3E0020A4
:109A3C0030FE02008642040010B586B00024CDE949
:109A4C0004249DF820208DF80510520101A9CDE9C0
:109A5C0002348DF80440FFF765FF06B010BD10B559
:109A6C0086B0012402930023CDE903328DF8051052
:109A7C001A4601A98DF804400593FFF753FF06B071
:109A8C0010BD0023435082B043580193019B02B098
:109A9C0070470A4610B54FF48E71FFF7F2FF136A48
:109AAC009168C95C136A01331362C0F81C1510BDB0
:109ABC000268530910B5044618D0012B40F2FF334D
:109ACC0018BF002302F01F02D340DB0704D409495E
:109ADC004FF4F67001F0BAFC23681F2B83BF03F020
:109AEC001F03054823604FF0A04010BD4FF0FF331B
:109AFC00E8E700BF01E802000003005007B5019041
:109B0C0001A8FFF7D5FF019B03F5E073022240F893
:109B1C00232003B05DF804FB8B690A4610B54FF4A3
:109B2C00847123B9FFF7ADFFD0F8183510BDFFF7DE
:109B3C00A8FF536AD168D0F81805C854536A01338A
:109B4C005362F3E71FB501238DF80030044BCDE9C8
:109B5C000110D3E900126846904705B05DF804FB8C
:109B6C00D83E002030B54D4DD5F804339A0585B05C
:109B7C0051D5D5F82431002B4DD04FF49271284695
:109B8C00FFF77FFF4FF40173C5F80833444B93F88C
:109B9C0029200AB901226A60404902228DF800206E
:109BAC00D1F88024C1F8802403929A690292DA6871
:109BBC0001920022C3E906226846D3E900129047BD
:109BCC003648D0F81C315BB1354A5169136A994259
:109BDC004DD992F82830002B49D11146FFF759FF87
:109BEC002E48D0F84431002B56D04FF4A271FFF719
:109BFC0048FF2B4B93F829200AB1012202609A6985
:109C0C00002A49D0586AD96800229A6105B0BDE88B
:109C1C003040FFF797BFD5F804335B07D0D5D5F8A4
:109C2C000831002BCCD01E4C1C482146FFF774FF8A
:109C3C00636AA2699A42C3D1E369E1684BB1A3613B
:109C4C002369E3600023606AE3616362FFF77AFFD4
:109C5C00B6E794F829300BB901236B600F4B4FF426
:109C6C000172C3F808230023606AA361EEE70B4876
:109C7C004FF48E71FFF705FF5369002BB0D051697B
:109C8C000291002391688DF8003001915361684670
:109C9C00D2E900139847A3E705B030BD002000407F
:109CAC00D83E00202DE9F347064691460C4619B9DB
:109CBC006A49AA2001F0CAFB96F80480684D2C234F
:109CCC0003FB085393F82A30002B40F0C2806549FF
:109CDC003068FFF70FFB0746002840F0BC80236874
:109CEC005A1C13D001A80193FFF7E2FE019A01233D
:109CFC009340C0F808352368019301A8FFF7D8FEFC
:109D0C00019B03F5E073032240F823206368581C81
:109D1C0009D001A80193FFF7CBFE019B03F5E0737B
:109D2C00002240F823203368A269C3F82425217D42
:109D3C00627D0A43C3F86C25D4E900020129C3F8FB
:109D4C001425C3F80C052AD1A368591C09D001A805
:109D5C000193FFF7ADFE019B03F5E073002240F881
:109D6C002320E3685A1C13D001A80193FFF7A0FE2F
:109D7C00019A01239340C0F80835E368019301A8C8
:109D8C00FFF796FE019B03F5E073032240F82320B6
:109D9C00D4E902213368C3F80815C3F810252C2325
:109DAC0003FB08F3EA183068C2F804902269EA5001
:109DBC00B9F1000F39D04FF48E71247FFFF761FE9B
:109DCC004FF4A271FFF75DFE274BC0F80433A31EBE
:109DDC00012B4FEA103A40F3073906D9631F022BC7
:109DEC0003D922496B2001F031FBB9F1000FB6BF4A
:109DFC001F4B09F160400AF00F0A4FEA4414E4B219
:109E0C00AABF00F5614003F80A4080F800433368AC
:109E1C00190B43F30733002B07DB012201F01F0161
:109E2C008A405B09134941F8232033680422C3F8A4
:109E3C0000252C2303FB08530022C3E9062283F8D8
:109E4C0029205A61012283F82A20384602B0BDE845
:109E5C00F0870827F9E71127F7E700BFDFFE0200BC
:109E6C00D83E0020719B020080000200ACFE020074
:109E7C0014ED00E000E100E02DE9F84303680679F9
:109E8C00294D0022C3F800252C2202FB0652044661
:109E9C005268A2B1254AC3F80823190B43F30733C0
:109EAC00002B0CDB01F01F015B0901228A402033DF
:109EBC001F4941F82320BFF34F8FBFF36F8F2368E7
:109ECC00D3F80C05D3F81495D3F80875D3F810858E
:109EDC004FF0FF329042C3F81425C3F80C25C3F899
:109EEC000825C3F8102501D0FFF708FEB9F1FF3F94
:109EFC0002D04846FFF702FEB8F1FF3F02D04046C1
:109F0C00FFF7FCFD7B1C02D03846FFF7F7FD2068FD
:109F1C00FFF718FA2C2303FB0655002385F82A308B
:109F2C006B60BDE8F88300BFD83E002084020200BD
:109F3C0000E100E00279044B2C2101FB023358694B
:109F4C00003818BF01207047D83E00202DE9F84F8B
:109F5C00324E90F804802C2303FB0863074693F8D9
:109F6C002A30012B8946934604D02D494FF48C702E
:109F7C0001F06CFAB9F1000F04D1294940F2191023
:109F8C0001F064FABBF1000F04D125494FF48D7038
:109F9C0001F05CFA3846FFF7CDFF0446002838D1B3
:109FAC002C2508FB056A4FF48E71CAF814B0CAF858
:109FBC000890CAF820008AF828003868FFF761FD7D
:109FCC00012383605146FFF764FDDAF804305546EF
:109FDC000BBBDAF814402B6A9C4210D8D0F81C3119
:109FEC00002BFBD00123C36000202C2303FB08664D
:109FFC0000237361BDE8F88F95F828303BB9D0F891
:10A00C001C31002BF8D05146FFF743FDE3E70F203E
:10A01C00EBE71120EEE72046ECE700BFD83E00202E
:10A02C00DFFE02000023435082B043580193019B92
:10A03C0002B070470268530910B5044618D0012BC2
:10A04C0040F2FF3318BF002302F01F02D340DB079E
:10A05C0004D409494FF4F67001F0F8F923681F2B6A
:10A06C0083BF03F01F03054823604FF0A04010BDD1
:10A07C004FF0FF33E8E700BF01E802000003005097
:10A08C0007B5019001A8FFF7D5FF019B03F5E0731D
:10A09C00022240F8232003B05DF804FB1FB5012316
:10A0AC008DF80030044BCDE90110D3E9001268465D
:10A0BC00904705B05DF804FB043F00207FB5434A90
:10A0CC00D2F82461002E60D010464FF49271FFF745
:10A0DC00A9FF02238DF80030D2F88034C2F8803406
:10A0EC000393D2F83C350293394BDA680192002283
:10A0FC00C3E906226846D3E9001290473348D0F8EA
:10A10C00443173B14FF4A271FFF78CFF304B9A6955
:10A11C003AB10022C3E90622D968D0F83C05FFF712
:10A12C00BDFF2A48D0F82031ABB14FF49071FFF746
:10A13C0079FF0123C360264B5A6962B1D0F84C15E4
:10A14C000291002299688DF8002001915A616846AD
:10A15C00D3E9001290471D48D0F858319BB14FF409
:10A16C00AC71FFF75FFF1A4B5A6962B1D0F84C150E
:10A17C000291002299688DF8002001915A6168467D
:10A18C00D3E90012904704B070BDD2F81031002B07
:10A19C00B4D04FF488711046FFF744FF0C4BD2F843
:10A1AC003C0599698842A9D1DC69D96864B1D2F8B7
:10A1BC00005225F02005C2F800521A699C61DA6041
:10A1CC00DE61FFF76BFF99E79C61FAE70020004026
:10A1DC00043F00202DE9F347064691460C4619B979
:10A1EC006F49CF2001F032F996F804806D4D24238D
:10A1FC0003FB085393F82030002B40F0CC806A49C5
:10A20C003068FFF777F80746002840F0C6802368CF
:10A21C005A1C13D001A80193FFF70CFF019A0123DC
:10A22C009340C0F808352368019301A8FFF702FF9B
:10A23C00019B03F5E073032240F823206368581C4C
:10A24C0009D001A80193FFF7F5FE019B03F5E0731C
:10A25C00002240F823203368A269C3F82425217D0D
:10A26C00627D0A43C3F86C25D4E900200129C3F8A8
:10A27C000C25C3F814052AD1A368591C09D001A8D0
:10A28C000193FFF7D7FE019B03F5E073002240F822
:10A29C002320E3685A1C13D001A80193FFF7CAFED0
:10A2AC00019A01239340C0F80835E368019301A893
:10A2BC00FFF7C0FE019B03F5E073032240F8232057
:10A2CC00D4E902213368C3F80815C3F810252423F8
:10A2DC0003FB08F3EA183068C2F804902269EA50CC
:10A2EC00B9F1000F45D04FF48871247FFFF79AFE27
:10A2FC004FF49071FFF796FE4FF49271FFF792FEB8
:10A30C004FF4A271FFF78EFE4FF4AC71FFF78AFE8B
:10A31C00264BC0F80433A31E012B4FEA103A40F32E
:10A32C00073906D9631F022B03D921496B2001F091
:10A33C008DF8B9F1000FB6BF1E4B09F160400AF061
:10A34C000F0A4FEA4414E4B2AABF00F5614003F8C7
:10A35C000A4080F800433368190B43F30733002B92
:10A36C0007DB012201F01F018A405B09124941F809
:10A37C00232033680822C3F80025242303FB085547
:10A38C000023C5E906336B61012385F8203038467C
:10A39C0002B0BDE8F0870827F9E71127F7E700BFFF
:10A3AC0061FF0200043F0020C9A00200100342001C
:10A3BC00ACFE020014ED00E000E100E02DE9F843F2
:10A3CC003D4D06790468242303FB065302465B6863
:10A3DC00ABB13A4BC4F8083344F30733002B4FEAC4
:10A3EC0014300CDB00F01F005B090121814020338D
:10A3FC00334840F82310BFF34F8FBFF36F8FD4F85F
:10A40C00003223F02003C4F80032242303FB06534C
:10A41C009B6933B14FF4A2712046FFF703FE012371
:10A42C0063604FF4AC712046FFF7FCFD0123E36041
:10A43C00242303FB0653D4F858110029FBD0996947
:10A44C0019B1D4F844110029F5D00023C4F8003513
:10A45C001368D3F80C05D3F81495D3F80875D3F812
:10A46C0010854FF0FF329042C3F80C25C3F8142529
:10A47C00C3F80825C3F8102501D0FFF701FEB9F188
:10A48C00FF3F02D04846FFF7FBFDB8F1FF3F02D07B
:10A49C004046FFF7F5FD7B1C02D03846FFF7F0FD78
:10A4AC002046FEF74FFF242303FB0655002385F8B7
:10A4BC0020306B60BDE8F883043F0020100342009D
:10A4CC0000E100E00279044B242101FB02335869BE
:10A4DC00003818BF01207047043F00202DE9F047D9
:10A4EC00374F90F80490242303FB0973064693F826
:10A4FC002030012B8846924604D0324940F253104A
:10A50C0000F0A4FFB8F1000F04D12E494FF4AA704B
:10A51C0000F09CFFBAF1000F04D12A4940F255100B
:10A52C0000F094FF337913B9BAF5803F04D3254971
:10A53C004FF4AB7000F08AFF08F06043B3F1005F9A
:10A54C0038D13046FFF7BEFF0446002834D124250D
:10A55C00326805FB09754FF490711046C5F814A0CC
:10A56C00C5F80880FFF75EFD4FF4AC71FFF75AFD9C
:10A57C006B69A968C2F84415C2F848350123936089
:10A58C006B68DBB9D2F82031D2F858011BB900281E
:10A59C00F8D00F2007E00028FBD10123D360D2F8BC
:10A5AC005831002BFBD0242303FB097700237B615C
:10A5BC00BDE8F0871020FBE71120F9E72046F7E70C
:10A5CC00043F002061FF0200C30710B507D4F0233D
:10A5DC00054A4008145C23401943115410BD09016D
:10A5EC00C9B20F23F4E700BF383F0020034B0448E7
:10A5FC0019680022490800F0FFBA00BF2C3F002068
:10A60C00D027002038B50B4B1C780B4B1968002356
:10A61C009C4206DC0949882000F018FF00221046F5
:10A62C0038BD11F83350854201EBC302F7D001332A
:10A63C00EEE700BF283F0020583F0020E5FF020056
:10A64C0013B504460191FFF7DDFF38B143682BB118
:10A65C000199204602B0BDE81040184702B010BD69
:10A66C0010B5C0B2FFF7CEFF04460078FEF758FDD8
:10A67C0063785A1E53425341834208D1044AD2E9AB
:10A68C000032134303D1BDE81040FFF7AFBF10BD3C
:10A69C00303F002037B54308374AD35CC2074CBF64
:10A6AC001B0903F00F0304460D46042B25D8DFE8E5
:10A6BC0003F00326303D4100F9B10121FFF784FF7F
:10A6CC0000230DF107008DF8073000F007FC012284
:10A6DC00A4F12003C4F12000284922FA00F002FA68
:10A6EC0003F30343A240D1E9004014431843C1E9EA
:10A6FC0000409DF8070000F01FFC03B030BD00398E
:10A70C0018BF01214900204603B0BDE83040FFF7D7
:10A71C005BBF49B10321FFF757FF0121204603B06E
:10A72C00BDE83040FFF78CBF0121ECE70029E4D1F4
:10A73C000421E8E709B10321E5E7FFF745FF2946C6
:10A74C002046FFF77DFF0DF107008DF8075000F054
:10A75C00C5FB0122A4F12003C4F12000074922FA11
:10A76C0000F002FA03F30343A240D1E9004024EACB
:10A77C00020420EA0300BAE7383F0020303F0020F3
:10A78C002DE9F041124E134F00243378A34208DC1C
:10A79C00114AD2E90032134318D0BDE8F041FFF75B
:10A7AC0025BF3D6805EBC40815F83400FEF7B8FC6E
:10A7BC0098F801305A1E53425341181A41424141F4
:10A7CC0015F83400FFF766FF0134DEE7BDE8F081D1
:10A7DC00283F0020583F0020303F0020092AF7B5C1
:10A7EC0005460C4616463ED9FEF79EFBE8B11F4BBC
:10A7FC001F481D601F4B204F1C70204B0021202236
:10A80C001E6003F0FBFA1E4B00200021C3E900017F
:10A81C00013CE4B20326FF2C0DD11A4A1A48002140
:10A82C0003B0BDE8F04000F0C5B9FEF743FB0028CB
:10A83C00DDD003B0F0BD9DF8063015F834008DF86E
:10A84C00046005EBC40223F007038DF8063001A960
:10A85C0093788DF805303A46FEF770FB013CE4B274
:10A86C000028D8D0E5E70720E3E700BF583F0020D9
:10A87C00383F0020283F00206DA602002C3F00200E
:10A88C00303F00208DA702007400030070B50B4D03
:10A89C002B6823B90A4940F2351000F0D7FD094E58
:10A8AC0000243378A34201D8002070BD2B6801210D
:10A8BC0013F83400FEF7D4FB0134F2E7583F0020C4
:10A8CC00E5FF0200283F002082B001238DF80730FD
:10A8DC009DF80730114B1860596044F20101884211
:10A8EC009A6012D044F20201884206D1DA60DA682A
:10A8FC0012689A61DA685268DA6172B69DF80730AC
:10A90C00002BFBD162B602B070471A611A699268CB
:10A91C005A611A6912689A611A69ECE75C3F002067
:10A92C0000B583B002900091019244F2010071468F
:10A93C006A4600F003F803B000BD0000F0B506460F
:10A94C0087B00F46154672B601F090FE01F07EFC02
:10A95C000028FBD1244B254CE41AE40844F20103F3
:10A96C0024049E4244F001042BD00BD8012E14D0A9
:10A97C0041F201039E4222D01D493A46204601F085
:10A98C00BFFD0EE044F202039E42F5D1D5E9003240
:10A99C001849204601F0BDFD03E01749204601F09F
:10A9AC00ABFD164BD3F8F030DB0700D500BE2A46C2
:10A9BC003946304607B0BDE8F040FFF785BF104977
:10A9CC00ECE7AA680592104601F04AFA296802974A
:10A9DC0001916968009103460A49059A204601F0E5
:10A9EC00BCFD0949DAE700BF94E60200C4E60200A8
:10A9FC000B010300B70003007800030000ED00E03A
:10AA0C0095000300D1000300F700030010B5D0E956
:10AA1C000242D1E90203A04293412CBF0120002045
:10AA2C0010BD000008B50A4800F041FC094AD2E903
:10AA3C000031C018084BD3E9002341F100019042CA
:10AA4C0071EB030303D210F1807041F1000108BDDA
:10AA5C00F0270020803F0020F83F002037B5054646
:10AA6C000C460A4801A900F010FD60B10570446065
:10AA7C0001A9064800F033FD18B1054800F01CFC94
:10AA8C00002003B030BD0420FBE700BFE43F0020F2
:10AA9C00F0270020436973B504461BB92949A5204A
:10AAAC0000F0D4FC284B1E781EB90026304602B0AC
:10AABC0070BDFFF7B7FFD4E902239042994139D317
:10AACC0000230DF107008DF8073000F007FA236919
:10AADC002BB94FF0FF324FF0FF33C4E902239DF83E
:10AAEC00070000F029FAD4E90530984700250DF14C
:10AAFC0007008DF8075000F0F1F92369C3B1D4E9D0
:10AB0C000212B2F1FF3F08BFB1F1FF3F05D05B1855
:10AB1C0042F10002C4E9023235469DF8070000F00C
:10AB2C000BFA002DC1D00948214601F027F9BDE7E9
:10AB3C001D46F2E7B3F1FF3F08BFB2F1FF3FB4D0BF
:10AB4C00F1E700BF23010300883F0020B40103009C
:10AB5C0013B5114B1149186801900823104858225D
:10AB6C0000F080FC044698B90E4A0F4801A900F089
:10AB7C003BFA044660B90C48012100F07FFB01232D
:10AB8C000A4A0948194600F0D1FA094B01221A70F9
:10AB9C00204602B010BD00BFAE0103008C3F002068
:10ABAC00E43F0020DDAC0200F0270020FFFF7F0017
:10ABBC00883F002070B50C461546064620B90D4955
:10ABCC0040F25A2000F042FC35B940F25B200949B2
:10ABDC0000F03CFC072070BD621E336854424FF0FD
:10ABEC00FF304FF0FF315441C3E902015D611C613C
:10ABFC000020F0E723010300F7B50E461746044684
:10AC0C0020B9174940F26B2000F020FC00250DF113
:10AC1C0007008DF8075000F061F9D4E90223B3F175
:10AC2C00FF3F08BFB2F1FF3F07D1FFF7FBFE301823
:10AC3C0041F10001C4E9020101259DF8070000F073
:10AC4C007BF955B12369A76103B126612146002028
:10AC5C0003B0BDE8F040FFF701BF284603B0F0BDDC
:10AC6C002301030037B5044620B9154940F293205F
:10AC7C0000F0ECFB00250DF107008DF8075000F0FB
:10AC8C002DF9D4E90223B3F1FF3F08BFB2F1FF3F26
:10AC9C001FBF4FF0FF324FF0FF33C4E902230125F1
:10ACAC009DF8070000F048F935B12146012003B0AA
:10ACBC00BDE83040FFF7D2BE284603B030BD00BF20
:10ACCC0023010300014800F0F2BA00BFF027002076
:10ACDC002DE9F743044600F0D5FA40B16F4AD2E9AA
:10ACEC00003113F1807341F10001C2E90031002100
:10ACFC00204600F0D1FAD0B1694E3368BBB1204682
:10AD0C0000F0D5FA00210546204600F0CAFA281AB0
:10AD1C0020F07F40B0F5960F04D3624940F2411009
:10AD2C0000F094FB3068FFF7B5FE0023336001217F
:10AD3C00204600F0B1FA20B1FFF774FE5A4BC3E97C
:10AD4C0000015A48564D01A900F0D9FB4FF0FF36CF
:10AD5C004FF0FF37A0B9DFF85881514E404601F053
:10AD6C0039F8002800F08B80D0E90223B3F1FF3FC3
:10AD7C0008BFB2F1FF3F33D1404601F01BF8EDE7BD
:10AD8C000378012B21D0022B09D1DFF82481404616
:10AD9C0001F010F800287CD0C0E90267F7E75BB936
:10ADAC004168D1E90223B3F1FF3F08BFB2F1FF3F85
:10ADBC0002D03F4800F0E2FF01A93C4800F0CAFB7A
:10ADCC0001A93A4800F09BFBC4E741682B68994203
:10ADDC0002D100232B60EFE7354801F007F8EBE7D1
:10ADEC00316891B13168D1E9020182428B412FD295
:10ADFC003368D3E90223B3F1FF3F08BFB2F1FF3F41
:10AE0C0003D03168404600F0B9FF404600F0D2FF55
:10AE1C00D0E902590746FFF705FE281A69EB010134
:10AE2C00012871F1000918DBB0F5350F13D3FFF7CA
:10AE3C0049FF204A024420484FF49603002100F0B9
:10AE4C009FF9A0B9336813B9204600F053F9376065
:10AE5C0003B0BDE8F0832A46EDE71748002100F067
:10AE6C0015FA3846FFF716FE0023336076E70D28F7
:10AE7C00F7D00C494FF4867000F0E8FAF4E7084B71
:10AE8C001B68002BE4D1204603B0BDE8F04300F072
:10AE9C003FB90A4B01221A708EE700BF803F002099
:10AEAC000040002023010300F83F0020E43F002075
:10AEBC00B4010300FFFFB400F0270020883F0020FE
:10AECC00EFF30583C3F308032BB9EFF31480C043EE
:10AEDC0000F00100704701207047000070B5044677
:10AEEC00FFF7EEFF012803D00F49432000F0AEFA24
:10AEFC00EFF3108672B60D4A9068012380B9936007
:10AF0C000B4B0C4DD3F8801029401160C3F88050C6
:10AF1C00D3F8841051604FF0FF32C3F884200346FD
:10AF2C00237006B962B670BDC00103000440002056
:10AF3C0000E100E0FC06FFBD10B50446FFF7C0FFC2
:10AF4C00012803D00949512000F080FA084B9A6877
:10AF5C005AB154B9EFF3108172B6064A18681060F2
:10AF6C00586850609C6001B962B610BDC001030006
:10AF7C000440002000E100E038B50C46054618B945
:10AF8C000449B32000F062FA2B68C3F84843C3F8B5
:10AF9C00084338BD4602030070B50C4616460546FC
:10AFAC0018B90549A92000F051FA2B68C3F844439D
:10AFBC000EB1C3F8044370BD4602030037B50C460E
:10AFCC00054618B90749BA2000F040FA2B68185901
:10AFDC0028B100221A511B590193019B012003B087
:10AFEC0030BD00BF460203002DE9F8430F4615465D
:10AFFC00044618B93449552000F028FA1FB93249D3
:10B00C00562000F023FA1DB92F49572000F01EFAE4
:10B01C0063792E4ADFF8D88042F823502C4E2D4A03
:10B02C0008EBC303B61A1B79F60836043BB146F09D
:10B03C000200294901F060FA0820BDE8F8833D8838
:10B04C00D4F80090B5F5805F04D324494FF4BE705A
:10B05C0000F0FCF9C9F80855BF7894F90450BB1EF0
:10B06C00012B06D97B1F022B03D91D496B2000F045
:10B07C00EDF9002DB6BF1B4B05F1604505F00F0532
:10B08C004FEA4717FFB2AABF05F561455F5585F832
:10B09C00007394F90430002B08DB0122590903F0EA
:10B0AC001F0302FA03F3104A42F82130637908EBCC
:10B0BC00C3020121117146F003000C4948F83340DA
:10B0CC0001F01AFA0020B8E74602030018400020ED
:10B0DC00D4E6020094E60200C3020300E50203007A
:10B0EC00ACFE020014ED00E000E100E012030300EE
:10B0FC001040002010B5044618B90449872000F010
:10B10C00A5F9236801221A6010BD00BF4602030096
:10B11C0010B5044618B904498D2000F097F923683E
:10B12C0001225A6010BD00BF46020300F7B50C4661
:10B13C0015461E46074618B91049962000F086F9A8
:10B14C0025F07F4204F15005AD003868ADB24FF4E4
:10B15C008031A1400023C0F80813C0F848134351B4
:10B16C0004F5A87443590193019B40F82420C0F8BE
:10B17C0044130EB1C0F8041303B0F0BD4602030033
:10B18C002DE9F74F0D4614469846074618B939492C
:10B19C00CD2000F05BF94FF4803909FA05F94946E6
:10B1AC003846FFF7E9FE3A6805F1500602EB8500D8
:10B1BC00B600B6B2D2F80415D0F84035C0F8401538
:10B1CC004FF0000B42F806B05B1A9259009223F034
:10B1DC007F43012B009A24F07F444FEA850A0BD160
:10B1EC00254B4FF4806043F0010398473B6843F8CC
:10B1FC0006B09B590193019B3B68D3F80465C3F8D7
:10B20C004493A21B22F07F42012A1AD105F5A8759E
:10B21C00013443F82540184B4FF4806043F0010390
:10B22C0098473B68D3F804359E4208D13846012232
:10B23C004946FFF7B1FE002003B0BDE8F08F0D20AA
:10B24C00FAE703EB0A01621EC1F84045D3F8040586
:10B25C00C8F1FF18121A22F07F4208F57F4890457A
:10B26C00EDD3002AE2D10134C1F84045D3F80435BE
:10B27C009842DAE746020300300303000A46022133
:10B28C00FFF78ABE4FF48271FFF798BE4FF48033FC
:10B29C0003FA01F1FFF770BE5031890089B2FFF754
:10B2AC008DBE036801F5A87153F82100704703683F
:10B2BC00D3F804057047000090F90430002B09DB2B
:10B2CC005A09012103F01F03994002F14003024A7D
:10B2DC0042F82310704700BF00E100E0024B034A24
:10B2EC001B681068184700BF184000201040002051
:10B2FC001EF0040F1CBFEFF309800AE0EFF3088087
:10B30C000549064A884201D8904202D88D464FF032
:10B31C000000034B184700000000012000E0002053
:10B32C0055B30200BFF34F8F0549064BCA6802F4B0
:10B33C00E0621343CB60BFF34F8F00BFFDE700BF4C
:10B34C0000ED00E00400FA052DE9F347054601F095
:10B35C008DF900F07BFF0028FBD1304B304C9F6AFD
:10B36C00304BE41AE408240444F00104002D4FD0BF
:10B37C00AA692D49204601F0C3F8EB680193AB682C
:10B38C002A4900932046D5E9002301F0D8F8EB694F
:10B39C0000932749D5E90423204601F0C4F81F4B3C
:10B3AC00DB6A990703D52349204601F0A5F8DFF89D
:10B3BC009490DFF894A000264FF0010808FA06F3E9
:10B3CC003B4206D059F826201AB15146204601F0CE
:10B3DC0097F801361A2EF1D13A0605D50F4B1649BE
:10B3EC005A6B204601F08CF817F4004F0B4E04D02A
:10B3FC00B26B1249204601F083F8D6F8F030DB0727
:10B40C0000D500BE2846FFF78DFF02B0BDE8F087DF
:10B41C000B49204601F070F8C1E700BF00ED00E0D9
:10B42C00DCE6020094E60200360303004B03030043
:10B43C0080030300DB0303002A0403004A04030017
:10B44C00A8030300240903001F04030007B5CDE97A
:10B45C0000016A46002144F20200FFF76FFA03B0C4
:10B46C005DF804FB10B561B1B2FBF3F403FB1424DB
:10B47C00A4B244B9C0E9001484608281C38120461F
:10B48C0010BD0E20FCE70920FAE737B550E8013F64
:10B49C009DB2C48925448489A54228BF2D1B0489EB
:10B4AC00A54202BFBFF32F8F002207E0C5EA0305B8
:10B4BC0040E80154002CE9D14FF001028DF8032033
:10B4CC000193019A0A609DF8031001F0FF0321B16A
:10B4DC00006810FA82F003B030BD1846FBE70A880A
:10B4EC004B889A4209D150E8012FC2EA024240E847
:10B4FC000123002BF7D1012070470020704737B58E
:10B50C0050E8023F1FFAA3F5C488A54202BFBFF35F
:10B51C002F8F00220DE0C48925448489A54228BFC1
:10B52C002D1BC3EA054540E80254002CE8D14FF02E
:10B53C0001028DF803200193019A0A609DF8031013
:10B54C0001F0FF0321B1006800EB124003B030BDE5
:10B55C001846FBE70A884B889A4209D150E8022F1B
:10B56C00C2EA224240E80223002BF7D101207047A7
:10B57C000020704710B5034653E8000F0A4643E815
:10B58C00002494F0000FF7D110BD10B5034653E81A
:10B59C00002F42EA010043E8000494F0000FF6D1BA
:10B5AC0010BD10B5034653E8000F00EA010243E852
:10B5BC00002494F0000FF6D110BD10B5034653E8EB
:10B5CC00002F02EB010043E8000494F0000FF6D1C9
:10B5DC0010BD10B5034653E8002FA2EB010043E861
:10B5EC00000494F0000FF6D110BD0121FFF7CDBF80
:10B5FC000021FFF7D6BF000010B50446002834D058
:10B60C0003681BB91A49FF20FFF720FF636823B9B1
:10B61C0017494FF48070FFF719FFA36823B9144939
:10B62C0040F20110FFF712FFE36823B910494FF401
:10B63C008170FFF70BFF238A23B90D4940F20310E9
:10B64C00FFF704FFD4E9012321689B1ADBB20A60DF
:10B65C00013BDBB2FF2B226802D10020107110BD20
:10B66C001168481C10600B70F2E70E20F7E700BF62
:10B67C008C09030037B5044620B913494FF4927076
:10B68C00FFF7E4FE00250DF107008DF80750FFF7DA
:10B69C0025FC2268616813688B420ED9591E116013
:10B6AC0013F8013C208AE56800FB0355A3685B1A7C
:10B6BC001179DBB2994238BF13719DF80700FFF77F
:10B6CC003BFC284603B030BD8C09030037B50C4653
:10B6DC00054620B9104940F24710FFF7B7FE24B9D0
:10B6EC000D494FF4A470FFF7B1FE00230DF10700D4
:10B6FC008DF80730FFF7F2FB2A681368591C1160AC
:10B70C00EA68A41A2A8AB4FBF2F41C709DF80700AC
:10B71C00FFF712FC03B030BD8C09030010B50446D2
:10B72C0018B906493120FFF791FEA2682AB1636966
:10B73C002168206998470023A36010BD0D0A0300FF
:10B74C000EB433B5059D044618B911494220FFF7D4
:10B75C007DFE63691BB90E494320FFF777FE236812
:10B76C001BB90B494420FFF771FE63681BB90849EC
:10B77C004520FFF76BFE35B106AB01AA29462046E2
:10B78C00019300F079F802B0BDE8304003B0704787
:10B79C000D0A03000A2938B504460D4602D10D21C5
:10B7AC00FFF7F8FFA3682268591CA160D554D4E9AF
:10B7BC0001329A4204D32046BDE83840FFF7AEBFB1
:10B7CC0038BD00002DE9F84F9846DDE90A431546CF
:10B7DC0082460F460A464FF00109AA420FD2C145D4
:10B7EC0038BFC14613F0010B01D16CB900240126FE
:10B7FC00B8F1010F1BD908F1FF386E43F8E709F1D6
:10B80C000109B2FBF5F2E8E79B070ED5B8F1000F82
:10B81C000CBF30262026A145E9D2013C31465046CA
:10B82C00FFF7B8FF002CF6D1E0E72026F3E7B7FBD3
:10B83C00F6F39D42E1D9DFF83C80B7FBF6F35046B6
:10B84C0018F8031006FB1377FFF7A4FF3346AB423F
:10B85C00B6FBF5F6F1D2BBF1000F02D00CB1A1454D
:10B86C0001D3BDE8F88F20215046013CFFF792FF31
:10B87C00F4E700BF020B03002DE9F74F884617468B
:10B88C00054620B9AF4940F25220FFF7DFFD6B6946
:10B89C0023B9AC494FF41570FFF7D8FD2B6823B9C9
:10B8AC00A84940F25520FFF7D1FD6B6823B9A54993
:10B8BC0040F25620FFF7CAFDB8F1000F00F03E81B0
:10B8CC0018F8011B49B92B7B002B00F03781284657
:10B8DC0003B0BDE8F04FFFF721BF252940F0B7803A
:10B8EC00002698F800302D2B424608F1010823D091
:10B8FC00302B24D02B2B25D000242A2B02F1010134
:10B90C0023D13B681A1D1B683A601C440A46137805
:10B91C002E2B26D101324FF0000A104610F8011BD5
:10B92C00A1F1300CBCF1090F1DD80A2303FB0A113D
:10B93C00A1F1300A0246F0E746F00106D1E746F0E5
:10B94C000206CEE746F00406CBE711F8013CA3F162
:10B95C0030000928DBD80A2202FB0434303C0A46AA
:10B96C00CBE74FF0000A12F8011B01F0FB0068282E
:10B97C009046F8D0782909D86F290CD8632962D061
:10B98C0022D8252963D0582900F0888098F80030F7
:10B99C00002B95D197E770390829F7D801A252F8F6
:10B9AC0021F000BF23BB020099B9020099B9020033
:10B9BC00B9BA020099B9020097BA020099B902000B
:10B9CC0099B90200A9BA0200642901D06929DDD114
:10B9DC003A68D2F80090111D89EAE9723960A2EB3D
:10B9EC00E9724FF0010B092A35DCD34538BFD34639
:10B9FC002CB1B9F1000F01DB720700D5013CB30784
:10BA0C0002D5BAF1000F03D0F00701D44CBB0024CF
:10BA1C00B9F1000F2DDAC9F100092D212846FFF7E5
:10BA2C00B9FE06F00302022A04D1BAF1000F01D1CB
:10BA3C001CBB0024CDE9004653460A224946284641
:10BA4C00FFF7C0FEA2E73B681A1D19783A6028463A
:10BA5C00FFF7A0FE9AE70A230BF1010BB2FBF3F2FE
:10BA6C00C1E7A345D4D220212846013CFFF792FE22
:10BA7C00CCE77107D5D52B21D0E7A345DAD23021FD
:10BA8C002846013CFFF786FED2E73968CDE900462F
:10BA9C000A1D3A6053460A220968D0E739680A1D24
:10BAAC003A60CDE9004653461022F5E73B681A1D73
:10BABC003A6016F00106D3F8009024D1B9F1000FCA
:10BACC0003D0484602F034F90646B4421DD809F1B9
