:10000000000001201902000001020000554A000012
:1000100005020000070200000902000000000000C5
:100020000000000000000000000000000B020000C3
:100030000D020000000000000F020000110200008D
:100040001302000013020000052B0000E52E000043
:1000500013020000130200008129000013020000B7
:10006000130200001302000013020000130200003C
:10007000130200001302000013020000130200002C
:1000800013020000414A00001302000013020000A6
:10009000130200001302000013020000130200000C
:1000A00013020000130200001302000013020000FC
:1000B0001302000013020000000000000000000016
:1000C00013020000130200001302000013020000DC
:1000D00013020000130200001302000000000000E1
:1000E0000000000000000000000000000000000010
:1000F0000000000000000000000000000000000000
:1001000000000000000000000000000000000000EF
:1001100000000000000000000000000000000000DF
:1001200000000000000000000000000000000000CF
:1001300000000000000000000000000000000000BF
:1001400000000000000000000000000000000000AF
:10015000000000000000000000000000000000009F
:10016000000000000000000000000000000000008F
:10017000000000000000000000000000000000007F
:10018000000000000000000000000000000000006F
:10019000000000000000000000000000000000005F
:1001A000000000000000000000000000000000004F
:1001B000000000000000000000000000000000003F
:1001C000000000000000000000000000000000002F
:1001D000000000000000000000000000000000001F
:1001E000000000000000000000000000000000000F
:1001F00000000000000000000000000000000000FF
:10020000FEE7FEE7FEE7FEE7FEE7FEE7FEE7FEE7C6
:10021000FEE7FEE700F002B8FFF7FCBF0F484FF023
:100220000701884385460E4880470E48016841F41F
:1002300070010160BFF34F8FBFF36F8F00F01AB8EA
:1002400009480A490A4A884207D0521A05D0037859
:1002500001300B700131013AF9D1704700000120E3
:100260007D12000088ED00E0C07B0000000000204F
:1002700000000020344935480A1A02D00722914371
:100280008D46334933480A1A06D00722914381F339
:100290000988022282F314882F483049304A00F03E
:1002A00041F830483049314A00F03CF83048314993
:1002B000314A00F037F831483149324A00F032F81B
:1002C00031483249324A00F02DF832483249334A37
:1002D00000F028F832483349334A00F023F8334815
:1002E0003349002200F029F832483349002200F057
:1002F00024F832483249091A07F0FEFB314A904788
:100300001F482049884205D00268043003B4904752
:1003100003BCF7E700208646EC46002000212A4A6D
:100320009047FEE7884207D0521A05D00378013083
:100330000B700131013AF9D17047884202D0027046
:100340000130FAE7704700000000012000E00020C3
:10035000000001200000012048AD00000000002046
:1003600014050020CC030000CC0300000C7B00002F
:1003700048AD00000000002000000020C07B00000D
:10038000C07B0000C07B0000C07B0000C07B000081
:10039000C07B0000C07B0000C07B000048AD0000B7
:1003A0005CB2000014050020140500201405002094
:1003B000A0280020A0280020A0280020A02800209D
:0C03C000A048002041020000410F000096
:1003CC0037B50024032501F025FECDE900450123B6
:1003DC0049221821062001F053FF18210846CDE9C7
:1003EC0000450123442201F04BFFCDE900450123D8
:1003FC004C2218212A2001F043FFCDE900450123AE
:10040C00452218213C2001F03BFF03B0BDE83040F1
:10041C0001F0B2BD2DE9F04385B0012501F0FAFDE4
:10042C00002406212B460846CDE90045432201F065
:10043C0027FF2B46CDE900456F2206210C2001F049
:10044C001FFF2B46CDE9004575220621122001F035
:10045C0017FF2B46CDE900456E220621182001F02E
:10046C000FFF2B46CDE90045742206211E2001F01A
:10047C0007FF104B104A5B68052102A806F0FDFF30
:10048C0002AD074618264FF00308A146A74204DC2C
:10049C0001F072FD05B0BDE8F083CDE9009830B2F3
:1004AC0015F8012B01231821123601F0E9FE013455
:1004BC00B6B2EBE7E4050020587C000010B504460A
:1004CC00084806F02FFD2378022B05D1FFF7A2FF79
:1004DC00054B03221A7010BD042BFCD1BDE8104053
:1004EC00FFF76EBFC07B0000070600202DE9F0432C
:1004FC00002485B0032701F08DFD01235322182120
:10050C000620CDE9004701F0BBFE18210846012367
:10051C005022CDE9004701F0B3FE01234B221821F4
:10052C002A20CDE9004701F0ABFE0F4B0F4A1B7898
:10053C00052102A806F0A1FF02AD80464A26A1467D
:10054C00A04504DC01F018FD05B0BDE8F083CDE951
:10055C00009730B215F8012B01231821123601F047
:10056C008FFE0134B6B2EBE7F8050020587C000092
:10057C000268530910B5044618D0012B40F2FF3322
:10058C0018BF002302F01F02D340DB0704D4094933
:10059C004FF4F67004F006FB23681F2B83BF03F0A7
:1005AC001F03054823604FF0A04010BD4FF0FF33F0
:1005BC00E8E700BFD57B00000003005010B50F48E2
:1005CC000F4C03F021FF0F4B0F4822680F49C01A44
:1005DC00C008000440F0030005F0FAFA2368013368
:1005EC0023600B4B1B783BB1BDE810400348002245
:1005FC0040F2666103F0D6BE10BD00BF280000209B
:10060C00140500200C7B00003C7B0000037C0000E8
:10061C00E00500202DE9F043AD4BAE4EAE4FF61A7F
:10062C00F608360446F0030502468DB0804689462E
:10063C002846AA4905F0CCFAA94806F080FF3A787A
:10064C00A849284605F0C4FA05F06CF90028FBD13E
:10065C00A54C23786BB9A54806F064FCA349284641
:10066C0005F0B2FA05F05EF90028FBD10DB0BDE83B
:10067C00F083B9F1010F00F0E2809D49284605F0A6
:10068C00A3FA05F04FF90028FBD163789949626809
:10069C00284605F0A6FA636861781BBA56310393B5
:1006AC004901042303A88DF82C3001F0DDF920B1A9
:1006BC00914A40F2DE4103F025FDB8F1140FD5D17B
:1006CC008E4E8F493268284605F082FA3368092B22
:1006DC0000F2A98097F80090B9F1010F40F09680D4
:1006EC00DFF83482874998F80020284605F070FA24
:1006FC0098F800106170563100230422490103A8B8
:10070C0084F80090636001F055FA20B17A4A40F207
:10071C00812103F0F7FC7C49284605F055FA0422A8
:10072C0003A9284605F092FA9DF80D209DF80C308F
:10073C0013409DF80E2013409DF80F201340FF2B03
:10074C0060D17249284605F03FFA98F80010002352
:10075C00563103934901042303A88DF82C3001F082
:10076C0083F91F2302A80293FFF702FF029B0124C7
:10077C0004FA03F3C0F80C3501F04CFC00254FF0E3
:10078C0003081821084623465322CDE9005801F0EE
:10079C0077FD2346542218212A20CDE9005801F078
:1007AC006FFD2346412218213C20CDE9005801F071
:1007BC0067FD2346522218214E20CDE9005801F046
:1007CC005FFD2346542218216020CDE9005801F02A
:1007DC0057FD01F0D1FB02233F4A4D483B704FF4CB
:1007EC00004103F0DFFD20B1434A40F2992103F0B0
:1007FC0089FC05F097F80028FBD1464A00233360AA
:10080C00137033E7039B1BBA6360AAE7B9F1030FBC
:10081C00F3D10023637063603F4B01241C70FFF71E
:10082C0065FE3C70E9E73D4A0023C4F8093023809B
:10083C005360138123726360FFF7C2FDDDE73F78DD
:10084C00012F75D13649284605F0BEF905F06AF836
:10085C0002460028FAD1B8F1140F2DD0B8F11A0FB6
:10086C0018D0B8F10F0F7FF401AF2B4A2D49137834
:10087C000A2B1CBF0133DFB2177028463A4605F02D
:10088C00A7F905F04FF80028FBD10DB0BDE8F043F7
:10089C00FFF72CBE204B24491A78012A1ABF02F10B
:1008AC00FF32D2B20A2228461A7005F091F905F0EF
:1008BC0039F80028FBD1E8E7164B1C4801211970C8
:1008CC0040F266610DB0BDE8F04303F06BBD00BFB4
:1008DC000C7B00003C7B000007060020317C0000F4
:1008EC005B7C0000777C0000E40500208A7C000023
:1008FC00A97C0000C07C0000E97C000014050020ED
:10090C00667D00007E7D00008E7D0000997D0000DC
:10091C0048000020E0050020F8050020ED0500202F
:10092C00EE7D0000207E00003E7E000028000020AE
:10093C00032F7FF49BAE4249284605F045F904F09D
:10094C00F1FF0028FBD10423B8F1140F8DF82C30E3
:10095C0055D0B8F11A0F2BD0B8F10F0F7FF486AE2B
:10096C006368384901332846636005F02DF96268E5
:10097C003549284605F02CF9FFF74CFD6178636882
:10098C0056311BBA490103A8039301F06DF80446D4
:10099C0000283FF46BAE2D4A2D4946F0010005F0BE
:1009AC0017F92C4A40F2F321204603F0ABFB5DE62D
:1009BC00294806F0B7FA616819B9284806F0B2FA66
:1009CC0054E601392648616006F0B9FDFFF722FDB7
:1009DC006178636856311BBA490103A8039301F08F
:1009EC0043F8044600283FF441AE184A184946F033
:1009FC00010005F0EDF8174A40F20A31D4E7194B23
:100A0C00617801221A70636856311BBA490103A838
:100A1C00039301F029F8044658B10C4A0C4946F0EE
:100A2C00010005F0D5F80B4A4FF44671204603F04F
:100A3C0069FB002240F266610B4803F0B3FC15E63B
:100A4C00EE7D00005E7E00006A7E0000E883000000
:100A5C00807E0000E97C0000B27E0000BF7E0000BA
:100A6C00DC7E0000E00500202800002037B54FF4A4
:100A7C008041002004F006FF18B1384AEE2103F043
:100A8C0041FB04F03BFE364C364B3749E41AE40884
:100A9C00240444F003040322204605F099F80321B2
:100AAC00324806F04CFD324840F26662032103F0F6
:100ABC0087FA20B1294A40F24A3103F023FB2D4931
:100ACC00204605F081F82B4806F02CFA03F0D0FAFA
:100ADC0020B1224A4FF4547103F014FB20462649EE
:100AEC0005F072F8244806F01DFA04F01BFF0028EC
:100AFC00FBD11F2301A80193FFF73AFD019B03F5DE
:100B0C00E073032240F8232003F0F8FB18B1134ADA
:100B1C00F72103F0F7FA194D0F2445F001054FF4B6
:100B2C007A40A847013CFAD1154A1648214603F0F1
:100B3C0017FC18B1094AFA2103F0E4FA124A1348D7
:100B4C00002103F00DFC38B1044A40F2051103B04A
:100B5C00BDE8304003F0D6BA03B030BDE97C0000EC
:100B6C003C7B00000C7B0000F17E0000017F00004C
:100B7C0000000020127F00002E7F00000084000087
:100B8C00C90400000C840000C905000008840000A2
:100B9C0000B5E1B04FF4BA7302460191029302A979
:100BAC0001AB03A805F00FFA48B10848084B0949F6
:100BBC00C01AC008000440F0030005F005F803A8B3
:100BCC0005F010FA61B05DF804FB00BF3C7B00003F
:100BDC000C7B0000467F00000F2AF8B50F46144628
:100BEC0002D804252846F8BDC378072B30D1002045
:100BFC0000F0D2FE054660B1164B17481749C01AD3
:100C0C00C008000403230022184304F0EAFF032564
:100C1C00E8E7BB7BDB0003F110029442E1D39B08B5
:100C2C00DEB20424A642DDD907EB8401204600F095
:100C3C00B3FE50B1074B08480849C01AC00800045D
:100C4C00E31C224640F00300DFE70434E4B2E9E79A
:100C5C000625C7E70C7B00003C7B00006B7F000087
:100C6C00014670B5154805F007FB042813D114484C
:100C7C00144B1549C01AC008000440F0030004F0DE
:100C8C00A3FF0E4E304605F0B5FBF4690025338CFE
:100C9C00AB4209D870BD0028F3D00948094B0B4969
:100CAC00C01AC0080004E8E72378032B04D161883C
:100CBC006068FFF76DFF08340135E8E77800002025
:100CCC003C7B00000C7B0000887F0000C97F00008B
:100CDC0010B506494FF48062FFF77EFF044610B949
:100CEC000248FFF7BDFF204610BD00BFFE0F0020DD
:100CFC002DE9F04105F0BEFD024640B13649374BB7
:100D0C005B1ADB0836491B0443F0030019E005F0BD
:100D1C0025FE024630B13049304B5B1ADB083149B5
:100D2C001B04F1E7304E304605F030FE044670B13E
:100D3C002A48294B2D49C01AC0080004224640F00D
:100D4C00030004F045FF03242046BDE8F08135681C
:100D5C00DFF8A4800746B388BB4218D8224805F0B8
:100D6C00E5FC356800271435B388BB42ECD915F87F
:100D7C00023C55F8140C042B00D028B135F8101C8B
:100D8C0002300239FFF704FF01371435ECE7AB7C76
:100D9C00042B01D0AB7BCBB9A88905F0A3FD02468F
:100DAC0030B10D490D4B5B1ADB0811491B04ABE745
:100DBC00FF224146304605F059FE024630B1064945
:100DCC00064B5B1ADB080B491B049DE714350137F6
:100DDC0008F1FF08BFE700BF0C7B00003C7B000064
:100DEC000780000042800000180000206B8000008B
:100DFC0092800000BD80000008060020010706D488
:100E0C0042064FEA501302D403F00300704702204D
:100E1C00704700001FB50F4B0FCB6C4684E80F00DA
:100E2C00162218230C48CDE9002306F07BF800238A
:100E3C0021460A481A4601F009FB044630B1014626
:100E4C00074806F07CFB204604B010BD054802F0B4
:100E5C004BF9F8E7D8830000E6800000680000201A
:100E6C00F58000006C0000200148002100F06ABCF5
:100E7C006800002038B51C4C41F28831204600F047
:100E8C00B5FC054628B1194806F04CF8052528464E
:100E9C0038BD204600F0E4FAA078FFF7AFFF28B188
:100EAC00012812D0124806F03DF8F0E7114B124819
:100EBC001249C01AC008000440F0030004F084FE7C
:100ECC002046BDE83840FFF703BF0A4B0A480C49DF
:100EDC00C01AC008000440F0030004F075FE204660
:100EEC00BDE83840FFF704BFF90500201A81000067
:100EFC00728100000C7B00003C7B00003481000000
:100F0C005381000038B500F075FD20B1074A4FF44D
:100F1C00127103F0F7F8064D4FF4FA6445F0010531
:100F2C004FF47A40A847013CFAD138BDE97C000067
:100F3C00008400002DE9F04F8BB0FFF797FDA5481A
:100F4C00A54C05F0EFFFA54BA249E41AE4082404D4
:100F5C0044F00304204604F037FE04F0E3FC0028C0
:100F6C00FBD1FFF757FF20B19D4A40F2EC4103F053
:100F7C00C9F89C49204604F027FE04F0D3FC002855
:100F8C00FBD1FFF771FF20B1954A40F2F14103F01C
:100F9C00B9F89549204604F017FE04F0C3FC054649
:100FAC000028FAD1914805F0BDFF914800F076FE7B
:100FBC00904805F0B7FF2A463C21022000F0AAFE1B
:100FCC008D4805F0AFFFFFF7FBF920468B4904F085
:100FDC00FBFD874800F012FD20B1814A40F203511D
:100FEC0003F090F88649204604F0EEFD04F09AFCDC
:100FFC000028FBD120224FF42C6101A800F0DAFD6F
:10100C00054668B17F49204604F0DEFD04F08AFCF9
:10101C000028FBD1724A40F26B41284603F072F86B
:10102C0004220DEB0201204604F010FE9DF8042072
:10103C00FF2A08D0C2B97449204604F0C5FD04F05B
:10104C0071FC0028FBD1DFF8FC91DFF8FC8109F181
:10105C00040AFFF70FFF062800F2B280DFE800F069
:10106C002BB0B0B09AA2AA000A2A08D96749204628
:10107C0004F0AAFD04F056FC0028FBD1E3E7644D14
:10108C00644F2A7201260DF1050105F109002E703D
:10109C0006F0D0F8604B3E701E70FFF727FA204622
:1010AC005E493E7004F090FD2A7A05F10901204654
:1010BC0004F0CCFDC7E7564E5948354605F032FFD3
:1010CC005749204604F080FD15F8097B97B1554827
:1010DC0006F035FA5449204604F076FD327A29465A
:1010EC00204604F0B3FDFFF70DFF04F01BFC0028B5
:1010FC00FBD1AEE799F80320C6F809704FF0010B4D
:10110C0051466F602F812846327286F800B07760A6
:10111C0006F090F8454805F005FF4549204604F0D7
:10112C0053FD327A2946204604F090FD1F23684671
:10113C000093FFF71DFA009B0BFA03F3C0F8083578
:10114C002022394601A806F0ABF8367A8DF80460F7
:10115C00324629460DF1050006F06CF85E444FF45A
:10116C002C6101A88DF8246000F07EFC054648B186
:10117C003049204604F028FD194A40F286312846B1
:10118C0002F0C0FF244B01251D70FFF7AFF9214B76
:10119C001D70A8E72046284904F016FD264805F0E6
:1011AC00C1FEA0E72046254904F00EFD234805F0BA
:1011BC00B9FE9AE72046224904F006FD2048EEE7E6
:1011CC004146204604F000FD404605F0ABFE00F021
:1011DC0011FC8AE7B58100003C7B00000C7B000011
:1011EC00E97C0000C8810000D8810000EA81000081
:1011FC006800002000820000148200002982000098
:10120C003D8200005082000078820000898200003C
:10121C00E405002007060020F8050020C482000029
:10122C00E9820000EF8200000683000027830000A3
:10123C00358300004683000069830000A083000012
:10124C00AE830000F9050020C18300004FF08053ED
:10125C00D3F83001A0F10D035842584170470000FB
:10126C00024AD2F80034002BFBD0704700E001405A
:10127C0010B5FFF7EBFF40B14FF080430022C3F8ED
:10128C000C21C3F81021C3F83825FFF7DFFF002825
:10129C0046D04FF08052514BD2F80414C3F82015AD
:1012AC00D2F80814C3F82415D2F80C14C3F8281576
:1012BC00D2F81014C3F82C15D2F81414C3F8301546
:1012CC00D2F81814C3F83415D2F81C14C3F840150E
:1012DC00D2F82014C3F84415D2F82414C3F84815D6
:1012EC00D2F82814C3F84C15D2F82C14C3F85015A6
:1012FC00D2F83014C3F85415D2F83414C3F860156E
:10130C00D2F83814C3F86415D2F83C14C3F8681535
:10131C00D2F84014C3F86C15D2F84424C3F87025E5
:10132C00FFF794FF48B14FF08043D3F80024D20765
:10133C0044BF6FF00102C3F80024294AD2F8883068
:10134C0043F47003C2F88830BFF34F8FBFF36F8F35
:10135C004FF08053D3F830210D2A0ED1D3F834310D
:10136C00022B02D81F4AD35C3BB14FF01023D3F8A9
:10137C0008224FF08043C3F858254FF01023D3F8C0
:10138C000022002A03DBD3F80432002B22DA1649A0
:10139C0001234FF01020C1F804351224FFF760FF31
:1013AC00C0F80042FFF75CFFC0F80442FFF758FF9B
:1013BC000023C1F80435FFF753FFBFF34F8F0849E3
:1013CC000A4BCA6802F4E0621343CB60BFF34F8F41
:1013DC0000BFFDE7064B074A1A6010BD00C0004075
:1013EC0000ED00E01084000000E001400400FA056C
:1013FC009C0000200090D0030268530910B50446ED
:10140C0018D0012B40F2FF3318BF002302F01F024B
:10141C00D340DB0704D409494FF4F67003F0C2FB48
:10142C0023681F2B83BF03F01F03054823604FF075
:10143C00A04010BD4FF0FF33E8E700BFD57B0000A4
:10144C000003005038B5054D044645F001054FF436
:10145C007A40A847013CFAD138BD00BF2087000074
:10146C00F8B504461348144F05F05CFD2178134879
:10147C0006F065F825466178114806F060F8A17809
:10148C00104806F05CF815F8031F0F4806F057F8E3
:10149C006FF00206361BE27873199A4204DCBDE841
:1014AC00F8400A4805F03EBD15F8011F384606F015
:1014BC0046F8F0E71384000060AA00002F840000B7
:1014CC006384000092840000A384000099880000CB
:1014DC0007B5084B01A81B790193FFF78DFF019B02
:1014EC00D0F81005D840C04300F0010003B05DF8FF
:1014FC0004FB00BFA000002038B50446FFF7E8FF4E
:10150C00002508B9A54200D138BD0120FFF79AFF8C
:10151C000135FFF7DDFFF4E770B5064664200D4694
:10152C00FFF7EAFFB0B10D4BDB799BB9FF2D13D060
:10153C000B4A10680B4A6B1CDBB22421043001F0FF
:10154C0090FE044620B908492A46304605F072FE42
:10155C00204670BD0324FBE70624F9E7A000002019
:10156C0054160020511500205215002037B50621C5
:10157C006846FFF7D1FF044680B94FF47A75FFF740
:10158C00A7FF18B1013DADB2002DF8D105490622D7
:10159C00684605F0B5FE002818BF0324204603B0AA
:1015AC0030BD00BF268700001B4BDB79F7B5074623
:1015BC000C466BBBF8292DD8184D2B706B70FF2384
:1015CC00AB704B1CEB70D426CB430A462B710146F7
:1015DC006E71A81D05F02EFE38463A19334690421E
:1015EC0011D10F49254408685B420022AB7104F10C
:1015FC000803EA71DBB200922421084A043001F09E
:10160C001DFE03B0F0BD10F8011B0B44DBB2E6E786
:10161C000320F6E70720F4E7A00000205115002076
:10162C005416002037B504460F480191154605F0B5
:10163C0079FC20460199FFF7B7FF044630B101460B
:10164C000A4805F07CFF204603B030BD2846FFF762
:10165C0053FF20B9064805F065FC0324F3E703B0FB
:10166C00BDE83040FFF782BFB3840000CA8400009D
:10167C00F284000070B5154D022306464FF47A72C1
:10168C00012128462B70FFF7CDFF044628B10146F7
:10169C000F4805F054FF204670BD0D212846FFF77A
:1016AC003BFF044610B101460A48F2E70A490622FC
:1016BC00681C05F025FE20B1084805F033FC052414
:1016CC00E9E7D5F807301BBA3360E4E75114002082
:1016DC0007850000418500002C870000658500000F
:1016EC00431E032B10B517D80C4C142323706070B9
:1016FC00A3704FF47A72012304212046E370FFF7A4
:10170C0091FF40B909212046FFF706FF18B9A379CC
:10171C00152B18BF052010BD0720FCE75114002025
:10172C00074B32221A70FF2205219A700122DA70BF
:10173C00187159704FF47A721846FFF773BF00BFD7
:10174C005114002073B5234B234D18602B780BB12B
:10175C0000293BD0214EF479002C39D133790193F7
:10176C0001A8FFF749FE019B03F5E07340F8234005
:10177C007379019301A8FFF73FFE019B03F5E0731A
:10178C0040F823406420FFF75DFE154805F0CAFBC6
:10179C0001A8FFF76FFF044630B10146114805F070
:1017AC00CEFE204602B070BD0120FFF799FF044623
:1017BC000028F6D1FF20FFF7B3FF04460028F0D134
:1017CC00012309482B7005F0BAFEEAE70C46E8E75E
:1017DC000324E6E75416002050140020A00000203B
:1017EC008385000094850000BB850000F8B5064693
:1017FC002B480F4605F096FB2EB92A4805F092FBB4
:10180C0007242046F8BD284D4A232B7001236B700A
:10181C006422002303212846AB70FFF703FF044624
:10182C0020B10146214805F08AFEEAE7204805F080
:10183C0079FB642F384638BF6420FFF75DFE20B972
:10184C001C4805F06FFB0324DBE719212846FFF742
:10185C0063FE044610B101461748E4E7E979012913
:10186C0004D0164805F06BFE0B24CAE72B7B0A2B21
:10187C0004D9134805F056FB0924C2E7AB7A337040
:10188C006B7A7370EB7AB3702A7BF27005F10D01F1
:10189C00301D05F0CFFC0B4B2A7A9A71B1E700BFD3
:1018AC00D1850000F2850000511400203B86000019
:1018BC005A8600008486000091860000BB860000DA
:1018CC00FA860000A0000020F8B5294D1E464023E2
:1018DC002B70284B9B796B700C4617460A460146B9
:1018EC00A81C05F0A7FCA11C4FF47A72C9B22846BB
:1018FC00FFF798FE044628B94FF47A70FFF7FCFD09
:10190C0010B903242046F8BD31780A31C9B22846F3
:10191C00FFF702FE04460028F4D12B786A781343B3
:10192C0023D1AB78FF2B20D1E9782A794B42DBB25B
:10193C009A421AD16A7902F12C03DBB2012B14D82A
:10194C00D52ADED1AB79412BDBD1EB799B06D8D1F3
:10195C003378CD1EEDB29D4228BF1D4606492A465E
:10196C00384605F067FC3570CCE70B24CAE700BF9E
:10197C0051140020A000002059140020FF2910B49D
:10198C0006D01C78F62C03D85DF8044BFFF79CBFEF
:10199C0003205DF8044B704707B510238DF8033016
:1019AC0030230A468DF804308DF805000DF1030341
:1019BC00022101A8FFF788FF03B05DF804FB0000CB
:1019CC000B4B322210B51A7001225A7098704FF4DA
:1019DC007A7203211846FFF725FE044628B96420C5
:1019EC00FFF78AFD002808BF0324204610BD00BF66
:1019FC00511400200020FFF7E3BF0000144A08B583
:101A0C00137873B1134B14481449C01AC00800045E
:101A1C0040F0030004F0D8F8104805F083FA0320D6
:101A2C0008BD70B90B4B0C480D49C01AC008000416
:101A3C0040F0030004F0C8F8094805F073FA0E20D2
:101A4C00EEE708490860012111701846E8E700BF6D
:101A5C007A1600200C7B00003C7B000032870000D3
:101A6C00598700007C1600202DE9F3410F460546EE
:101A7C0038B9434805F056FA0E24204602B0BDE8AA
:101A8C00F08190F82020202A04D93E4805F04AFA2B
:101A9C000C24F2E701F01F031344202B02DD3A481B
:101AAC0005F04DFD394B3A4C3A49DFF8FC80E41A0D
:101ABC00E408240444F0030495F820303A46204608
:101ACC0004F08FF83449204604F07EF895F8202075
:101ADC002946204604F0BAF82F4805F030FD0026C0
:101AEC0095F82030B3423DDC2C4E2D4805F027FDF7
:101AFC0022220021304605F0D3FB30467FBA95F800
:101B0C00202020F8027B294605F094FB95F8205004
:101B1C002449254F02352046EDB204F055F82046F5
:101B2C002A46314604F092F81E4805F008FD0024C0
:101B3C00A5421DDC1A481D4E05F001FD1C4B174A31
:101B4C0018680023009357212B46043001F076FBD4
:101B5C000F25044646F001064FF47A40B047013D8C
:101B6C00FAD18AE7A95D404605F0E9FC0136B7E7F2
:101B7C0016F8011B384605F0E2FC0134D8E700BF2B
:101B8C007E870000B2870000EA8700000C7B000013
:101B9C003C7B000029880000658800005816002056
:101BAC00988800009B8800009288000050890000F3
:101BBC007C1600207FB54BBAADF80C30194C1A4B83
:101BCC00E41AE4082404CBB20546164644F003009C
:101BDC000A0A164C164904F004F89DF80D209DF8DD
:101BEC000C10134805F0ABFC20680023009303AAEB
:101BFC0002235721043001F021FB28B10D4805F0D8
:101C0C0091F9032004B070BD206833462A46572151
:101C1C00043001F026FB08B10748F0E785F8206096
:101C2C00F0E700BF3C7B00000C7B00007C16002022
:101C3C00CB88000006890000248900000268530943
:101C4C0010B5044618D0012B40F2FF3318BF002307
:101C5C0002F01F02D340DB0704D409494FF4F6709D
:101C6C0002F0A0FF23681F2B83BF03F01F0305485E
:101C7C0023604FF0A04010BD4FF0FF33E8E700BFEA
:101C8C00D57B000000030050034B1B78002B0CBFCE
:101C9C0003200020704700BF921A0020064A01233F
:101CAC00137038B1054913700860054A0549137063
:101CBC003C200870704700BF9F1A0020941A002027
:101CCC00921A0020881600201FB50446FFF7DCFF8F
:101CDC0018B10C4AE82102F015FA0B4B1B7873B1C2
:101CEC000A4A0B4910688DF80D40002300938DF8BB
:101CFC000C300978022303AA043001F09FFA04B0D7
:101D0C0010BD00BF568900009F1A0020941A0020B5
:101D1C0088160020504BF7B51870504B1970504B6B
:101D2C00504900261E80504B1E80504B01251D70C3
:101D3C004FF6FF730B804E490B804E4B4E491D7076
:101D4C004E4B1E7080230B804D490B804D49402318
:101D5C000B804D490B804D4B04461E7022B301A8DD
:101D6C000196FFF76BFF019B494F05FA03F3C0F88F
:101D7C0008352F434FF47A40B84701A80196FFF776
:101D8C005DFF019B9D40C0F80C550A254FF47A402D
:101D9C00B847013DFAD101A80195FFF74FFF019A11
:101DAC0001239340C0F80835AE20FFF78DFFD520F6
:101DBC00FFF78AFF8020FFF787FFA820FFF784FF3B
:101DCC003F20FFF781FFD320FFF77EFF0020FFF7B6
:101DDC007BFF4020FFF778FF8D20FFF775FF012C6C
:101DEC000CBF10201420FFF76FFF2020FFF76CFFB3
:101DFC000020FFF769FFA120FFF766FFC820FFF75F
:101E0C0063FFDA20FFF760FF1220FFF75DFF8120F0
:101E1C00FFF75AFF012C0CBF9F20CF20FFF754FF78
:101E2C00D920FFF751FF012C0CBF2220F120FFF726
:101E3C004BFFDB20FFF748FF4020FFF745FFA420B6
:101E4C00FFF742FFA620FFF73FFFAF2003B0BDE82E
:101E5C00F040FFF739BF00BF89160020881600201C
:101E6C008E1A00209A1A0020901A00209E1A002028
:101E7C009C1A0020A01A0020821600208416002034
:101E8C008A1600208016002086160020981A002042
:101E9C00F089000050EA010350D4314BB3F9003003
:101EAC0083424BDD2F4BB3F900308B4246DD2E4B7A
:101EBC001B78022B21D0032B2AD0012B05D12B4BC5
:101ECC001B88013B5B1A014618B2012A26D0022A54
:101EDC0035D0002A32D100290B46B8BFCB1D802249
:101EEC00DB1013FB02032248012201F0070102FA66
:101EFC0001F1C25C22EA01021FE01C4B1B88013B72
:101F0C001B1A18B21B4B1B88013B5B1A19B2DCE77E
:101F1C00184B1B88013B1B1A0846F7E700290B4698
:101F2C00B8BFCB1D8022DB1013FB0203104801F05D
:101F3C00070101228A40C15C0A43C2547047002940
:101F4C000B46B8BFCB1D8022DB1013FB02030848E5
:101F5C0001F0070101228A40C15C4A40EDE700BF55
:101F6C008A16002086160020981A0020821600205F
:101F7C00A90000208016002013B51E4804F0D2FFE3
:101F8C002220FFF7A1FE0020FFF79EFE0720FFF79F
:101F9C009BFE2120FFF798FE0020FFF795FE7F2087
:101FAC00FFF792FE144B1B780BB3144C144804F03F
:101FBC00B9FF2046402300F8013B12494FF48062E0
:101FCC0005F038F9104B1149186800230093097873
:101FDC0040F201432246043001F030F938B10C4A8A
:101FEC0040F2592102B0BDE8104002F08BB802B0AB
:101FFC0010BD00BFCB8900009F1A00208C1600205A
:10200C00DB890000A9000020941A0020881600200B
:10201C005689000002484FF48062002105F040B957
:10202C00A9000020002930B53ADB214CB4F900405E
:10203C008C4235DD00281F4CBCBF801802B2B4F9AD
:10204C000040B8BF00208518A542C4BF241A22B294
:10205C00002A25DDCC1000EBC410174C204401F0F5
:10206C0007040121A140012BC9B216D0022B0BD0C1
:10207C00B3B9C943C9B20244904211D010F8013B24
:10208C000B4000F8013CF7E70244904208D010F8EE
:10209C00013B4B4000F8013CF7E70244904200D171
:1020AC0030BD10F8013B0B4300F8013CF6E700BFD4
:1020BC008016002082160020A90000200028F0B510
:1020CC006ADB474CB4F90040844265DD0029454C7D
:1020DC00BCBF521812B2B4F90040B8BF00218D1821
:1020EC00A542C4BF641A22B2002A55DDC1F3C40450
:1020FC003D4F00EBC41611F00701D2B207EB0600FE
:10210C0023D0C1F10805EDB2384CAA42645D60D20F
:10211C00A5EB020E4FF0FF0C4CFA0EFC012B04EA5F
:10212C000C0407D0022B38D0B3BB17F806C02CEA2E
:10213C00040403E017F806C044EA0C04AA42BC5598
:10214C002AD308391144CAB28030072A18D9022B75
:10215C0000F1800126D1144611F8805C083CE4B2F1
:10216C00ED43072C01F8805C01F18001F4D8A2F159
:10217C000801C1F3C401013100EBC11002F00702E8
:10218C0052B11B49012B8A5C1CD0022B1ED01BB9EF
:10219C00037823EA02030370F0BD17F806C084EA43
:1021AC000C04CBE7012B4FF0FF3518BF0025EDB227
:1021BC001446083CE4B2072C01F8805C01F1800164
:1021CC00F7D8D4E703781A430270E5E703785A404E
:1021DC00FAE7012BAED0022BDFD0002BB1D1A4E754
:1021EC008216002080160020A9000020F98E000025
:1021FC00F18E000010B40C461349097802290ED058
:10220C0003291BD0012914D110490988891A091BEB
:10221C000CB2014620465DF8044BFFF703BF0B4997
:10222C0009880139091A08B209490988891A091B50
:10223C000CB221465DF8044BFFF740BF04490988F6
:10224C000139091A08B2E4E7981A00208216002016
:10225C00801600202DE9F041BDF8187088461E4606
:10226C0004468518AC4201DBBDE8F08120463B46B4
:10227C00324641460134FFF7BDFF24B2F2E70000BD
:10228C002DE9F04F8BB007460393BDF85030049303
:10229C003C4B9DF85450B3F90030834259DD3A4B16
:1022AC00B3F900308B4254DD062313FB0503002BDE
:1022BC004FDD01EBC503002B4BDD344B1B781BB9F9
:1022CC00AF2A84BF0132D2B202EB820309930623F8
:1022DC0006938BB2059308339BB200240893052C0C
:1022EC001CBF2B4B099A059E18BF1B1904EB070A40
:1022FC0018BF13F80290ABB2079304FB05F313FA63
:10230C0087F31BB207EE903A08BF4FF00009B046B6
:10231C000FFA85FB0FFA8AFA19F0010F27D0012D5D
:10232C001AD1039A31B25046FFF7B4FD079B013620
:10233C009844089BB6B2B3424FEA59091FFA88F881
:10234C00EAD1069B013B013413F0FF0364B2069300
:10235C00C5D10BB0BDE8F08F039B009317EE900A2C
:10236C005B465A460FFA88F1FFF774FFDEE7DDE9AA
:10237C0003239342DAD0012D01D11A46D2E7049BF4
:10238C00EBE700BF8A16002086160020841600207A
:10239C00F68900001FB503788DF800308388ADF8FE
:1023AC00043083688DF80630C3688DF807300369F4
:1023BC0002934369054A0393054B684653F8213051
:1023CC0052F82110984705B05DF804FBA41A0020C0
:1023DC00AC1A00200268530910B5044618D0012B22
:1023EC0040F2FF3318BF002302F01F02D340DB077B
:1023FC0004D409494FF4F67002F0D4FB23681F2B68
:10240C0083BF03F01F03054823604FF0A04010BDAD
:10241C004FF0FF33E8E700BFD57B0000000300500E
:10242C0007B5019001A8FFF7D5FF019A012393404E
:10243C00C0F8083503B05DF804FB0000024B4FF404
:10244C00807043F001031847108F00002DE9F7430B
:10245C00154690F80080354A42F82850344A42F824
:10246C0028304B7B06460C467BB308684FF0A047E0
:10247C0000F5E07340F20C6247F823204B6803F53B
:10248C00E0734FF0010947F82320FFF7C9FF60689C
:10249C00FFF7C6FF236803F5E07340F20D6247F8BF
:1024AC002320636803F5E07347F82320FFF7C6FF8A
:1024BC0000276368019301A8FFF78CFF019AD0F8FD
:1024CC001035D340DB070CD5FFB91A4A002D434613
:1024DC0008BF2A462146301D03B0BDE8F04300F08A
:1024EC0063BD2368019301A8FFF774FF019B09FAF0
:1024FC0003F3C0F80C35FFF7A1FF01372068FFF795
:10250C008FFFFFF79BFF092FD3D16368019301A8BD
:10251C00FFF760FF019A01239340C0F80C35FFF7D9
:10252C008DFF6068FFF77CFFCFE700BFAC1A00207F
:10253C00A41A0020A12300001FB503788DF80030E9
:10254C004368019383688DF80830C368054A039388
:10255C00054B684653F8213052F82110984705B0C6
:10256C005DF804FBB41A0020BC1A00201FB50378D8
:10257C008DF800304368019383688DF80830C36888
:10258C00054A0393054B684653F8213052F8211045
:10259C00984705B05DF804FBB41A0020BC1A002063
:1025AC00F0B5194B90F800C0DFF86CE043F82C2024
:1025BC00164B16460A6943F82C204B7F0EF80C304C
:1025CC000C4607460FCC89B06D460FC594E80F003A
:1025DC0085E80F003B78CDF810C01EF803304BB1E6
:1025EC00002E0B4A694608BF3246381D01F0F0F93F
:1025FC0009B0F0BD002E074A694608BF324607F104
:10260C000C0000F051FFF3E7BC1A0020B41A0020B4
:10261C004525000079250000C41A002000F18040F7
:10262C0000F5C040002382B0036003680193019B56
:10263C0002B0704743090BD0012B40F2FF3318BF97
:10264C00002300F01F0023FA00F000F00100704797
:10265C004FF0FF33F5E70000054B4FF0FF32072832
:10266C0043F8202084BF1B1883F85220704700BF0A
:10267C00C81A002010B504460068FFF7DBFF20B92C
:10268C0007494FF4F67002F08DFA23681F2B83BFB5
:10269C0003F01F03034823604FF0A04010BD00BFA0
:1026AC00D57B00000003005013B5019001A80C4627
:1026BC00FFF7E0FF019B00EB8300D0F8003723F419
:1026CC004033C0F80037D0F8003743EA0443C0F871
:1026DC00003702B010BD000010B5184991F8642005
:1026EC0052BBFF241046FFF7A5FF10B18B1883F8DF
:1026FC00304001322A2AF5D10024E0B20134FFF730
:10270C00ABFF0C2CF9D10E4B0022C1F85E209A8045
:10271C000C4BC02083F80603402018604FF4BE70A9
:10272C00FFF77CFF084B4FF00040C3F80403012374
:10273C0081F86430104610BD0820FCE7C81A002050
:10274C00261B002000E100E000600040034B93F8E2
:10275C006400003818BF0120704700BFC81A002061
:10276C002DE9F74304460F469146FFF763FF20B966
:10277C0041494FF40C7002F015FADFF8048108EBB4
:10278C00040393F93030002B73DABB78C3F34003A6
:10279C00002B15BF0025082508220C22954203D1D9
:1027AC00042003B0BDE8F08358F82510013146D160
:1027BC0008EB04026EB248F8259082F830601BB921
:1027CC0008EB050383F85240BB785A0717D4D90796
:1027DC0037D501A80194FFF74DFF019B00EB830057
:1027EC00D0F8003723F00203C0F800372349E20881
:1027FC0004F0070001238340885C03438B54B878B2
:10280C003B7810F002002AD0AD0005F1804505F5AB
:10281C00C0452402D5F8102522F44F3222F4407220
:10282C00C5F810251B04D5F8102504F47C5403F4CA
:10283C0040331C431443C5F810450020B1E7013563
:10284C00ACE701A897F801900194FFF713FF019BE7
:10285C0003F5E0734FEA890240F82320C6E7083EEF
:10286C0048FA86F696F85A2042EA831386F85A30CC
:10287C0097E7082095E700BF168F0000261B002065
:10288C00C81A002073B505460C46FFF7D3FE20B9D5
:10289C0029494FF4187002F085F9284E731993F9F1
:1028AC003030002B04DA244940F2612002F07AF92E
:1028BC00731993F93020072A1DDD083A46FA82F283
:1028CC0092F85A309B09032B10D101A80195FFF700
:1028DC00D1FE019BD0F81015D94001F00101023155
:1028EC00284602B0BDE87040FFF7DEBE012B0CBFDE
:1028FC0002210321F4E7D3B2072B1AD8930003F17A
:10290C00804303F5C04302F14000D3F8101540B2E8
:10291C0041F001018000C3F8101580B2FFF77EFE74
:10292C003CB156F8223023B101239340044AC2F83B
:10293C00043302B070BD00BF168F0000C81A00200F
:10294C000060004013B50446FFF774FE20B9084937
:10295C0040F2B22002F026F901A80194FFF78AFE9A
:10296C00019BD0F81005D84000F0010002B010BD5A
:10297C00168F00002DE9F04F002485B0CDE90244FC
:10298C00594D4FF48072012102F1804303F5C0438D
:10299C0090B21B68012B06D1D5F804330B4202D040
:1029AC00FFF73CFE0C430432B2F5907F4FEA410135
:1029BC00EAD14D4BD3F87C31012B11D14FF4BE70C1
:1029CC00FFF72CFE4FF0A04344F00044D3F8202531
:1029DC000292C3F82025D3F820280392C3F82028AC
:1029EC00E3B2D3B1414F00250126344210D0AB00E5
:1029FC0003F1804303F5C043D3F81005D3F8101549
:102A0C0057F8253023B1C1F30141C0F30520984795
:102A1C000135082D4FEA4606E7D1002C5CDA334D20
:102A2C00334C344E4FF00009012716F9013F5A1C64
:102A3C003FD0C3F3C20210326A445FFA83FA12F831
:102A4C00082C03F03F0803F0070307FA03F31A42BC
:102A5C002FD001A8CDF80480FFF70CFE019B03F5E5
:102A6C00E07350F82330C3F3014BBBF1020F0CBFE2
:102A7C00032102214046FFF717FE01A8CDF8048080
:102A8C00FFF7F8FD019B07FA03F3C0F8203505EBBF
:102A9C00080393F9303055F8233053B14FEA9A11AB
:102AAC00032904D0BBF1020F19D1012901D14046F1
:102ABC00984709F10109B9F1040FB6D14FF0A042C2
:102ACC00D2F820350293C2F82035D4F82025039291
:102ADC001343C4F82025A4D105B0BDE8F08FBBF199
:102AEC00030FE6D10229E1E700600040C81A00207C
:102AFC0000030050211B002010B5054C23681BB9A6
:102B0C000449512002F04EF82368BDE810401847E4
:102B1C00301B00209C8F000038B50D4628B90C499D
:102B2C00772002F03FF8002038BD0A4B9842FAD1CA
:102B3C00002001F0B1FD084B1C7914B901221D6075
:102B4C001A71002001F0B8FD002CECD01120EBE73D
:102B5C009C8F000000200040301B002018B9064953
:102B6C009B2002F01FB8054B984201BF044B00227A
:102B7C001A601A71704700BF9C8F00000020004043
:102B8C00301B00200023435082B043580193019B1B
:102B9C0002B070470268530910B5044618D0012BD7
:102BAC0040F2FF3318BF002302F01F02D340DB07B3
:102BBC0004D409494FF4F67001F0F4FF23681F2B7D
:102BCC0083BF03F01F03054823604FF0A04010BDE6
:102BDC004FF0FF33E8E700BFD57B00000003005047
:102BEC008B6A4A6B9A4210B54FF0010305D2496AC1
:102BFC008A5CC0F81C251A4604E091F82C201AB106
:102C0C00C3610022104610BD0C6A640603D5C36173
:102C1C0081F82D30F6E74361EDE770B5D0F804612B
:102C2C0005460C4626B14FF48271FFF7ABFF012627
:102C3C0094F82F2022B34FF492712846FFF7A2FF8D
:102C4C004FF48E71FFF79EFF4FF48471FFF79AFFDC
:102C5C00002E69D094F82F20002384F82D3092BBDD
:102C6C00A36A616B99421CBF1646052386F00106C8
:102C7C001CBFC5F80025C5F8003584F82F6023E08B
:102C8C00D5F824314BB14FF492712846FFF77AFFF7
:102C9C0001236B6184F82F30DAE7D5F81C31ABB126
:102CAC004FF48E712846FFF76DFF636B013363633E
:102CBC00D5F8243113B14FF49271E7E72146FFF7B1
:102CCC008FFF0028C4D10022104670BDD5F8083102
:102CDC00002BBDD04FF484712846FFF753FFD5F875
:102CEC002431002BE7D1636BA16A8B42B0D2616AAD
:102CFC00D5F81805C854636BA16A0133481E83428A
:102D0C00636308D1206A400610D40223C5F8003250
:102D1C0001232B629CE78B42FAD1236A5B0697D581
:102D2C00022384F82D30CFE70122CDE78B42EFD17F
:102D3C00F6E7000037B5314B01930D464FF4827125
:102D4C00FFF720FF4FF49271FFF71CFF4FF48E71C9
:102D5C00FFF718FF4FF48471FFF714FF0023C0F83E
:102D6C0000326B6385F82F300123036295F82D2018
:102D7C009A4218BF836029460446FFF731FF2B683F
:102D8C0083B140F28623AB60AB68C4F804330020F7
:102D9C0003B030BD29462046FFF73FFF28B1019B09
:102DAC00013B0193019B002BF4DC95F82F0050B9EB
:102DBC00019B002BECDC0023C4F800350523C4F880
:102DCC0000350320E4E7D4F8C434C4F8C43493B118
:102DDC0013F0010F14BF4FF40240032048F20122FC
:102DEC0013F0020F18BF104613F0040F48F2022321
:102DFC0018BF1846DCE70320DAE700BFA086010005
:102E0C0037B5344B01930D464FF48271FFF7BAFE80
:102E1C004FF49271FFF7B6FE4FF48E71FFF7B2FECE
:102E2C004FF48471FFF7AEFE00236B6385F82F30EF
:102E3C00AB6A012B044617D12B6A5B0614D4022310
:102E4C00C4F800320123236295F82D20022A18BF02
:102E5C0023602B6893B140F28623AB60AB68C4F857
:102E6C000433002003B030BD0123E9E72946204696
:102E7C00FFF7D3FE28B1019B013B0193019B002B73
:102E8C00F4DC95F82F0050B9019B002BEADC0023F1
:102E9C00C4F800350523C4F800350320E2E7D4F864
:102EAC00C434C4F8C43493B113F0010F14BF4FF4FD
:102EBC000240032048F2012213F0020F18BF104603
:102ECC0013F0040F48F2022318BF1846DCE7032066
:102EDC00DAE700BFA0860100F0B52F4C236887B05D
:102EEC0023B92E4940F2BA2001F05CFE2A492C4845
:102EFC00FFF793FE002847D194F82F70D4F820C028
:102F0C00FFB9237B9A1E012A1BD8616AA2699142E0
:102F1C0017D1E2696262CCF3401C62691E492048F9
:102F2C00A262032B84F82CC084F82D7004D107B056
:102F3C00BDE8F040FFF7FEBE07B0BDE8F040FFF77C
:102F4C005FBF184E0FCE01AD0FC533682B60EFB1CC
:102F5C00134AD2F8C434C2F8C434990718D45A07A7
:102F6C0018D403F00103C3F10403DBB28DF8003075
:102F7C001CF0040F4FF0000384F8303000D01FB168
:102F8C00D4E900316846984707B0F0BD3B46EDE701
:102F9C000123EBE70223E9E7381B00202090000017
:102FAC0000300040441B00202DE9F04F85B08146D5
:102FBC00934601930D4619B94549AA2001F0F2FD3B
:102FCC00D5E900239A4203D14149AB2001F0EAFD37
:102FDC0099F804803F4F3C2202FB08FA07EB0A04E5
:102FEC0094F82E30002B6FD13B49D9F80000FFF735
:102FFC0093FD0646002869D1019B63606B7BA06042
:10300C0084F82D0084F8310084F8300084F83830CE
:10301C0047F80AB02B68039303A8FFF7BBFD039B8B
:10302C0003F5E07340F20C6440F823406B680393A3
:10303C0003A8FFF7AFFD039B57F80A2003F5E073D5
:10304C0040F82340D5E90010D9F80040C4F8081521
:10305C00A968C4F80C05C4F824155AB32D7B072DA8
:10306C004FEA143A44F3073403D91C496B2001F09E
:10307C0099FD002CAEBF04F16043194B0AF00F0A06
:10308C004FEA4515A8BF03F56143EDB2B4BF03F891
:10309C000A5083F80053D9F80030190B43F3073367
:1030AC00002B07DB012201F01F018A405B090D494F
:1030BC0041F823203C2303FB0877012387F82E30AB
:1030CC00304605B0BDE8F08F0826F9E71126F7E782
:1030DC0020900000381B0020E52E00009C90000082
:1030EC0014ED00E000E100E070B50D4C06793C23D6
:1030FC0003FB0643054693F82E30012B04D00949F7
:10310C004FF4857001F04EFD2B680522C3F80025A5
:10311C003C2303FB0644022384F82E3070BD00BF11
:10312C00381B0020209000002DE9F0470579404F16
:10313C004FF03C0909FB05F9064657F809300C46D7
:10314C009046A3B90B78022B08D02378032B0ED111
:10315C00384940F2872001F025FD08E0354940F25E
:10316C00862001F01FFD57F80930002BEDD03C23D1
:10317C0003FB0573D6F8009093F82D30012B04D186
:10318C002378012B06D1082011E0022B02D12378E1
:10319C00012BF8D13C26284BC9F8083306FB0576E1
:1031AC0096F830302BB1B368C9F804331120BDE860
:1031BC00F08788F00403C3F3800386F83030C6F838
:1031CC002080A646BEE80F0006F10C0CACE80F0000
:1031DC00DEF80030CCF800306368B362E3687362E9
:1031EC006378C9F888352378C5EB051A012B07EBF2
:1031FC008A0A17D09BB9C8F340183C2303FB05730C
:10320C00514683F82C804846FFF794FD3C235D43E0
:10321C007A197B59002BCAD182F83030C7E74FF0AE
:10322C000108EAE751464846FFF7EAFDEEE700BF22
:10323C00381B0020209000008642040010B586B098
:10324C000024CDE904249DF820208DF805105201AE
:10325C0001A9CDE902348DF80440FFF765FF06B0F3
:10326C0010BD10B586B0012402930023CDE90332C2
:10327C008DF805101A4601A98DF804400593FFF747
:10328C0053FF06B010BD0023435082B04358019346
:10329C00019B02B070470A4610B54FF48E71FFF7D0
:1032AC00F2FF136A9168C95C136A01331362C0F8A8
:1032BC001C1510BD0268530910B5044618D0012B1B
:1032CC0040F2FF3318BF002302F01F02D340DB078C
:1032DC0004D409494FF4F67001F064FC23681F2BE9
:1032EC0083BF03F01F03054823604FF0A04010BDBF
:1032FC004FF0FF33E8E700BFD57B00000003005020
:10330C0007B5019001A8FFF7D5FF019B03F5E0730A
:10331C00022240F8232003B05DF804FB8B690A46B7
:10332C0010B54FF4847123B9FFF7ADFFD0F8183501
:10333C0010BDFFF7A8FF536AD168D0F81805C85420
:10334C00536A01335362F3E71FB501238DF8003044
:10335C00044BCDE90110D3E900126846904705B043
:10336C005DF804FB741B002030B54D4DD5F80433CB
:10337C009A0585B051D5D5F82431002B4DD04FF49A
:10338C0092712846FFF77FFF4FF40173C5F808339D
:10339C00444B93F829200AB901226A604049022261
:1033AC008DF80020D1F88024C1F8802403929A690A
:1033BC000292DA6801920022C3E906226846D3E938
:1033CC00001290473648D0F81C315BB1354A516930
:1033DC00136A99424DD992F82830002B49D11146E5
:1033EC00FFF759FF2E48D0F84431002B56D04FF43C
:1033FC00A271FFF748FF2B4B93F829200AB1012249
:10340C0002609A69002A49D0586AD96800229A61E8
:10341C0005B0BDE83040FFF797BFD5F804335B0724
:10342C00D0D5D5F80831002BCCD01E4C1C482146E9
:10343C00FFF774FF636AA2699A42C3D1E369E1683A
:10344C004BB1A3612369E3600023606AE3616362AB
:10345C00FFF77AFFB6E794F829300BB901236B60BC
:10346C000F4B4FF40172C3F808230023606AA36169
:10347C00EEE70B484FF48E71FFF705FF5369002BF5
:10348C00B0D051690291002391688DF80030019100
:10349C0053616846D2E900139847A3E705B030BDE5
:1034AC0000200040741B00202DE9F347064691468E
:1034BC000C4619B96849AA2001F074FB96F80480EF
:1034CC00664D2C2303FB085393F82A30002B40F055
:1034DC00BE8063493068FFF71FFB0746002840F0A9
:1034EC00B88023685A1C13D001A80193FFF7E2FEA1
:1034FC00019A01239340C0F808352368019301A871
:10350C00FFF7D8FE019B03F5E073032240F823205C
:10351C006368581C09D001A80193FFF7CBFE019BEF
:10352C0003F5E073002240F823203368A269C3F846
:10353C002425217D627D0A43C3F86C25D4E9000261
:10354C000129C3F81425C3F80C052AD1A368591C0A
:10355C0009D001A80193FFF7ADFE019B03F5E073C1
:10356C00002240F82320E3685A1C13D001A80193D1
:10357C00FFF7A0FE019A01239340C0F80835E368D9
:10358C00019301A8FFF796FE019B03F5E07303225C
:10359C0040F82320D4E902213368C3F80815C3F896
:1035AC0010252C2303FB08F3EA183068C2F80490AA
:1035BC002269EA50B9F1000F35D0247F4FF48E7197
:1035CC00FFF761FE4FF4A271FFF75DFE254BC0F8CB
:1035DC000433072C4FEA103A40F3073903D9224938
:1035EC006B2001F0DFFAB9F1000FB6BF1F4B09F1E8
:1035FC0060400AF00F0A4FEA4414E4B2AABF00F587
:10360C00614003F80A4080F800433368190B43F318
:10361C000733002B07DB012201F01F018A405B09F5
:10362C00134941F8232033680422C3F800252C23C6
:10363C0003FB08530022C3E9062283F829205A61B0
:10364C00012283F82A20384602B0BDE8F08708270B
:10365C00F9E71127F7E700BFCF900000741B00209B
:10366C0075330000800002009C90000014ED00E017
:10367C0000E100E02DE9F84303680679294D0022AA
:10368C00C3F800252C2202FB065204465268A2B154
:10369C00254AC3F80823190B43F30733002B0CDB23
:1036AC0001F01F015B0901228A4020331F4941F8B8
:1036BC002320BFF34F8FBFF36F8F2368D3F80C0514
:1036CC00D3F81495D3F80875D3F810854FF0FF3262
:1036DC009042C3F81425C3F80C25C3F80825C3F889
:1036EC00102501D0FFF70CFEB9F1FF3F02D0484680
:1036FC00FFF706FEB8F1FF3F02D04046FFF700FE91
:10370C007B1C02D03846FFF7FBFD2068FFF726FA3A
:10371C002C2303FB0655002385F82A306B60BDE88B
:10372C00F88300BF741B00208402020000E100E05B
:10373C000279044B2C2101FB02335869003818BF65
:10374C0001207047741B00202DE9F84F324E90F881
:10375C0004802C2303FB0863074693F82A30012BC3
:10376C008946934604D02D494FF48C7001F01AFA17
:10377C00B9F1000F04D1294940F2191001F012FAE5
:10378C00BBF1000F04D125494FF48D7001F00AFAFA
:10379C003846FFF7CDFF0446002838D12C2508FB0E
:1037AC00056A4FF48E71CAF814B0CAF80890CAF8BA
:1037BC0020008AF828003868FFF765FD0123836034
:1037CC005146FFF768FDDAF8043055460BBBDAF8C2
:1037DC0014402B6A9C4210D8D0F81C31002BFBD023
:1037EC000123C36000202C2303FB086600237361B4
:1037FC00BDE8F88F95F828303BB9D0F81C31002B78
:10380C00F8D05146FFF747FDE3E70F20EBE7112017
:10381C00EEE72046ECE700BF741B0020CF900000C1
:10382C000023435082B043580193019B02B0704770
:10383C000268530910B5044618D0012B40F2FF332F
:10384C0018BF002302F01F02D340DB0704D4094940
:10385C004FF4F67001F0A6F923681F2B83BF03F019
:10386C001F03054823604FF0A04010BD4FF0FF33FD
:10387C00E8E700BFD57B00000003005007B50190BE
:10388C0001A8FFF7D5FF019B03F5E073022240F876
:10389C00232003B05DF804FB1FB501238DF8003025
:1038AC00044BCDE90110D3E900126846904705B0EE
:1038BC005DF804FBA01B00207FB5434AD2F82461BD
:1038CC00002E60D010464FF49271FFF7A9FF02232F
:1038DC008DF80030D2F88034C2F880340393D2F8DB
:1038EC003C350293394BDA6801920022C3E9062277
:1038FC006846D3E9001290473348D0F8443173B18D
:10390C004FF4A271FFF78CFF304B9A693AB1002249
:10391C00C3E90622D968D0F83C05FFF7BDFF2A4859
:10392C00D0F82031ABB14FF49071FFF779FF012340
:10393C00C360264B5A6962B1D0F84C150291002233
:10394C0099688DF8002001915A616846D3E90012FC
:10395C0090471D48D0F858319BB14FF4AC71FFF72C
:10396C005FFF1A4B5A6962B1D0F84C1502910022D4
:10397C0099688DF8002001915A616846D3E90012CC
:10398C00904704B070BDD2F81031002BB4D04FF476
:10399C0088711046FFF744FF0C4BD2F83C0599692F
:1039AC008842A9D1DC69D96864B1D2F8005225F0FB
:1039BC002005C2F800521A699C61DA60DE61FFF7DB
:1039CC006BFF99E79C61FAE700200040A01B0020E8
:1039DC002DE9F347064691460C4619B96D49CF209F
:1039EC0001F0E0F896F804806B4D242303FB085398
:1039FC0093F82030002B40F0C88068493068FFF7FE
:103A0C008BF80746002840F0C28023685A1C13D05C
:103A1C0001A80193FFF70CFF019A01239340C0F812
:103A2C0008352368019301A8FFF702FF019B03F5FA
:103A3C00E073032240F823206368581C09D001A8C6
:103A4C000193FFF7F5FE019B03F5E073002240F8AC
:103A5C0023203368A269C3F82425217D627D0A43A3
:103A6C00C3F86C25D4E900200129C3F80C25C3F850
:103A7C0014052AD1A368591C09D001A80193FFF79A
:103A8C00D7FE019B03F5E073002240F82320E36886
:103A9C005A1C13D001A80193FFF7CAFE019A012307
:103AAC009340C0F80835E368019301A8FFF7C0FE06
:103ABC00019B03F5E073032240F82320D4E9022193
:103ACC003368C3F80815C3F81025242303FB08F347
:103ADC00EA183068C2F804902269EA50B9F1000F74
:103AEC0041D04FF48871247FFFF79AFE4FF4907108
:103AFC00FFF796FE4FF49271FFF792FE4FF4A2710E
:103B0C00FFF78EFE4FF4AC71FFF78AFE244BC0F822
:103B1C000433072C4FEA103A40F3073903D92149F3
:103B2C006B2001F03FF8B9F1000FB6BF1E4B09F145
:103B3C0060400AF00F0A4FEA4414E4B2AABF00F541
:103B4C00614003F80A4080F800433368190B43F3D3
:103B5C000733002B07DB012201F01F018A405B09B0
:103B6C00124941F8232033680822C3F80025242386
:103B7C0003FB08550023C5E906336B61012385F867
:103B8C002030384602B0BDE8F0870827F9E7112746
:103B9C00F7E700BF51910000A01B0020C5380000C2
:103BAC00100342009C90000014ED00E000E100E0E6
:103BBC002DE9F8433D4D06790468242303FB065395
:103BCC0002465B68ABB13A4BC4F8083344F3073395
:103BDC00002B4FEA14300CDB00F01F005B090121B5
:103BEC0081402033334840F82310BFF34F8FBFF38D
:103BFC006F8FD4F8003223F02003C4F80032242352
:103C0C0003FB06539B6933B14FF4A2712046FFF7B7
:103C1C0007FE012363604FF4AC712046FFF700FEF2
:103C2C000123E360242303FB0653D4F85811002925
:103C3C00FBD0996919B1D4F844110029F5D00023AF
:103C4C00C4F800351368D3F80C05D3F81495D3F8E1
:103C5C000875D3F810854FF0FF329042C3F80C254D
:103C6C00C3F81425C3F80825C3F8102501D0FFF7B5
:103C7C0005FEB9F1FF3F02D04846FFF7FFFDB8F152
:103C8C00FF3F02D04046FFF7F9FD7B1C02D03846BF
:103C9C00FFF7F4FD2046FEF761FF242303FB0655D6
:103CAC00002385F820306B60BDE8F883A01B002052
:103CBC001003420000E100E00279044B242101FBD7
:103CCC0002335869003818BF01207047A01B002030
:103CDC002DE9F047374F90F80490242303FB097328
:103CEC00064693F82030012B8846924604D0324980
:103CFC0040F2531000F056FFB8F1000F04D12E49DA
:103D0C004FF4AA7000F04EFFBAF1000F04D12A490B
:103D1C0040F2551000F046FF337913B9BAF5803FE5
:103D2C0004D325494FF4AB7000F03CFF08F060431E
:103D3C00B3F1005F38D13046FFF7BEFF04460028D0
:103D4C0034D12425326805FB09754FF49071104667
:103D5C00C5F814A0C5F80880FFF762FD4FF4AC71EC
:103D6C00FFF75EFD6B69A968C2F84415C2F84835C7
:103D7C00012393606B68DBB9D2F82031D2F858017B
:103D8C001BB90028F8D00F2007E00028FBD1012335
:103D9C00D360D2F85831002BFBD0242303FB0977D6
:103DAC0000237B61BDE8F0871020FBE71120F9E7C9
:103DBC002046F7E7A01B002051910000C30710B567
:103DCC0007D4F023054A4008145C234019431154CE
:103DDC0010BD0901C9B20F23F4E700BFD81B0020A6
:103DEC00034B044819680022490800F0DBBA00BFF5
:103DFC00C81B0020B004002038B50B4B1C780B4BB3
:103E0C00196800239C4206DC0949882000F0CAFE90
:103E1C000022104638BD11F83350854201EBC30225
:103E2C00F7D00133EEE700BFC41B0020F81B0020C5
:103E3C00D591000013B504460191FFF7DDFF38B1B1
:103E4C0043682BB10199204602B0BDE810401847D9
:103E5C0002B010BD10B5C0B2FFF7CEFF044600781B
:103E6C00FEF770FD63785A1E53425341834208D1CA
:103E7C00044AD2E90032134303D1BDE81040FFF7E6
:103E8C00AFBF10BDD01B002038B5344A43080446E0
:103E9C00D35CC2074CBF1B0903F00F030D46042B68
:103EAC005AD8DFE803F003222B373A00002953D00D
:103EBC000121FFF783FF002000F0EEFB0122A4F1AB
:103ECC002003C4F12000264922FA00F002FA03F381
:103EDC000343A240D1E9004014431843C1E9004018
:103EEC00BDE83840002000F0E7BB003918BF0121C5
:103EFC0049002046BDE83840FFF760BF41B10321BF
:103F0C00FFF75CFF20460121BDE83840FFF792BF68
:103F1C000121EEE701BB0421EBE709B10321E8E73E
:103F2C00FFF74CFF29462046FFF784FF284600F098
:103F3C00B3FB0122A4F12003C4F12000084922FAAA
:103F4C0000F002FA03F30343A240D1E9004024EA53
:103F5C00020420EA0300C1E738BD00BFD81B0020D3
:103F6C00D01B00202DE9F041124E134F0024337862
:103F7C00A34208DC114AD2E90032134318D0BDE841
:103F8C00F041FFF72DBF3D6805EBC40815F8340070
:103F9C00FEF7D8FC98F801305A1E53425341181AB8
:103FAC004142414115F83400FFF76EFF0134DEE762
:103FBC00BDE8F081C41B0020F81B0020D01B0020A2
:103FCC00092AF7B505460C4616463ED9FEF7BEFB48
:103FDC00E8B11F4B1F481D601F4B204F1C70204B1E
:103FEC00002120221E6003F05BF91E4B00200021F3
:103FFC00C3E90001013CE4B20326FF2C0DD11A4A9F
:10400C001A48002103B0BDE8F04000F0A9B9FEF752
:10401C0063FB0028DDD003B0F0BD9DF8063015F829
:10402C0034008DF8046005EBC40223F007038DF80F
:10403C00063001A993788DF805303A46FEF790FBCF
:10404C00013CE4B20028D8D0E5E70720E3E700BF45
:10405C00F81B0020D81B0020C41B0020613E000070
:10406C00C81B0020D01B0020713F00006492000090
:10407C0070B50B4D2B6823B90A4940F2351000F08E
:10408C0091FD094E00243378A34201D8002070BD65
:10409C002B68012113F83400FEF7F4FB0134F2E72E
:1040AC00F81B0020D5910000C41B002082B0012316
:1040BC008DF807309DF80730114B1860596044F2A9
:1040CC00010188429A6012D044F20201884206D162
:1040DC00DA60DA6812689A61DA685268DA6172B684
:1040EC009DF80730002BFBD162B602B070471A6105
:1040FC001A6992685A611A6912689A611A69ECE72E
:10410C00FC1B002000B583B002900091019244F298
:10411C00010071466A4600F003F803B000BD0000D0
:10412C00F0B5064687B00F46154672B601F006FE8E
:10413C0001F0F8FB0028FBD11E4B1F4CE41AE408DD
:10414C0044F2010324049E4244F0010417D044F2CB
:10415C0002039E4228D1D5E900321849204601F0CD
:10416C0040FD174BD3F8F030DB0700D500BE2A46D4
:10417C003946304607B0BDE8F040FFF797BFAA6854
:10418C000592104601F0DCF92968029701916968E3
:10419C0000910346059A0B49204601F046FD0A4959
:1041AC00204601F011FDDCE708493A46204601F0B3
:1041BC000FFDD6E70C7B00003C7B000068920000F2
:1041CC0000ED00E082920000A8920000BC9200007A
:1041DC0010B5D0E90242D1E90203A04293412CBFB1
:1041EC000120002010BD000008B50A4800F00BFCAF
:1041FC00094AD2E90031C018084BD3E9002341F138
:10420C000001904271EB030303D210F1807041F175
:10421C00000108BDD0040020201C0020981C0020A8
:10422C0037B505460C460A4801A900F0DAFC60B126
:10423C000570446001A9064800F0FDFC18B1054862
:10424C0000F0E6FB002003B030BD0420FBE700BF0C
:10425C00841C0020D0040020436970B504461BB9AF
:10426C002349A52000F09EFC224B1E7816B900268F
:10427C00304670BDFFF7B8FFD4E902239042994154
:10428C002FD3002000F008FA23692BB94FF0FF322E
:10429C004FF0FF33C4E90223002000F00DFAD4E9FB
:1042AC0005309847002000F0F7F925696DB1D4E985
:1042BC000212B2F1FF3F08BFB1F1FF3F0FD06918F6
:1042CC0042F10002C4E902123546002000F0F4F974
:1042DC00002DCCD00848214601F0C0F8C8E70025D5
:1042EC00F3E7B3F1FF3F08BFB2F1FF3FBFD0F1E7F7
:1042FC00D4920000281C00206493000013B5114BCD
:10430C0011491868019008231048582200F056FCF7
:10431C00044698B90E4A0F4801A900F015FA044654
:10432C0060B90C48012100F055FB01230A4A0948E9
:10433C00194600F0A7FA094B01221A70204602B068
:10434C0010BD00BF5E9300002C1C0020841C0020BC
:10435C0075440000D0040020FFFF7F00281C0020C3
:10436C0070B50C461546064620B90D4940F25A2048
:10437C0000F018FC35B940F25B20094900F012FC42
:10438C00072070BD621E336854424FF0FF304FF06F
:10439C00FF315441C3E902015D611C610020F0E76B
:1043AC00D4920000F8B50D461746044620B91549BD
:1043BC0040F26B2000F0F6FB002000F06DF9D4E920
:1043CC000223B3F1FF3F08BFB2F1FF3F15D1FFF756
:1043DC000BFF281841F10001C4E90201012600205D
:1043EC0000F06AF95EB12369A76103B1256121462A
:1043FC000020BDE8F840FFF713BF0026EFE730467A
:10440C00F8BD00BFD492000038B5044620B912495B
:10441C0040F2932000F0C6FB002000F03DF9D4E9F7
:10442C000223B3F1FF3F08BFB2F1FF3F1FBF4FF0B4
:10443C00FF324FF0FF33C4E90223012508BF0025EA
:10444C00002000F039F92DB121460120BDE838409B
:10445C00FFF7E6BE284638BDD4920000014800F0B4
:10446C00D2BA00BFD00400202DE9F743044600F077
:10447C00B5FA40B16F4AD2E9003113F1807341F1C2
:10448C000001C2E900310021204600F0B1FAD0B1A0
:10449C00694E3368BBB1204600F0B5FA00210546E1
:1044AC00204600F0AAFA281A20F07F40B0F5960FAB
:1044BC0004D3624940F2411000F074FB3068FFF7FE
:1044CC00CBFE002333600121204600F091FA20B18D
:1044DC00FFF78AFE5A4BC3E900015A48564D01A911
:1044EC0000F0B9FB4FF0FF364FF0FF37A0B9DFF803
:1044FC005881514E404600F0DDFF002800F08B80C3
:10450C00D0E90223B3F1FF3F08BFB2F1FF3F33D133
:10451C00404600F0BFFFEDE70378012B21D0022BC2
:10452C0009D1DFF82481404600F0B4FF00287CD08C
:10453C00C0E90267F7E75BB94168D1E90223B3F13F
:10454C00FF3F08BFB2F1FF3F02D03F4800F086FFAB
:10455C0001A93C4800F0AAFB01A93A4800F07BFBFA
:10456C00C4E741682B68994202D100232B60EFE726
:10457C00354800F0ABFFEBE7316891B13168D1E918
:10458C00020182428B412FD23368D3E90223B3F16B
:10459C00FF3F08BFB2F1FF3F03D03168404600F047
:1045AC005DFF404600F076FFD0E902590746FFF761
:1045BC001BFE281A69EB0101012871F1000918DBB7
:1045CC00B0F5350F13D3FFF749FF204A02442048BA
:1045DC004FF49603002100F07FF9A0B9336813B9AA
:1045EC00204600F033F9376003B0BDE8F0832A466B
:1045FC00EDE71748002100F0F5F93846FFF72CFEDF
:10460C000023336076E70D28F7D00C494FF4867001
:10461C0000F0C8FAF4E7084B1B68002BE4D12046E5
:10462C0003B0BDE8F04300F01FB90A4B01221A7029
:10463C008EE700BF201C0020A01C0020D49200009C
:10464C00981C0020841C002064930000FFFFB40021
:10465C00D0040020281C002072B6024A13680133D3
:10466C0013607047A41C0020034A1368013B1360BD
:10467C0003B962B6704700BFA41C0020EFF305839A
:10468C00C3F308032BB9EFF31480C04300F001000F
:10469C00704701207047000008B5FFF7EFFF0128B5
:1046AC0003D00449432000F07DFABDE80840FFF731
:1046BC00D3BF00BF7093000008B5FFF7DFFF0128E0
:1046CC0003D00449512000F06DFABDE80840FFF713
:1046DC00CBBF00BF7093000038B50C46054618B927
:1046EC000449B32000F05EFA2B68C3F84843C3F8C2
:1046FC00084338BDF693000070B50C4616460546C7
:10470C0018B90549A92000F04DFA2B68C3F84443A9
:10471C000EB1C3F8044370BDF693000037B50C46D8
:10472C00054618B90749BA2000F03CFA2B6818590D
:10473C0028B100221A511B590193019B012003B08F
:10474C0030BD00BFF69300002DE9F8430F46154627
:10475C00044618B93249552000F024FA1FB93049E3
:10476C00562000F01FFA1DB92D49572000F01AFAF7
:10477C0063792C4ADFF8D08042F823502A4E2B4A1A
:10478C0008EBC303B61A1B79F60836043BB146F0A6
:10479C000200274901F018FA0820BDE8F8833D888B
:1047AC00D4F80090B5F5805F04D322494FF4BE7065
:1047BC0000F0F8F9C9F80855BF7894F90450072FA0
:1047CC0003D91D496B2000F0EDF9002DB6BF1B4B32
:1047DC0005F1604505F00F054FEA4717FFB2AABF78
:1047EC0005F561455F5585F8007394F90430002B8D
:1047FC0008DB0122590903F01F0302FA03F3104AE4
:10480C0042F82130637908EBC3020121117146F0A3
:10481C0003000C4948F8334001F0D6F90020BCE7FE
:10482C00F6930000B01C00204C7B00000C7B0000B9
:10483C0073940000959400009C90000014ED00E02F
:10484C0000E100E0C2940000A81C002010B5044652
:10485C0018B90449872000F0A5F9236801221A60D1
:10486C0010BD00BFF693000010B5044618B90449FA
:10487C008D2000F097F9236801225A6010BD00BF0B
:10488C00F6930000F7B50C4615461E46074618B9B8
:10489C001049962000F086F925F07F4204F150056E
:1048AC00AD003868ADB24FF48031A1400023C0F8A0
:1048BC000813C0F84813435104F5A87443590193E5
:1048CC00019B40F82420C0F844130EB1C0F8041327
:1048DC0003B0F0BDF69300002DE9F74F0D461446DA
:1048EC009846074618B93949CD2000F05BF94FF4CA
:1048FC00803909FA05F949463846FFF7EDFE3A6862
:10490C0005F1500602EB8500B600B6B2D2F80415DC
:10491C00D0F84035C0F840154FF0000B42F806B007
:10492C005B1A9259009223F07F43012B009A24F0DA
:10493C007F444FEA850A0BD1254B4FF4806043F03E
:10494C00010398473B6843F806B09B590193019BC0
:10495C003B68D3F80465C3F84493A21B22F07F4252
:10496C00012A1AD105F5A875013443F82540184BD6
:10497C004FF4806043F0010398473B68D3F804354B
:10498C009E4208D1384601224946FFF7B5FE002069
:10499C0003B0BDE8F08F0D20FAE703EB0A01621EAD
:1049AC00C1F84045D3F80405C8F1FF18121A22F0DB
:1049BC007F4208F57F489045EDD3002AE2D10134BF
:1049CC00C1F84045D3F804359842DAE7F693000075
:1049DC00E09400000A460221FFF78EBE4FF482716C
:1049EC00FFF79CBE4FF4803303FA01F1FFF774BE5E
:1049FC005031890089B2FFF791BE036801F5A871A7
:104A0C0053F8210070470368D3F804057047000081
:104A1C0090F90430002B09DB5A09012103F01F0324
:104A2C00994002F14003024A42F82310704700BF3C
:104A3C0000E100E0024B034A1B681068184700BFF6
:104A4C00B01C0020A81C00201EF0040F1CBFEFF3AC
:104A5C0009800AE0EFF308800549064A884201D82C
:104A6C00904202D88D464FF00000034B18470000CF
:104A7C000000012000E00020AD4A0000BFF34F8F82
:104A8C000549064BCA6802F4E0621343CB60BFF3DE
:104A9C004F8F00BFFDE700BF00ED00E00400FA05FA
:104AAC002DE9F347054601F049F900F03BFF0028DA
:104ABC00FBD1304B304C9F6A304BE41AE408240491
:104ACC0044F00104002D4FD0AA692D49204601F075
:104ADC007FF8EB680193AB682A4900932046D5E92F
:104AEC00002301F094F8EB6900932749D5E90423DE
:104AFC00204601F080F81F4BDB6A990703D5234948
:104B0C00204601F061F8DFF89490DFF894A00026BD
:104B1C004FF0010808FA06F33B4206D059F826205C
:104B2C001AB15146204601F053F801361A2EF1D134
:104B3C003A0605D50F4B16495A6B204601F048F83A
:104B4C0017F4004F0B4E04D0B26B1249204601F003
:104B5C003FF8D6F8F030DB0700D500BE2846FFF74B
:104B6C008DFF02B0BDE8F0870B49204601F02CF810
:104B7C00C1E700BF00ED00E0547B00000C7B00009F
:104B8C00E6940000FB940000309500008B9500002B
:104B9C00DA950000FA95000058950000D49A0000B0
:104BAC00CF95000007B5CDE900016A46002144F21B
:104BBC000200FFF7B5FA03B05DF804FB10B561B164
:104BCC00B2FBF3F403FB1424A4B244B9C0E90014FF
:104BDC0084608281C381204610BD0E20FCE7092031
:104BEC00FAE737B550E8013F9DB2C4892544848962
:104BFC00A54228BF2D1B0489A54202BFBFF32F8FEE
:104C0C00002207E0C5EA030540E80154002CE9D175
:104C1C004FF001028DF803200193019A0A609DF870
:104C2C00031001F0FF0321B1006810FA82F003B009
:104C3C0030BD1846FBE70A884B889A4209D150E8E8
:104C4C00012FC2EA024240E80123002BF7D10120D8
:104C5C0070470020704737B550E8023F1FFAA3F5A4
:104C6C00C488A54202BFBFF32F8F00220DE0C48978
:104C7C0025448489A54228BF2D1BC3EA054540E87D
:104C8C000254002CE8D14FF001028DF8032001935F
:104C9C00019A0A609DF8031001F0FF0321B100682E
:104CAC0000EB124003B030BD1846FBE70A884B8876
:104CBC009A4209D150E8022FC2EA224240E802236C
:104CCC00002BF7D1012070470020704710B5034628
:104CDC0053E8000F0A4643E8002494F0000FF7D184
:104CEC0010BD10B5034653E8002F42EA010043E81B
:104CFC00000494F0000FF6D110BD10B5034653E834
:104D0C00000F00EA010243E8002494F0000FF6D1F2
:104D1C0010BD10B5034653E8002F02EB010043E829
:104D2C00000494F0000FF6D110BD10B5034653E803
:104D3C00002FA2EB010043E8000494F0000FF6D121
:104D4C0010BD0121FFF7CDBF0021FFF7D6BF00003A
:104D5C0010B50446002834D003681BB91A49FF204B
:104D6C00FFF720FF636823B917494FF48070FFF7F2
:104D7C0019FFA36823B9144940F20110FFF712FF81
:104D8C00E36823B910494FF48170FFF70BFF238AB6
:104D9C0023B90D4940F20310FFF704FFD4E90123B6
:104DAC0021689B1ADBB20A60013BDBB2FF2B226845
:104DBC0002D10020107110BD1168481C10600B70DE
:104DCC00F2E70E20F7E700BF3C9B000038B5044625
:104DDC0020B911494FF49270FFF7E4FE0020FFF761
:104DEC005BFC2268616813688B4213D9591E1160F1
:104DFC0013F8013C208AE56800FB0355A3685B1A95
:104E0C001179DBB2994200D213710020FFF754FCE8
:104E1C00284638BD0025F8E73C9B000038B50C4609
:104E2C00054620B90E4940F24710FFF7BBFE24B9E6
:104E3C000B494FF4A470FFF7B5FE0020FFF72CFCD4
:104E4C002A681368591C1160EA68A41A2A8AB4FBF0
:104E5C00F2F41C70BDE838400020FFF72DBC00BFF9
:104E6C003C9B000010B5044618B906493120FFF7E9
:104E7C0099FEA2682AB163692168206998470023CA
:104E8C00A36010BDBD9B00000EB433B5059D044658
:104E9C0018B911494220FFF785FE63691BB90E4909
:104EAC004320FFF77FFE23681BB90B494420FFF713
:104EBC0079FE63681BB908494520FFF773FE35B1CD
:104ECC0006AB01AA29462046019300F079F802B0FE
:104EDC00BDE8304003B07047BD9B00000A2938B5CF
:104EEC0004460D4602D10D21FFF7F8FFA368226896
:104EFC00591CA160D554D4E901329A4204D32046FE
:104F0C00BDE83840FFF7AEBF38BD00002DE9F84FC3
:104F1C009846DDE90A43154682460F460A464FF08D
:104F2C000109AA420FD2C14538BFC14613F0010B8B
:104F3C0001D16CB900240126B8F1010F1BD908F17D
:104F4C00FF386E43F8E709F10109B2FBF5F2E8E727
:104F5C009B070ED5B8F1000F0CBF30262026A145BB
:104F6C00E9D2013C31465046FFF7B8FF002CF6D190
:104F7C00E0E72026F3E7B7FBF6F39D42E1D9DFF833
:104F8C003C80B7FBF6F3504618F8031006FB13777A
:104F9C00FFF7A4FF3346AB42B6FBF5F6F1D2BBF1FB
:104FAC00000F02D00CB1A14501D3BDE8F88F202130
:104FBC005046013CFFF792FFF4E700BFB29C0000A3
:104FCC002DE9F74F88461746054620B9AF4940F200
:104FDC005220FFF7E7FD6B6923B9AC494FF415700C
:104FEC00FFF7E0FD2B6823B9A84940F25520FFF7E5
:104FFC00D9FD6B6823B9A54940F25620FFF7D2FDC5
:10500C00B8F1000F00F03E8118F8011B49B92B7B59
:10501C00002B00F03781284603B0BDE8F04FFFF7B6
:10502C0021BF252940F0B780002698F800302D2BA1
:10503C00424608F1010823D0302B24D02B2B25D04D
:10504C0000242A2B02F1010123D13B681A1D1B6895
:10505C003A601C440A4613782E2B26D101324FF0AD
:10506C00000A104610F8011BA1F1300CBCF1090F1D
:10507C001DD80A2303FB0A11A1F1300A0246F0E7FE
:10508C0046F00106D1E746F00206CEE746F00406EC
:10509C00CBE711F8013CA3F130000928DBD80A2238
:1050AC0002FB0434303C0A46CBE74FF0000A12F8FE
:1050BC00011B01F0FB0068289046F8D0782909D82C
:1050CC006F290CD8632962D022D8252963D058299E
:1050DC0000F0888098F80030002B95D197E7703954
:1050EC000829F7D801A252F821F000BF6B5200003A
:1050FC00E1500000E150000001520000E1500000BE
:10510C00DF510000E1500000E1500000F1510000BF
:10511C00642901D06929DDD13A68D2F80090111DBB
:10512C0089EAE9723960A2EBE9724FF0010B092AA6
:10513C0035DCD34538BFD3462CB1B9F1000F01DBB8
:10514C00720700D5013CB30702D5BAF1000F03D0AA
:10515C00F00701D44CBB0024B9F1000F2DDAC9F1D2
:10516C0000092D212846FFF7B9FE06F00302022A9A
:10517C0004D1BAF1000F01D11CBB0024CDE90046CB
:10518C0053460A2249462846FFF7C0FEA2E73B6871
:10519C001A1D19783A602846FFF7A0FE9AE70A23F1
:1051AC000BF1010BB2FBF3F2C1E7A345D4D22021E2
:1051BC002846013CFFF792FECCE77107D5D52B2191
:1051CC00D0E7A345DAD230212846013CFFF786FE12
:1051DC00D2E73968CDE900460A1D3A6053460A22E7
:1051EC000968D0E739680A1D3A60CDE90046534694
:1051FC001022F5E73B681A1D3A6016F00106D3F849
:10520C00009024D1B9F1000F03D0484601F0E2FF21
:10521C000646B4421DD809F1FF3919F8011F0029BF
:10522C003FF458AF2846FFF759FEF6E728460136FB
:10523C00FFF754FE19F806100029F7D1A642BFF467
:10524C0049AF20212846013CFFF748FEF6E700262F
:10525C00F0E720212846013CFFF740FED9E73B68E8
:10526C001A1D3A60302128461C68FFF737FE78215A
:10527C002846FFF733FE00220823CDE900322146F1
:10528C00102280E703B0BDE8F08F00BF349C000013
:10529C002DE9F74F99469DF8303000938846934698
:1052AC00064618B92349B620FFF77CFCF2887179C1
:1052BC004A43043A4A4505D81E490192C420FFF7D7
:1052CC0071FC019ADBF80070B6F806A007EB090137
:1052DC00914209F1040488BFA2EB0907B4FBFAF56B
:1052EC00CBF800700AFB154445B9AAEB040BBB457F
:1052FC0028BFBB462FB903B0BDE8F08F3668013D1F
:10530C00F2E7009B043408EB050034445A466BB1B9
:10531C002146A7EB0B0701F08DFFBA455D443668BB
:10532C00D3464FF0000428BFBB46E3E701462046B6
:10533C00EFE700BFC29C0000FFF70ABDF8B5467945
:10534C000146721E0546002393422D6803D30024A8
:10535C00A64202D8F8BD0133F6E70F682846FFF7DE
:10536C005DFD01343946F3E72DE9F843068ACD1C7F
:10537C000746FFF72BFD043E35440446B5FBF6F516
:10538C00F0B14FF48073EDB28380C680013D0760AD
:10539C0081464FF00008A84512D23846FFF716FD9B
:1053AC00064648B163790133637108F10108C9F805
:1053BC00000007608146EEE72046FFF7BFFF34464A
:1053CC002046BDE8F88301210430FFF7A2BC10B5DC
:1053DC00012104460430FFF7A8FCC0B220B92046D6
:1053EC00BDE81040FFF7AABF10BD00001FB5144662
:1053FC0003920022009203AAFFF74AFF039BA342E9
:10540C0006D00449F62004B0BDE81040FFF7CABB33
:10541C0004B010BDC29C00001FB5144603920122BB
:10542C00009203AAFFF734FF039BA34207D0054960
:10543C004FF4807004B0BDE81040FFF7B3BB04B06C
:10544C0010BD00BFC29C0000836800225A60C3E9F3
:10545C0004229A60DA601A607047000070B50C463E
:10546C00064618B90A493A20FFF79CFB1CB90849B3
:10547C003B20FFF797FB7568286818B1B368214685
:10548C00984718B92B6823602C6070BD2D68F3E722
:10549C00439D000010B5044618B905495120FFF78B
:1054AC0081FB6368186808B102681A6010BD00BF00
:1054BC00439D000010B5044618B903495D20FFF761
:1054CC0071FB6368186810BD439D000038B50C462D
:1054DC00054618B90A496920FFF764FB1CB908494D
:1054EC006A20FFF75FFB6B68186820B1A04203D1FC
:1054FC0002681A60012038BD03460068F5E700BF5A
:10550C00439D000010B50D49A1F58C72914201D854
:10551C0000200FE08C1AE30F03EBE4035B1002EBAB
:10552C00C30452F83330834205D802D204F1080286
:10553C00ECE7606810BD2146E8E700BF7CA20000E4
:10554C0008B5FFF7DFFF024B002808BF184608BD5F
:10555C004EA10000F0B595B01D46164608460C4607
:10556C00FFF731FF1A9B0D93CDE9086500252B46FB
:10557C00082205A920460A958DF82C500C95FFF7AA
:10558C004BFF079B0293069B03939DF814308DF8F9
:10559C00115003F00302012A1DD1BDF81420059D02
:1055AC00C3F3C203C2F383168DF81030B200082384
:1055BC000EA92046FFF730FFC5F3952508AB0093E5
:1055CC00324602AB0EA9284600F02CFC2046FFF711
:1055DC00FEFE15B0F0BD022AF8D1BDF81650C3F38B
:1055EC00C203C5F389158DF810300827082D2E46F7
:1055FC0028BF08263B4632460EA92046FFF70CFF73
:10560C00AD1B08AB02AA31460EA8374400F06EFC65
:10561C00002DEBD1DAE7704707B5044B0093044A31
:10562C004023FFF797FF03B05DF804FB8956000099
:10563C00B51C002030B50D4D0FCD89B06C460FC494
:10564C0095E80F0084E80F001D2309480093002201
:10565C006946FCF7A5FF18B1064A4321FEF752FD37
:10566C00054B00221A7009B030BD00BF08A3000022
:10567C00D80400207CA20000B41C002038B50E48D1
:10568C000E4C0F4D002323700378EB5CD2B273B138
:10569C000430FEF71DFB18B10A4A5321FEF732FD08
:1056AC00094B1A7812B12378002BFBD038BD0C3083
:1056BC00FEF74AF8EFE700BFD8040020F51C0020E5
:1056CC00C41A00207CA20000B41C002008B50848B5
:1056DC00084A0378D35C33B10430FEF769FABDE8AD
:1056EC000840FFF7A7BF0C30FDF7C4FFF7E700BF7A
:1056FC00D8040020C41A0020FFF79CBF08B5FFF7A0
:10570C00FBFF0748042100F0F7FA002803DA0549EB
:10571C004820FFF747FA044B01225A7108BD00BF1D
:10572C009C7B000034A30000EC040020027812F0F3
:10573C00040316D002F00303012B03D0022B09D073
:10574C00012070470A6800880232C0F383100244BB
:10575C000A60F5E70B684288023303EB92130B6087
:10576C00EEE71846704700002DE9F04F434C884691
:10577C0085B00546871C00201646FEF78DFF626833
:10578C00C8F80020A36803F580739B1A04F21C4828
:10579C0004F5836A04F21449BB4217D30021002E8E
:1057AC0067D005F00F05AD0145F0050565F30F0158
:1057BC006368DAB203323B44002044F82210636081
:1057CC00FEF77AFF012005B0BDE8F08F01214046BD
:1057DC00FFF79FFA5046FFF7B4FA4846FFF7B1FAC5
:1057EC00A0680090C0B2033004EB80006946FFF75C
:1057FC009DFF8346C0B9009BDAB204EB8202D168EC
:10580C0001919A1C0133DBB204EB83030092D8683C
:10581C0001F00303012B24D0022B08D018494FF4BC
:10582C00C270FFF7BFF90CE09DF80000DBE7BDF894
:10583C000630C3F3891303334FEA104B02EB930387
:10584C0000934846FFF780FA08B1009BA3605946C5
:10585C004046FFF75EFAA368626803F580739B1AF3
:10586C009AE7BDF80430C3F383134FEA104B13448B
:10587C00E6E7AD0545F006019AE700BFC81D00201C
:10588C00D5A30000064B074810B501221A70FFF78C
:10589C0053FD044610B90448FFF7D6FD204610BD51
:1058AC00C81D0020AC7B000074A4000030B50A4C6D
:1058BC0071B10A4A0A49121BD20800239A4201D13B
:1058CC00002030BD31F82350854202D00133F5E77A
:1058DC00034654F83300F4E70C7B00009C7B00007B
:1058EC0000000020094B013903EBC000032909D843
:1058FC00DFE801F00A0204060420704700797047C3
:10590C004079704700207047022070470C7B0000E4
:10591C00034BD3E90130C31A58425841704700BFBA
:10592C00C81D00202DE9F04385B0FFF7F1FF0546B7
:10593C00002840F0E280724CC4F81804BFF34F8F7B
:10594C00A3680093DBB2033304EB83006946FFF7D3
:10595C00EDFE009B18B1D4F81824002A5CD0DAB202
:10596C009F1C013304EB8202DBB204EB8303D2688D
:10597C00DB68029302F00303022B0192009756D1CD
:10598C00BDF806305F48C3F389184646502E28BF31
:10599C00502666F38F1306F10801ADF80630FFF7B9
:1059AC00E3FC0546002800F09380FFF70CFD002374
:1059BC0001A908222846FFF719FDFB43DBB201338E
:1059CC00F9B20331B6EB830F4FEA830904EB810183
:1059DC002AD908234A46A6EB09062846FFF706FDF6
:1059EC00F6B2494909F10803324608F10308284682
:1059FC0007EB9807FFF7FAFC0097D4F81834D4F8A3
:105A0C001064002B53D02846FFF7E1FCFFF780FF12
:105A1C0080F00100C5B203E062689A4292D8A2609D
:105A2C00284605B0BDE8F08308233246DDE7012B9C
:105A3C004ED1BDF804303348C3F38311062928BF77
:105A4C00062161F38913023101F00F018900ADF8D1
:105A5C000430FFF789FC0546002839D0FFF7B3FC6A
:105A6C000023082201A92846FFF7C0FC0026BDF838
:105A7C000420C2F38312B300964203F10803BCD294
:105A8C0000994A1CC9B20331009204EB8101042233
:105A9C002846FFF7ABFC0136E9E7F3685B7923B1E5
:105AAC00336829461B6830469847F3681E68002EF9
:105ABC00F3D12846FFF78BFC3046FEF7EDFDD4F80A
:105ACC0018340BB9009BA3600020FEF7F5FD9DE791
