:1000000000000120010200005D020000214C000000
:1000100061020000630200006502000000000000B1
:100020000000000000000000000000006702000067
:1000300069020000000000006B0200006D02000079
:100040006F0200006F020000052C0000F12F00007D
:100050006F0200006F020000812A00006F020000A2
:100060006F0200006F0200006F0200006F020000CC
:100070006F0200006F0200006F0200006F020000BC
:100080006F0200000D4C00006F0200006F020000C4
:100090006F0200006F020000A17200006F020000FA
:1000A0006F0200006F0200006F0200006F0200008C
:1000B0006F0200006F02000000000000000000005E
:1000C0006F0200006F0200006F0200006F0200006C
:1000D0006F0200006F0200006F0200006F0200005C
:1000E0006F0200000000000000000000000000009F
:1000F000000000006F020000000000006F0200001E
:1001000000000000000000000000000000000000EF
:1001100000000000000000000000000000000000DF
:1001200000000000000000000000000000000000CF
:1001300000000000000000000000000000000000BF
:1001400000000000000000000000000000000000AF
:10015000000000000000000000000000000000009F
:10016000000000000000000000000000000000008F
:10017000000000000000000000000000000000007F
:10018000000000000000000000000000000000006F
:10019000000000000000000000000000000000005F
:1001A000000000000000000000000000000000004F
:1001B000000000000000000000000000000000003F
:1001C000000000000000000000000000000000002F
:1001D000000000000000000000000000000000001F
:1001E000000000000000000000000000000000000F
:1001F00000000000000000000000000000000000FF
:1002000000F036B80F484FF00701884385460E4886
:1002100080470E48016841F470010160BFF34F8FC1
:10022000BFF36F8F00F026B809480A490A4A88428E
:1002300007D0521A05D0037801300B700131013A12
:10024000F9D17047000001207D13000088ED00E027
:10025000708000000000002000000020FEE7FEE7A4
:10026000FEE7FEE7FEE7FEE7FEE7FEE7FEE7FEE766
:10027000FFF7C8BF344935480A1A02D00722914314
:100280008D46334933480A1A06D00722914381F339
:100290000988022282F314882F483049304A00F03E
:1002A00041F830483049314A00F03CF83048314993
:1002B000314A00F037F831483149324A00F032F81B
:1002C00031483249324A00F02DF832483249334A37
:1002D00000F028F832483349334A00F023F8334815
:1002E0003349002200F029F832483349002200F057
:1002F00024F832483249091A07F03EFE314A904745
:100300001F482049884205D00268043003B4904752
:1003100003BCF7E700208646EC46002000212A4A6D
:100320009047FEE7884207D0521A05D00378013083
:100330000B700131013AF9D17047884202D0027046
:100340000130FAE7704700000000012000E00020C3
:10035000000001200000012024B500000000002062
:1003600014050020CC030000CC0300008C7F0000AB
:1003700024B5000000000020000000207080000074
:1003800070800000708000007080000070800000AD
:1003900070800000708000007080000024B50000B4
:1003A00038BA0000140500201405002014050020B0
:1003B000AC280020AC280020AC280020AC2800206D
:0C03C000AC4800202902000041100000A1
:1003CC007FDF70478FDF7047B1DF704769DF7047A1
:1003DC000388212B07B51BD0522B0FD0132B24D104
:1003EC00002380881A468521FFF7EAFFE8B1104AFE
:1003FC00F32103B05DF804EB03F024BF00238088E5
:10040C001A461946FFF7E0FF78B1094AF921F0E7DF
:10041C0000238088ADF8043001A9FFF7D3FF20B189
:10042C00034A40F20D1103F00DFF03B05DF804FB1D
:10043C007080000037B50024032501F06BFECDE978
:10044C000045012349221821062001F099FF1821AB
:10045C000846CDE900450123442201F091FFCDE986
:10046C00004501234C2218212A2001F089FFCDE9F7
:10047C0000450123452218213C2001F081FF03B0E7
:10048C00BDE8304001F0F8BD2DE9F04385B0012501
:10049C0001F040FE002406212B460846CDE900451C
:1004AC00432201F06DFF2B46CDE900456F2206215A
:1004BC000C2001F065FF2B46CDE900457522062185
:1004CC00122001F05DFF2B46CDE900456E2206217E
:1004DC00182001F055FF2B46CDE90045742206216A
:1004EC001E2001F04DFF104B104A5B68052102A83D
:1004FC0007F003FA02AD074618264FF00308A14691
:10050C00A74204DC01F0B8FD05B0BDE8F083CDE9ED
:10051C00009830B215F8012B01231821123601F086
:10052C002FFF0134B6B2EBE7E40500208581000013
:10053C0010B50446084806F035FF2378022B05D188
:10054C00FFF7A2FF054B03221A7010BD042BFCD140
:10055C00BDE81040FFF76EBFED80000007060020DD
:10056C002DE9F043002485B0032701F0D3FD0123CE
:10057C00532218210620CDE9004701F001FF182174
:10058C00084601235022CDE9004701F0F9FE012372
:10059C004B2218212A20CDE9004701F0F1FE0F4B28
:1005AC000F4A1B78052102A807F0A7F902AD804677
:1005BC004A26A146A04504DC01F05EFD05B0BDE86D
:1005CC00F083CDE9009730B215F8012B01231821E7
:1005DC00123601F0D5FE0134B6B2EBE7F805002077
:1005EC00858100000268530910B5044618D0012B10
:1005FC0040F2FF3318BF002302F01F02D340DB0789
:10060C0004D409494FF4F67004F0B2FB23681F2B95
:10061C0083BF03F01F03054823604FF0A04010BDBB
:10062C004FF0FF33E8E700BF0281000000030050E9
:10063C0010B50F480F4C03F0A7FF0F4B0F48226863
:10064C000F49C01AC008000440F0030005F0EAFB93
:10065C002368013323600B4B1B783BB1BDE8104082
:10066C000348002240F2666103F058BF10BD00BF82
:10067C002800002014050020B87F0000E87F00004F
:10068C0030810000E00500202DE9F043AD4BAE4E6B
:10069C00AE4FF61AF608360446F0030502468DB046
:1006AC00804689462846AA4905F0BCFBA94807F0B4
:1006BC0086F93A78A849284605F0B4FB05F058FAB3
:1006CC000028FBD1A54C23786BB9A54806F06AFE2F
:1006DC00A349284605F0A2FB05F04AFA0028FBD1F5
:1006EC000DB0BDE8F083B9F1010F00F0E2809D4937
:1006FC00284605F093FB05F03BFA0028FBD1637804
:10070C0099496268284605F096FB636861781BBAC4
:10071C00563103934901042303A88DF82C3001F0C2
:10072C0023FA20B1914A40F22B5103F08BFDB8F122
:10073C00140FD5D18E4E8F493268284605F072FBC6
:10074C003368092B00F2A98097F80090B9F1010FDA
:10075C0040F09680DFF83482874998F800202846CC
:10076C0005F060FB98F800106170563100230422EC
:10077C00490103A884F80090636001F09BFA20B152
:10078C007A4A40F2CE2103F05DFD7C49284605F003
:10079C0045FB042203A9284605F082FB9DF80D2099
:1007AC009DF80C3013409DF80E2013409DF80F203F
:1007BC001340FF2B60D17249284605F02FFB98F8A7
:1007CC0000100023563103934901042303A88DF82C
:1007DC002C3001F0C9F91F2302A80293FFF702FF86
:1007EC00029B012404FA03F3C0F80C3501F092FCCF
:1007FC0000254FF003081821084623465322CDE963
:10080C00005801F0BDFD2346542218212A20CDE9C1
:10081C00005801F0B5FD2346412218213C20CDE9BA
:10082C00005801F0ADFD2346522218214E20CDE98F
:10083C00005801F0A5FD2346542218216020CDE973
:10084C00005801F09DFD01F017FC02233F4A4D4872
:10085C003B704FF4004103F061FE20B1434A40F27B
:10086C00E62103F0EFFC05F083F90028FBD1464AA2
:10087C0000233360137033E7039B1BBA6360AAE752
:10088C00B9F1030FF3D10023637063603F4B012474
:10089C001C70FFF765FE3C70E9E73D4A0023C4F885
:1008AC00093023805360138123726360FFF7C2FD0C
:1008BC00DDE73F78012F75D13649284605F0AEFAB1
:1008CC0005F056F902460028FAD1B8F1140F2DD0D4
:1008DC00B8F11A0F18D0B8F10F0F7FF401AF2B4AF3
:1008EC002D4913780A2B1CBF0133DFB21770284631
:1008FC003A4605F097FA05F03BF90028FBD10DB00C
:10090C00BDE8F043FFF72CBE204B24491A78012A8E
:10091C001ABF02F1FF32D2B20A2228461A7005F031
:10092C0081FA05F025F90028FBD1E8E7164B1C48A5
:10093C000121197040F266610DB0BDE8F04303F07F
:10094C00EDBD00BFB87F0000E87F00000706002067
:10095C005E81000088810000A4810000E405002075
:10096C00B7810000D6810000ED810000708000008E
:10097C0014050020168200002E8200003E8200002A
:10098C004982000048000020E0050020F805002006
:10099C00ED0500209E820000D0820000EE82000057
:1009AC0028000020032F7FF49BAE4249284605F017
:1009BC0035FA05F0DDF80028FBD10423B8F1140F4B
:1009CC008DF82C3055D0B8F11A0F2BD0B8F10F0F81
:1009DC007FF486AE6368384901332846636005F0BE
:1009EC001DFA62683549284605F01CFAFFF74CFDE4
:1009FC006178636856311BBA490103A8039301F06F
:100A0C00B3F8044600283FF46BAE2D4A2D4946F04E
:100A1C00010005F007FA2C4A4FF45071204603F000
:100A2C0011FC5DE6294806F0BDFC616819B928483F
:100A3C0006F0B8FC54E601392648616006F0BFFFA9
:100A4C00FFF722FD6178636856311BBA490103A890
:100A5C00039301F089F8044600283FF441AE184A8C
:100A6C00184946F0010005F0DDF9174A40F25731FC
:100A7C00D4E7194B617801221A70636856311BBA9E
:100A8C00490103A8039301F06FF8044658B10C4ACE
:100A9C000C4946F0010005F0C5F90B4A40F26531EE
:100AAC00204603F0CFFB002240F266610B4803F0B6
:100ABC0035FD15E69E8200000E8300001A830000AF
:100ACC00BC8800003083000070800000628300004E
:100ADC006F8300008C830000E005002028000020BC
:100AEC007FB54FF48041002004F0F2FF20B1574A4B
:100AFC004FF48F7103F0A6FB04F022FF544C554BBE
:100B0C005549E41AE408240444F003040322204663
:100B1C0005F088F90321514806F051FF504840F286
:100B2C006662032103F0ECFA20B1484A40F2973197
:100B3C0003F088FB4B49204605F070F9494806F054
:100B4C0031FC03F035FB20B1404A40F29D3103F0FB
:100B5C0079FB2046444905F061F9434806F022FC34
:100B6C0005F006F80028FBD11F2301A80193FFF71D
:100B7C0039FD019B03F5E073032240F8232003F0B9
:100B8C0079FC20B1314A40F2271103F05BFB374E60
:100B9C000F2546F001064FF47A40B047013DFAD1DB
:100BAC00334A3448294603F097FC20B1274A4FF4C6
:100BBC00957103F047FB304A3048002103F08CFC60
:100BCC0020B1224A40F2351103F03CFB2C4920465F
:100BDC0005F024F906F00CFB20B11C4A40F2391147
:100BEC0003F030FB2749204605F018F9204626492A
:100BFC0005F014F900236846009306F081FB20B140
:100C0C00124A40F23F1103F01DFB2049204605F02B
:100C1C0005F90023CDE901330393009A012301A9BF
:100C2C0040208DF80530FFF7D1FB20B1074A40F288
:100C3C004B1103F007FB684606F06CFB20B1034A2E
:100C4C0040F24F1103F0FEFA04B070BD708000004A
:100C5C00E87F0000B87F0000A1830000B183000092
:100C6C0000000020C2830000DE830000E08800004A
:100C7C003D050000EC8800003D060000E8880000FF
:100C8C00F6830000FE8300000E8400000684000042
:100C9C0000B5E1B04FF4BA7302460191029302A978
:100CAC0001AB03A805F0B9FA48B10848084B09494B
:100CBC00C01AC008000440F0030005F0AFF803A808
:100CCC0005F0BAFA61B05DF804FB00BFE87F0000E4
:100CDC00B87F0000188400000F2AF8B50F461446A0
:100CEC0002D804252846F8BDC378072B30D1002044
:100CFC0000F0D2FE054660B1164B17481749C01AD2
:100D0C00C008000403230022184305F094F80325BF
:100D1C00E8E7BB7BDB0003F110029442E1D39B08B4
:100D2C00DEB20424A642DDD907EB8401204600F094
:100D3C00B3FE50B1074B08480849C01AC00800045C
:100D4C00E31C224640F00300DFE70434E4B2E9E799
:100D5C000625C7E7B87F0000E87F00003D8400004F
:100D6C00014670B5154805F0B1FB042813D11448A1
:100D7C00144B1549C01AC008000440F0030005F0DC
:100D8C004DF80E4E304605F05FFCF4690025338CAF
:100D9C00AB4209D870BD0028F3D00948094B0B4968
:100DAC00C01AC0080004E8E72378032B04D161883B
:100DBC006068FFF76DFF08340135E8E77800002024
:100DCC00E87F0000B87F00005A8400009B8400007C
:100DDC0010B506494FF48062FFF77EFF044610B948
:100DEC000248FFF7BDFF204610BD00BFFE0F0020DC
:100DFC002DE9F04105F068FE024640B13649374B0B
:100E0C005B1ADB0836491B0443F0030019E005F0BC
:100E1C00CFFE024630B13049304B5B1ADB0831490A
:100E2C001B04F1E7304E304605F0DAFE044670B193
:100E3C002A48294B2D49C01AC0080004224640F00C
:100E4C00030004F0EFFF03242046BDE8F081356871
:100E5C00DFF8A4800746B388BB4218D8224805F0B7
:100E6C008FFD356800271435B388BB42ECD915F8D3
:100E7C00023C55F8140C042B00D028B135F8101C8A
:100E8C0002300239FFF704FF01371435ECE7AB7C75
:100E9C00042B01D0AB7BCBB9A88905F04DFE0246E3
:100EAC0030B10D490D4B5B1ADB0811491B04ABE744
:100EBC00FF224146304605F003FF024630B1064999
:100ECC00064B5B1ADB080B491B049DE714350137F5
:100EDC0008F1FF08BFE700BFB87F0000E87F000003
:100EEC00D984000014850000180000203D85000006
:100EFC00648500008F85000008060020010706D4D9
:100F0C0042064FEA501302D403F00300704702204C
:100F1C00704700001FB50F4B0FCB6C4684E80F00D9
:100F2C00162218230C48CDE9002306F03BFA0023C7
:100F3C0021460A481A4601F009FB044630B1014625
:100F4C00074806F03CFD204604B010BD054802F0F1
:100F5C005BF9F8E7AC880000B88500006800002059
:100F6C00C78500006C0000200148002100F06ABC1D
:100F7C006800002038B51C4C41F28831204600F046
:100F8C00B5FC054628B1194806F00CFA052528468B
:100F9C0038BD204600F0E4FAA078FFF7AFFF28B187
:100FAC00012812D0124806F0FDF9F0E7114B124857
:100FBC001249C01AC008000440F0030004F02EFFD0
:100FCC002046BDE83840FFF703BF0A4B0A480C49DE
:100FDC00C01AC008000440F0030004F01FFF2046B4
:100FEC00BDE83840FFF704BFF9050020EC85000090
:100FFC0044860000B87F0000E87F000006860000F1
:10100C002586000038B500F075FD20B1074A40F286
:10101C00952103F017F9064D4FF4FA6445F00105DC
:10102C004FF47A40A847013CFAD138BD70800000DB
:10103C00E08800002DE9F04F8BB0FFF751FDA5487B
:10104C00A54C06F0AFF9A54BA249E41AE408240418
:10105C0044F00304204604F0E1FE04F089FD00286E
:10106C00FBD1FFF757FF20B19D4A40F2395103F0F5
:10107C00E9F89C49204604F0D1FE04F079FD0028E3
:10108C00FBD1FFF771FF20B1954A40F23E5103F0BE
:10109C00D9F89549204604F0C1FE04F069FD0546D7
:1010AC000028FAD1914806F07DF9914800F076FEBF
:1010BC00904806F077F92A463C21022000F0AAFE5F
:1010CC008D4806F06FF9FFF7B5F920468B4904F00F
:1010DC00A5FE874800F012FD20B1814A4FF4AA61A9
:1010EC0003F0B0F88649204604F098FE04F040FD69
:1010FC000028FBD120224FF42C6101A800F0DAFD6E
:10110C00054668B17F49204604F088FE04F030FDA6
:10111C000028FBD1724A4FF49761284603F092F8ED
:10112C0004220DEB0201204604F0BAFE9DF80420C7
:10113C00FF2A08D0C2B97449204604F06FFE04F0AF
:10114C0017FD0028FBD1DFF8FC91DFF8FC8109F1D9
:10115C00040AFFF70FFF062800F2B280DFE800F068
:10116C002BB0B0B09AA2AA000A2A08D96749204627
:10117C0004F054FE04F0FCFC0028FBD1E3E7644DC2
:10118C00644F2A7201260DF1050105F109002E703C
:10119C0006F090FA604B3E701E70FFF7E1F92046A6
:1011AC005E493E7004F03AFE2A7A05F109012046A8
:1011BC0004F076FEC7E7564E5948354606F0F2F86D
:1011CC005749204604F02AFE15F8097B97B155487B
:1011DC0006F0F5FB5449204604F020FE327A2946ED
:1011EC00204604F05DFEFFF70DFF04F0C1FC002863
:1011FC00FBD1AEE799F80320C6F809704FF0010B4C
:10120C0051466F602F812846327286F800B07760A5
:10121C0006F050FA454806F0C5F84549204604F05A
:10122C00FDFD327A2946204604F03AFE1F2368461B
:10123C000093FFF7D7F9009B0BFA03F3C0F80835BE
:10124C002022394601A806F06BFA367A8DF8046034
:10125C00324629460DF1050006F02CFA5E444FF497
:10126C002C6101A88DF8246000F07EFC054648B185
:10127C003049204604F0D2FD194A40F2D3312846B9
:10128C0002F0E0FF244B01251D70FFF769F9214B9B
:10129C001D70A8E72046284904F0C0FD264806F03A
:1012AC0081F8A0E72046254904F0B8FD234806F054
:1012BC0079F89AE72046224904F0B0FD2048EEE781
:1012CC004146204604F0AAFD404606F06BF800F0BB
:1012DC0011FC8AE787860000E87F0000B87F0000D9
:1012EC00708000009A860000AA860000BC86000070
:1012FC0068000020D2860000E6860000FB86000015
:10130C000F870000228700004A8700005B870000DF
:10131C00E405002007060020F80500209687000051
:10132C00BB870000C1870000D8870000F987000048
:10133C0007880000188800003B88000072880000B5
:10134C0080880000F9050020938800004FF080533E
:10135C00D3F83001A0F10D035842584170470000FA
:10136C00024AD2F80034002BFBD0704700E0014059
:10137C0010B5FFF7EBFF40B14FF080430022C3F8EC
:10138C000C21C3F81021C3F83825FFF7DFFF002824
:10139C0046D04FF08052514BD2F80414C3F82015AC
:1013AC00D2F80814C3F82415D2F80C14C3F8281575
:1013BC00D2F81014C3F82C15D2F81414C3F8301545
:1013CC00D2F81814C3F83415D2F81C14C3F840150D
:1013DC00D2F82014C3F84415D2F82414C3F84815D5
:1013EC00D2F82814C3F84C15D2F82C14C3F85015A5
:1013FC00D2F83014C3F85415D2F83414C3F860156D
:10140C00D2F83814C3F86415D2F83C14C3F8681534
:10141C00D2F84014C3F86C15D2F84424C3F87025E4
:10142C00FFF794FF48B14FF08043D3F80024D20764
:10143C0044BF6FF00102C3F80024294AD2F8883067
:10144C0043F47003C2F88830BFF34F8FBFF36F8F34
:10145C004FF08053D3F830210D2A0ED1D3F834310C
:10146C00022B02D81F4AD35C3BB14FF01023D3F8A8
:10147C0008224FF08043C3F858254FF01023D3F8BF
:10148C000022002A03DBD3F80432002B22DA16499F
:10149C0001234FF01020C1F804351224FFF760FF30
:1014AC00C0F80042FFF75CFFC0F80442FFF758FF9A
:1014BC000023C1F80435FFF753FFBFF34F8F0849E2
:1014CC000A4BCA6802F4E0621343CB60BFF34F8F40
:1014DC0000BFFDE7064B074A1A6010BD00C0004074
:1014EC0000ED00E0F088000000E001400400FA0587
:1014FC009C0000200090D0030268530910B50446EC
:10150C0018D0012B40F2FF3318BF002302F01F024A
:10151C00D340DB0704D409494FF4F67003F028FCE0
:10152C0023681F2B83BF03F01F03054823604FF074
:10153C00A04010BD4FF0FF33E8E700BF0281000070
:10154C000003005038B5054D044645F001054FF435
:10155C007A40A847013CFAD138BD00BF008C00008E
:10156C00F8B504461348144F05F01CFF21781348B6
:10157C0006F025FA25466178114806F020FAA17884
:10158C00104806F01CFA15F8031F0F4806F017FA5E
:10159C006FF00206361BE27873199A4204DCBDE840
:1015AC00F8400A4805F0FEBE15F8011F384606F053
:1015BC0006FAF0E7F388000054B000000F89000031
:1015CC00438900007289000083890000798D000036
:1015DC0007B5084B01A81B790193FFF78DFF019B01
:1015EC00D0F81005D840C04300F0010003B05DF8FE
:1015FC0004FB00BFA000002038B50446FFF7E8FF4D
:10160C00002508B9A54200D138BD0120FFF79AFF8B
:10161C000135FFF7DDFFF4E770B5064664200D4693
:10162C00FFF7EAFFB0B10D4BDB799BB9FF2D13D05F
:10163C000B4A10680B4A6B1CDBB22421043001F0FE
:10164C00A0FE044620B908492A46304606F032F876
:10165C00204670BD0324FBE70624F9E7A000002018
:10166C0054160020511500205215002037B50621C4
:10167C006846FFF7D1FF044680B94FF47A75FFF73F
:10168C00A7FF18B1013DADB2002DF8D105490622D6
:10169C00684606F075F8002818BF0324204603B0EE
:1016AC0030BD00BF068C00001B4BDB79F7B507463D
:1016BC000C466BBBF8292DD8184D2B706B70FF2383
:1016CC00AB704B1CEB70D426CB430A462B710146F6
:1016DC006E71A81D05F0EEFF38463A19334690425C
:1016EC0011D10F49254408685B420022AB7104F10B
:1016FC000803EA71DBB200922421084A043001F09D
:10170C002DFE03B0F0BD10F8011B0B44DBB2E6E775
:10171C000320F6E70720F4E7A00000205115002075
:10172C005416002037B504460F480191154605F0B4
:10173C0039FE20460199FFF7B7FF044630B1014648
:10174C000A4806F03CF9204603B030BD2846FFF7A6
:10175C0053FF20B9064805F025FE0324F3E703B038
:10176C00BDE83040FFF782BF93890000AA890000D2
:10177C00D289000070B5154D022306464FF47A72DB
:10178C00012128462B70FFF7CDFF044628B10146F6
:10179C000F4806F014F9204670BD0D212846FFF7BE
:1017AC003BFF044610B101460A48F2E70A490622FB
:1017BC00681C05F0E5FF20B1084805F0F3FD052491
:1017CC00E9E7D5F807301BBA3360E4E75114002081
:1017DC00E7890000218A00000C8C0000458A00007B
:1017EC00431E032B10B517D80C4C142323706070B8
:1017FC00A3704FF47A72012304212046E370FFF7A3
:10180C0091FF40B909212046FFF706FF18B9A379CB
:10181C00152B18BF052010BD0720FCE75114002024
:10182C00074B32221A70FF2205219A700122DA70BE
:10183C00187159704FF47A721846FFF773BF00BFD6
:10184C005114002073B5234B234D18602B780BB12A
:10185C0000293BD0214EF479002C39D133790193F6
:10186C0001A8FFF749FE019B03F5E07340F8234004
:10187C007379019301A8FFF73FFE019B03F5E07319
:10188C0040F823406420FFF75DFE154805F08AFD03
:10189C0001A8FFF76FFF044630B10146114806F06E
:1018AC008EF8204602B070BD0120FFF799FF044668
:1018BC000028F6D1FF20FFF7B3FF04460028F0D133
:1018CC00012309482B7006F07AF8EAE70C46E8E7A2
:1018DC000324E6E75416002050140020A00000203A
:1018EC00638A0000748A00009B8A0000F8B50646E3
:1018FC002B480F4605F056FD2EB92A4805F052FD2F
:10190C0007242046F8BD284D4A232B7001236B7009
:10191C006422002303212846AB70FFF703FF044623
:10192C0020B10146214806F04AF8EAE7204805F0C4
:10193C0039FD642F384638BF6420FFF75DFE20B9AF
:10194C001C4805F02FFD0324DBE719212846FFF77F
:10195C0063FE044610B101461748E4E7E979012912
:10196C0004D0164806F02BF80B24CAE72B7B0A2B65
:10197C0004D9134805F016FD0924C2E7AB7A33707D
:10198C006B7A7370EB7AB3702A7BF27005F10D01F0
:10199C00301D05F08FFE0B4B2A7A9A71B1E700BF10
:1019AC00B18A0000D28A0000511400201B8B000069
:1019BC003A8B0000648B0000718B00009B8B000045
:1019CC00DA8B0000A0000020F8B5294D1E464023FC
:1019DC002B70284B9B796B700C4617460A460146B8
:1019EC00A81C05F067FEA11C4FF47A72C9B22846F8
:1019FC00FFF798FE044628B94FF47A70FFF7FCFD08
:101A0C0010B903242046F8BD31780A31C9B22846F2
:101A1C00FFF702FE04460028F4D12B786A781343B2
:101A2C0023D1AB78FF2B20D1E9782A794B42DBB25A
:101A3C009A421AD16A7902F12C03DBB2012B14D829
:101A4C00D52ADED1AB79412BDBD1EB799B06D8D1F2
:101A5C003378CD1EEDB29D4228BF1D4606492A465D
:101A6C00384605F027FE3570CCE70B24CAE700BFDB
:101A7C0051140020A000002059140020FF2910B49C
:101A8C0006D01C78F62C03D85DF8044BFFF79CBFEE
:101A9C0003205DF8044B704707B510238DF8033015
:101AAC0030230A468DF804308DF805000DF1030340
:101ABC00022101A8FFF788FF03B05DF804FB0000CA
:101ACC000B4B322210B51A7001225A7098704FF4D9
:101ADC007A7203211846FFF725FE044628B96420C4
:101AEC00FFF78AFD002808BF0324204610BD00BF65
:101AFC00511400200020FFF7E3BF0000144A08B582
:101B0C00137873B1134B14481449C01AC00800045D
:101B1C0040F0030004F082F9104805F043FC032068
:101B2C0008BD70B90B4B0C480D49C01AC008000415
:101B3C0040F0030004F072F9094805F033FC0E2064
:101B4C00EEE708490860012111701846E8E700BF6C
:101B5C007A160020B87F0000E87F0000128C00008D
:101B6C00398C00007C1600202DE9F3410F46054608
:101B7C0038B9434805F016FC0E24204602B0BDE8E7
:101B8C00F08190F82020202A04D93E4805F00AFC68
:101B9C000C24F2E701F01F031344202B02DD3A481A
:101BAC0005F00DFF394B3A4C3A49DFF8FC80E41A4A
:101BBC00E408240444F0030495F820303A46204607
:101BCC0004F039F93449204604F028F995F820201E
:101BDC002946204604F064F92F4805F0F0FE002653
:101BEC0095F82030B3423DDC2C4E2D4805F0E7FE35
:101BFC0022220021304605F093FD30467FBA95F83D
:101C0C00202020F8027B294605F054FD95F8205041
:101C1C002449254F02352046EDB204F0FFF820464A
:101C2C002A46314604F03CF91E4805F0C8FE002453
:101C3C00A5421DDC1A481D4E05F0C1FE1C4B174A6F
:101C4C0018680023009357212B46043001F086FBC3
:101C5C000F25044646F001064FF47A40B047013D8B
:101C6C00FAD18AE7A95D404605F0A9FE0136B7E72F
:101C7C0016F8011B384605F0A2FE0134D8E700BF68
:101C8C005E8C0000928C0000CA8C0000B87F0000B3
:101C9C00E87F0000098D0000458D000058160020DB
:101CAC00788D00007B8D0000728D0000308E00005E
:101CBC007C1600207FB54BBAADF80C30194C1A4B82
:101CCC00E41AE4082404CBB20546164644F003009B
:101CDC000A0A164C164904F0AEF89DF80D209DF832
:101CEC000C10134805F06BFE20680023009303AA28
:101CFC0002235721043001F031FB28B10D4805F0C7
:101D0C0051FB032004B070BD206833462A4657218E
:101D1C00043001F036FB08B10748F0E785F8206085
:101D2C00F0E700BFE87F0000B87F00007C160020C1
:101D3C00AB8D0000E68D0000048E00000268530994
:101D4C0010B5044618D0012B40F2FF3318BF002306
:101D5C0002F01F02D340DB0704D409494FF4F6709C
:101D6C0003F006F823681F2B83BF03F01F030548FD
:101D7C0023604FF0A04010BD4FF0FF33E8E700BFE9
:101D8C000281000000030050034B1B78002B0CBF9A
:101D9C0003200020704700BF921A0020064A01233E
:101DAC00137038B1054913700860054A0549137062
:101DBC003C200870704700BF9F1A0020941A002026
:101DCC00921A0020881600201FB50446FFF7DCFF8E
:101DDC0018B10C4AE82102F035FA0B4B1B7873B1A1
:101DEC000A4A0B4910688DF80D40002300938DF8BA
:101DFC000C300978022303AA043001F0AFFA04B0C6
:101E0C0010BD00BF368E00009F1A0020941A0020CF
:101E1C0088160020504BF7B51870504B1970504B6A
:101E2C00504900261E80504B1E80504B01251D70C2
:101E3C004FF6FF730B804E490B804E4B4E491D7075
:101E4C004E4B1E7080230B804D490B804D49402317
:101E5C000B804D490B804D4B04461E7022B301A8DC
:101E6C000196FFF76BFF019B494F05FA03F3C0F88E
:101E7C0008352F434FF47A40B84701A80196FFF775
:101E8C005DFF019B9D40C0F80C550A254FF47A402C
:101E9C00B847013DFAD101A80195FFF74FFF019A10
:101EAC0001239340C0F80835AE20FFF78DFFD520F5
:101EBC00FFF78AFF8020FFF787FFA820FFF784FF3A
:101ECC003F20FFF781FFD320FFF77EFF0020FFF7B5
:101EDC007BFF4020FFF778FF8D20FFF775FF012C6B
:101EEC000CBF10201420FFF76FFF2020FFF76CFFB2
:101EFC000020FFF769FFA120FFF766FFC820FFF75E
:101F0C0063FFDA20FFF760FF1220FFF75DFF8120EF
:101F1C00FFF75AFF012C0CBF9F20CF20FFF754FF77
:101F2C00D920FFF751FF012C0CBF2220F120FFF725
:101F3C004BFFDB20FFF748FF4020FFF745FFA420B5
:101F4C00FFF742FFA620FFF73FFFAF2003B0BDE82D
:101F5C00F040FFF739BF00BF89160020881600201B
:101F6C008E1A00209A1A0020901A00209E1A002027
:101F7C009C1A0020A01A0020821600208416002033
:101F8C008A1600208016002086160020981A002041
:101F9C00D08E000050EA010350D4314BB3F900301D
:101FAC0083424BDD2F4BB3F900308B4246DD2E4B79
:101FBC001B78022B21D0032B2AD0012B05D12B4BC4
:101FCC001B88013B5B1A014618B2012A26D0022A53
:101FDC0035D0002A32D100290B46B8BFCB1D802248
:101FEC00DB1013FB02032248012201F0070102FA65
:101FFC0001F1C25C22EA01021FE01C4B1B88013B71
:10200C001B1A18B21B4B1B88013B5B1A19B2DCE77D
:10201C00184B1B88013B1B1A0846F7E700290B4697
:10202C00B8BFCB1D8022DB1013FB0203104801F05C
:10203C00070101228A40C15C0A43C254704700293F
:10204C000B46B8BFCB1D8022DB1013FB02030848E4
:10205C0001F0070101228A40C15C4A40EDE700BF54
:10206C008A16002086160020981A0020821600205E
:10207C00A90000208016002013B51E4805F092F927
:10208C002220FFF7A1FE0020FFF79EFE0720FFF79E
:10209C009BFE2120FFF798FE0020FFF795FE7F2086
:1020AC00FFF792FE144B1B780BB3144C144805F03D
:1020BC0079F92046402300F8013B12494FF4806225
:1020CC0005F0F8FA104B11491868002300930978B1
:1020DC0040F201432246043001F040F938B10C4A79
:1020EC0040F2592102B0BDE8104002F0ABB802B08A
:1020FC0010BD00BFAB8E00009F1A00208C16002074
:10210C00BB8E0000A9000020941A00208816002025
:10211C00368E000002484FF48062002105F000BBAF
:10212C00A9000020002930B53ADB214CB4F900405D
:10213C008C4235DD00281F4CBCBF801802B2B4F9AC
:10214C000040B8BF00208518A542C4BF241A22B293
:10215C00002A25DDCC1000EBC410174C204401F0F4
:10216C0007040121A140012BC9B216D0022B0BD0C0
:10217C00B3B9C943C9B20244904211D010F8013B23
:10218C000B4000F8013CF7E70244904208D010F8ED
:10219C00013B4B4000F8013CF7E70244904200D170
:1021AC0030BD10F8013B0B4300F8013CF6E700BFD3
:1021BC008016002082160020A90000200028F0B50F
:1021CC006ADB474CB4F90040844265DD0029454C7C
:1021DC00BCBF521812B2B4F90040B8BF00218D1820
:1021EC00A542C4BF641A22B2002A55DDC1F3C4044F
:1021FC003D4F00EBC41611F00701D2B207EB0600FD
:10220C0023D0C1F10805EDB2384CAA42645D60D20E
:10221C00A5EB020E4FF0FF0C4CFA0EFC012B04EA5E
:10222C000C0407D0022B38D0B3BB17F806C02CEA2D
:10223C00040403E017F806C044EA0C04AA42BC5597
:10224C002AD308391144CAB28030072A18D9022B74
:10225C0000F1800126D1144611F8805C083CE4B2F0
:10226C00ED43072C01F8805C01F18001F4D8A2F158
:10227C000801C1F3C401013100EBC11002F00702E7
:10228C0052B11B49012B8A5C1CD0022B1ED01BB9EE
:10229C00037823EA02030370F0BD17F806C084EA42
:1022AC000C04CBE7012B4FF0FF3518BF0025EDB226
:1022BC001446083CE4B2072C01F8805C01F1800163
:1022CC00F7D8D4E703781A430270E5E703785A404D
:1022DC00FAE7012BAED0022BDFD0002BB1D1A4E753
:1022EC008216002080160020A9000020D99300003F
:1022FC00D193000010B40C461349097802290ED072
:10230C0003291BD0012914D110490988891A091BEA
:10231C000CB2014620465DF8044BFFF703BF0B4996
:10232C0009880139091A08B209490988891A091B4F
:10233C000CB221465DF8044BFFF740BF04490988F5
:10234C000139091A08B2E4E7981A00208216002015
:10235C00801600202DE9F041BDF8187088461E4605
:10236C0004468518AC4201DBBDE8F08120463B46B3
:10237C00324641460134FFF7BDFF24B2F2E70000BC
:10238C002DE9F04F8BB007460393BDF85030049302
:10239C003C4B9DF85450B3F90030834259DD3A4B15
:1023AC00B3F900308B4254DD062313FB0503002BDD
:1023BC004FDD01EBC503002B4BDD344B1B781BB9F8
:1023CC00AF2A84BF0132D2B202EB820309930623F7
:1023DC0006938BB2059308339BB200240893052C0B
:1023EC001CBF2B4B099A059E18BF1B1904EB070A3F
:1023FC0018BF13F80290ABB2079304FB05F313FA62
:10240C0087F31BB207EE903A08BF4FF00009B046B5
:10241C000FFA85FB0FFA8AFA19F0010F27D0012D5C
:10242C001AD1039A31B25046FFF7B4FD079B01361F
:10243C009844089BB6B2B3424FEA59091FFA88F880
:10244C00EAD1069B013B013413F0FF0364B20693FF
:10245C00C5D10BB0BDE8F08F039B009317EE900A2B
:10246C005B465A460FFA88F1FFF774FFDEE7DDE9A9
:10247C0003239342DAD0012D01D11A46D2E7049BF3
:10248C00EBE700BF8A160020861600208416002079
:10249C00D68E00001FB503788DF800308388ADF818
:1024AC00043083688DF80630C3688DF807300369F3
:1024BC0002934369054A0393054B684653F8213050
:1024CC0052F82110984705B05DF804FBA41A0020BF
:1024DC00AC1A00200268530910B5044618D0012B21
:1024EC0040F2FF3318BF002302F01F02D340DB077A
:1024FC0004D409494FF4F67002F03AFC23681F2B00
:10250C0083BF03F01F03054823604FF0A04010BDAC
:10251C004FF0FF33E8E700BF0281000000030050DA
:10252C0007B5019001A8FFF7D5FF019A012393404D
:10253C00C0F8083503B05DF804FB0000024B4FF403
:10254C00807043F001031847F09300002DE9F74326
:10255C00154690F80080354A42F82850344A42F823
:10256C0028304B7B06460C467BB308684FF0A047DF
:10257C0000F5E07340F20C6247F823204B6803F53A
:10258C00E0734FF0010947F82320FFF7C9FF60689B
:10259C00FFF7C6FF236803F5E07340F20D6247F8BE
:1025AC002320636803F5E07347F82320FFF7C6FF89
:1025BC0000276368019301A8FFF78CFF019AD0F8FC
:1025CC001035D340DB070CD5FFB91A4A002D434612
:1025DC0008BF2A462146301D03B0BDE8F04300F089
:1025EC0069BD2368019301A8FFF774FF019B09FAE9
:1025FC0003F3C0F80C35FFF7A1FF01372068FFF794
:10260C008FFFFFF79BFF092FD3D16368019301A8BC
:10261C00FFF760FF019A01239340C0F80C35FFF7D8
:10262C008DFF6068FFF77CFFCFE700BFAC1A00207E
:10263C00A41A0020A12400001FB503788DF80030E7
:10264C004368019383688DF80830C368054A039387
:10265C00054B684653F8213052F82110984705B0C5
:10266C005DF804FBB41A0020BC1A00201FB50378D7
:10267C008DF800304368019383688DF80830C36887
:10268C00054A0393054B684653F8213052F8211044
:10269C00984705B05DF804FBB41A0020BC1A002062
:1026AC00F0B5194B90F800C0DFF86CE043F82C2023
:1026BC00164B16460A6943F82C204B7F0EF80C304B
:1026CC000C4607460FCC89B06D460FC594E80F0039
:1026DC0085E80F003B78CDF810C01EF803304BB1E5
:1026EC00002E0B4A694608BF3246381D01F004FA29
:1026FC0009B0F0BD002E074A694608BF324607F103
:10270C000C0000F061FFF3E7BC1A0020B41A0020A3
:10271C004526000079260000C41A002000F18040F4
:10272C0000F5C040002382B0036003680193019B55
:10273C0002B0704743090BD0012B40F2FF3318BF96
:10274C00002300F01F0023FA00F000F00100704796
:10275C004FF0FF33F5E70000054B4FF0FF32072831
:10276C0043F8202084BF1B1883F85220704700BF09
:10277C00C81A002010B504460068FFF7DBFF20B92B
:10278C0007494FF4F67002F0F3FA23681F2B83BF4E
:10279C0003F01F03034823604FF0A04010BD00BF9F
:1027AC00028100000003005013B5019001A80C46F3
:1027BC00FFF7E0FF019B00EB8300D0F8003723F418
:1027CC004033C0F80037D0F8003743EA0443C0F870
:1027DC00003702B010BD000010B5184991F8642004
:1027EC0052BBFF241046FFF7A5FF10B18B1883F8DE
:1027FC00304001322A2AF5D10024E0B20134FFF72F
:10280C00ABFF0C2CF9D10E4B0022C1F85E209A8044
:10281C000C4BC02083F80603402018604FF4BE70A8
:10282C00FFF77CFF084B4FF00040C3F80403012373
:10283C0081F86430104610BD0820FCE7C81A00204F
:10284C00261B002000E100E000600040034B93F8E1
:10285C006400003818BF0120704700BFC81A002060
:10286C002DE9F74304460F469146FFF763FF20B965
:10287C0041494FF40C7002F07BFADFF8048108EB4D
:10288C00040393F93030002B73DABB78C3F34003A5
:10289C00002B15BF0025082508220C22954203D1D8
:1028AC00042003B0BDE8F08358F82510013146D15F
:1028BC0008EB04026EB248F8259082F830601BB920
:1028CC0008EB050383F85240BB785A0717D4D90795
:1028DC0037D501A80194FFF74DFF019B00EB830056
:1028EC00D0F8003723F00203C0F800372349E20880
:1028FC0004F0070001238340885C03438B54B878B1
:10290C003B7810F002002AD0AD0005F1804505F5AA
:10291C00C0452402D5F8102522F44F3222F440721F
:10292C00C5F810251B04D5F8102504F47C5403F4C9
:10293C0040331C431443C5F810450020B1E7013562
:10294C00ACE701A897F801900194FFF713FF019BE6
:10295C0003F5E0734FEA890240F82320C6E7083EEE
:10296C0048FA86F696F85A2042EA831386F85A30CB
:10297C0097E7082095E700BFF6930000261B002080
:10298C00C81A002073B505460C46FFF7D3FE20B9D4
:10299C0029494FF4187002F0EBF9284E731993F98A
:1029AC003030002B04DA244940F2612002F0E0F9C7
:1029BC00731993F93020072A1DDD083A46FA82F282
:1029CC0092F85A309B09032B10D101A80195FFF7FF
:1029DC00D1FE019BD0F81015D94001F00101023154
:1029EC00284602B0BDE87040FFF7DEBE012B0CBFDD
:1029FC0002210321F4E7D3B2072B1AD8930003F179
:102A0C00804303F5C04302F14000D3F8101540B2E7
:102A1C0041F001018000C3F8101580B2FFF77EFE73
:102A2C003CB156F8223023B101239340044AC2F83A
:102A3C00043302B070BD00BFF6930000C81A00202A
:102A4C000060004013B50446FFF774FE20B9084936
:102A5C0040F2B22002F08CF901A80194FFF78AFE33
:102A6C00019BD0F81005D84000F0010002B010BD59
:102A7C00F69300002DE9F04F002485B0CDE9024417
:102A8C00594D4FF48072012102F1804303F5C0438C
:102A9C0090B21B68012B06D1D5F804330B4202D03F
:102AAC00FFF73CFE0C430432B2F5907F4FEA410134
:102ABC00EAD14D4BD3F87C31012B11D14FF4BE70C0
:102ACC00FFF72CFE4FF0A04344F00044D3F8202530
:102ADC000292C3F82025D3F820280392C3F82028AB
:102AEC00E3B2D3B1414F00250126344210D0AB00E4
:102AFC0003F1804303F5C043D3F81005D3F8101548
:102B0C0057F8253023B1C1F30141C0F30520984794
:102B1C000135082D4FEA4606E7D1002C5CDA334D1F
:102B2C00334C344E4FF00009012716F9013F5A1C63
:102B3C003FD0C3F3C20210326A445FFA83FA12F830
:102B4C00082C03F03F0803F0070307FA03F31A42BB
:102B5C002FD001A8CDF80480FFF70CFE019B03F5E4
:102B6C00E07350F82330C3F3014BBBF1020F0CBFE1
:102B7C00032102214046FFF717FE01A8CDF804807F
:102B8C00FFF7F8FD019B07FA03F3C0F8203505EBBE
:102B9C00080393F9303055F8233053B14FEA9A11AA
:102BAC00032904D0BBF1020F19D1012901D14046F0
:102BBC00984709F10109B9F1040FB6D14FF0A042C1
:102BCC00D2F820350293C2F82035D4F82025039290
:102BDC001343C4F82025A4D105B0BDE8F08FBBF198
:102BEC00030FE6D10229E1E700600040C81A00207B
:102BFC0000030050211B002010B5054C23681BB9A5
:102C0C000449512002F0B4F82368BDE8104018477D
:102C1C00301B00207C94000037B50D4630B90F49AD
:102C2C00772002F0A5F8002003B030BD0C4B984281
:102C3C00F9D100230DF107008DF8073001F0E0FD0C
:102C4C00084B1C7914B901221D601A719DF80700FC
:102C5C0001F004FE002CE6D01120E5E77C94000086
:102C6C0000200040301B002018B906499B2002F0C0
:102C7C007FB8054B984201BF044B00221A601A71B1
:102C8C00704700BF7C94000000200040301B0020E7
:102C9C000023435082B043580193019B02B070470C
:102CAC000268530910B5044618D0012B40F2FF33CB
:102CBC0018BF002302F01F02D340DB0704D40949DC
:102CCC004FF4F67002F054F823681F2B83BF03F007
:102CDC001F03054823604FF0A04010BD4FF0FF3399
:102CEC00E8E700BF02810000000300508B6A4A6BCA
:102CFC009A4210B54FF0010305D2496A8A5CC0F8BC
:102D0C001C251A4604E091F82C201AB1C36100224C
:102D1C00104610BD0C6A640603D5C36181F82D30D2
:102D2C00F6E74361EDE770B5D0F8046105460C4653
:102D3C0026B14FF48271FFF7ABFF012694F82F20D8
:102D4C0022B34FF492712846FFF7A2FF4FF48E7115
:102D5C00FFF79EFF4FF48471FFF79AFF002E69D0A6
:102D6C0094F82F20002384F82D3092BBA36A616B5A
:102D7C0099421CBF1646052386F001061CBFC5F8F8
:102D8C000025C5F8003584F82F6023E0D5F82431F0
:102D9C004BB14FF492712846FFF77AFF01236B6118
:102DAC0084F82F30DAE7D5F81C31ABB14FF48E71C3
:102DBC002846FFF76DFF636B01336363D5F824314D
:102DCC0013B14FF49271E7E72146FFF78FFF00280C
:102DDC00C4D10022104670BDD5F80831002BBDD0EF
:102DEC004FF484712846FFF753FFD5F82431002B9C
:102DFC00E7D1636BA16A8B42B0D2616AD5F8180532
:102E0C00C854636BA16A0133481E8342636308D1C3
:102E1C00206A400610D40223C5F8003201232B622D
:102E2C009CE78B42FAD1236A5B0697D5022384F880
:102E3C002D30CFE70122CDE78B42EFD1F6E7000032
:102E4C0037B5314B01930D464FF48271FFF720FFDC
:102E5C004FF49271FFF71CFF4FF48E71FFF718FFC0
:102E6C004FF48471FFF714FF0023C0F800326B633A
:102E7C0085F82F300123036295F82D209A4218BF54
:102E8C00836029460446FFF731FF2B6883B140F27B
:102E9C008623AB60AB68C4F80433002003B030BDAC
:102EAC0029462046FFF73FFF28B1019B013B0193C8
:102EBC00019B002BF4DC95F82F0050B9019B002BE3
:102ECC00ECDC0023C4F800350523C4F800350320DE
:102EDC00E4E7D4F8C434C4F8C43493B113F0010F4C
:102EEC0014BF4FF40240032048F2012213F0020FEA
:102EFC0018BF104613F0040F48F2022318BF1846EF
:102F0C00DCE70320DAE700BFA086010037B5344BBD
:102F1C0001930D464FF48271FFF7BAFE4FF4927194
:102F2C00FFF7B6FE4FF48E71FFF7B2FE4FF48471CB
:102F3C00FFF7AEFE00236B6385F82F30AB6A012BD5
:102F4C00044617D12B6A5B0614D40223C4F8003252
:102F5C000123236295F82D20022A18BF23602B68C9
:102F6C0093B140F28623AB60AB68C4F80433002005
:102F7C0003B030BD0123E9E729462046FFF7D3FE15
:102F8C0028B1019B013B0193019B002BF4DC95F8CC
:102F9C002F0050B9019B002BEADC0023C4F800354C
:102FAC000523C4F800350320E2E7D4F8C434C4F890
:102FBC00C43493B113F0010F14BF4FF4024003203B
:102FCC0048F2012213F0020F18BF104613F0040F41
:102FDC0048F2022318BF1846DCE70320DAE700BFEB
:102FEC00A0860100F0B52F4C236887B023B92E4979
:102FFC0040F2BA2001F0BCFE2A492C48FFF793FEA0
:10300C00002847D194F82F70D4F820C0FFB9237B47
:10301C009A1E012A1BD8616AA269914217D1E269F2
:10302C006262CCF3401C62691E492048A262032BE9
:10303C0084F82CC084F82D7004D107B0BDE8F040A2
:10304C00FFF7FEBE07B0BDE8F040FFF75FBF184EBC
:10305C000FCE01AD0FC533682B60EFB1134AD2F818
:10306C00C434C2F8C434990718D45A0718D403F0DE
:10307C000103C3F10403DBB28DF800301CF0040F24
:10308C004FF0000384F8303000D01FB1D4E9003188
:10309C006846984707B0F0BD3B46EDE70123EBE7E8
:1030AC000223E9E7381B00200095000000300040A7
:1030BC00441B00202DE9F04F85B0804692460193C9
:1030CC008B4619B94A49AA2001F052FEDBE90023CC
:1030DC009A4203D14649AB2001F04AFE98F804709D
:1030EC00444E3C2202FB07F906EB090595F82E30FD
:1030FC00002B79D14049D8F80000FFF78DFD04462C
:10310C00002873D1019B6B609BF80D30A86085F88B
:10311C002D0085F8310085F8300085F8383046F8F8
:10312C0009A0DBF80030039303A8FFF7B9FD039B5C
:10313C0003F5E07340F20C6540F82350DBF80430E3
:10314C00039303A8FFF7ACFD039B56F8092003F586
:10315C00E07340F82350DBE90010D8F80030C3F8D6
:10316C000815DBF80810C3F80C05C3F824158AB34E
:10317C009BF80C504FEA133A43F30739AB1E012B63
:10318C0006D96B1F022B03D91C496B2001F0F0FDF3
:10319C00B9F1000FAEBF09F16043194B0AF00F0AE9
:1031AC004FEA4515A8BF03F56143EDB2B4BF03F870
:1031BC000A5083F80053D8F80030190B43F3073347
:1031CC00002B07DB012201F01F018A405B090D492E
:1031DC0041F823203C2303FB0766012386F82E309D
:1031EC00204605B0BDE8F08F0824F9E71124F7E775
:1031FC0000950000381B0020F12F00007C9500008A
:10320C0014ED00E000E100E070B50D4C06793C23B4
:10321C0003FB0643054693F82E30012B04D00949D5
:10322C004FF4857001F0A4FD2B680522C3F800252E
:10323C003C2303FB0644022384F82E3070BD00BFF0
:10324C00381B0020009500002DE9F0470579404F10
:10325C004FF03C0909FB05F9064657F809300C46B6
:10326C009046A3B90B78022B08D02378032B0ED1F0
:10327C00384940F2872001F07BFD08E0354940F2E7
:10328C00862001F075FD57F80930002BEDD03C235A
:10329C0003FB0573D6F8009093F82D30012B04D165
:1032AC002378012B06D1082011E0022B02D12378C0
:1032BC00012BF8D13C26284BC9F8083306FB0576C0
:1032CC0096F830302BB1B368C9F804331120BDE83F
:1032DC00F08788F00403C3F3800386F83030C6F817
:1032EC002080A646BEE80F0006F10C0CACE80F00DF
:1032FC00DEF80030CCF800306368B362E3687362C8
:10330C006378C9F888352378C5EB051A012B07EBD0
:10331C008A0A17D09BB9C8F340183C2303FB0573EA
:10332C00514683F82C804846FFF78AFD3C235D43C9
:10333C007A197B59002BCAD182F83030C7E74FF08D
:10334C000108EAE751464846FFF7E0FDEEE700BF0B
:10335C00381B0020009500008642040010B586B092
:10336C000024CDE904249DF820208DF8051052018D
:10337C0001A9CDE902348DF80440FFF765FF06B0D2
:10338C0010BD10B586B0012402930023CDE90332A1
:10339C008DF805101A4601A98DF804400593FFF726
:1033AC0053FF06B010BD0023435082B04358019325
:1033BC00019B02B070470A4610B54FF48E71FFF7AF
:1033CC00F2FF136A9168C95C136A01331362C0F887
:1033DC001C1510BD0268530910B5044618D0012BFA
:1033EC0040F2FF3318BF002302F01F02D340DB076B
:1033FC0004D409494FF4F67001F0BAFC23681F2B72
:10340C0083BF03F01F03054823604FF0A04010BD9D
:10341C004FF0FF33E8E700BF0281000000030050CB
:10342C0007B5019001A8FFF7D5FF019B03F5E073E9
:10343C00022240F8232003B05DF804FB8B690A4696
:10344C0010B54FF4847123B9FFF7ADFFD0F81835E0
:10345C0010BDFFF7A8FF536AD168D0F81805C854FF
:10346C00536A01335362F3E71FB501238DF8003023
:10347C00044BCDE90110D3E900126846904705B022
:10348C005DF804FB741B002030B54D4DD5F80433AA
:10349C009A0585B051D5D5F82431002B4DD04FF479
:1034AC0092712846FFF77FFF4FF40173C5F808337C
:1034BC00444B93F829200AB901226A604049022240
:1034CC008DF80020D1F88024C1F8802403929A69E9
:1034DC000292DA6801920022C3E906226846D3E917
:1034EC00001290473648D0F81C315BB1354A51690F
:1034FC00136A99424DD992F82830002B49D11146C4
:10350C00FFF759FF2E48D0F84431002B56D04FF41A
:10351C00A271FFF748FF2B4B93F829200AB1012227
:10352C0002609A69002A49D0586AD96800229A61C7
:10353C0005B0BDE83040FFF797BFD5F804335B0703
:10354C00D0D5D5F80831002BCCD01E4C1C482146C8
:10355C00FFF774FF636AA2699A42C3D1E369E16819
:10356C004BB1A3612369E3600023606AE36163628A
:10357C00FFF77AFFB6E794F829300BB901236B609B
:10358C000F4B4FF40172C3F808230023606AA36148
:10359C00EEE70B484FF48E71FFF705FF5369002BD4
:1035AC00B0D051690291002391688DF800300191DF
:1035BC0053616846D2E900139847A3E705B030BDC4
:1035CC0000200040741B00202DE9F347064691466D
:1035DC000C4619B96A49AA2001F0CAFB96F8048076
:1035EC00684D2C2303FB085393F82A30002B40F032
:1035FC00C28065493068FFF70FFB0746002840F092
:10360C00BC8023685A1C13D001A80193FFF7E2FE7B
:10361C00019A01239340C0F808352368019301A84F
:10362C00FFF7D8FE019B03F5E073032240F823203B
:10363C006368581C09D001A80193FFF7CBFE019BCE
:10364C0003F5E073002240F823203368A269C3F825
:10365C002425217D627D0A43C3F86C25D4E9000240
:10366C000129C3F81425C3F80C052AD1A368591CE9
:10367C0009D001A80193FFF7ADFE019B03F5E073A0
:10368C00002240F82320E3685A1C13D001A80193B0
:10369C00FFF7A0FE019A01239340C0F80835E368B8
:1036AC00019301A8FFF796FE019B03F5E07303223B
:1036BC0040F82320D4E902213368C3F80815C3F875
:1036CC0010252C2303FB08F3EA183068C2F8049089
:1036DC002269EA50B9F1000F39D04FF48E71247F72
:1036EC00FFF761FE4FF4A271FFF75DFE274BC0F8A8
:1036FC000433A31E012B4FEA103A40F3073906D9C5
:10370C00631F022B03D922496B2001F031FBB9F165
:10371C00000FB6BF1F4B09F160400AF00F0A4FEAC9
:10372C004414E4B2AABF00F5614003F80A4080F8E3
:10373C0000433368190B43F30733002B07DB0122DB
:10374C0001F01F018A405B09134941F823203368BB
:10375C000422C3F800252C2303FB08530022C3E9E1
:10376C00062283F829205A61012283F82A20384640
:10377C0002B0BDE8F0870827F9E71127F7E700BF8B
:10378C00AF950000741B00209534000080000200EF
:10379C007C95000014ED00E000E100E02DE9F84319
:1037AC0003680679294D0022C3F800252C2202FB60
:1037BC00065204465268A2B1254AC3F80823190BD5
:1037CC0043F30733002B0CDB01F01F015B090122D3
:1037DC008A4020331F4941F82320BFF34F8FBFF39A
:1037EC006F8F2368D3F80C05D3F81495D3F80875AC
:1037FC00D3F810854FF0FF329042C3F81425C3F86C
:10380C000C25C3F80825C3F8102501D0FFF708FED6
:10381C00B9F1FF3F02D04846FFF702FEB8F1FF3F77
:10382C0002D04046FFF7FCFD7B1C02D03846FFF768
:10383C00F7FD2068FFF718FA2C2303FB065500232D
:10384C0085F82A306B60BDE8F88300BF741B00203C
:10385C008402020000E100E00279044B2C2101FB00
:10386C0002335869003818BF01207047741B0020C0
:10387C002DE9F84F324E90F804802C2303FB08639B
:10388C00074693F82A30012B8946934604D02D49DC
:10389C004FF48C7001F06CFAB9F1000F04D1294986
:1038AC0040F2191001F064FABBF1000F04D1254964
:1038BC004FF48D7001F05CFA3846FFF7CDFF0446EB
:1038CC00002838D12C2508FB056A4FF48E71CAF8F4
:1038DC0014B0CAF80890CAF820008AF82800386892
:1038EC00FFF761FD012383605146FFF764FDDAF8B1
:1038FC00043055460BBBDAF814402B6A9C4210D8A6
:10390C00D0F81C31002BFBD00123C36000202C23EA
:10391C0003FB086600237361BDE8F88F95F8283027
:10392C003BB9D0F81C31002BF8D05146FFF743FDC2
:10393C00E3E70F20EBE71120EEE72046ECE700BFB2
:10394C00741B0020AF9500000023435082B04358F5
:10395C000193019B02B070470268530910B50446ED
:10396C0018D0012B40F2FF3318BF002302F01F02C6
:10397C00D340DB0704D409494FF4F67001F0F8F991
:10398C0023681F2B83BF03F01F03054823604FF0F0
:10399C00A04010BD4FF0FF33E8E700BF02810000EC
:1039AC000003005007B5019001A8FFF7D5FF019B5C
:1039BC0003F5E073022240F8232003B05DF804FB0A
:1039CC001FB501238DF80030044BCDE90110D3E96C
:1039DC0000126846904705B05DF804FBA01B002060
:1039EC007FB5434AD2F82461002E60D010464FF4C4
:1039FC009271FFF7A9FF02238DF80030D2F88034C2
:103A0C00C2F880340393D2F83C350293394BDA6810
:103A1C0001920022C3E906226846D3E900129047BE
:103A2C003348D0F8443173B14FF4A271FFF78CFFD7
:103A3C00304B9A693AB10022C3E90622D968D0F812
:103A4C003C05FFF7BDFF2A48D0F82031ABB14FF44D
:103A5C009071FFF779FF0123C360264B5A6962B15D
:103A6C00D0F84C150291002299688DF80020019134
:103A7C005A616846D3E9001290471D48D0F8583176
:103A8C009BB14FF4AC71FFF75FFF1A4B5A6962B1EF
:103A9C00D0F84C150291002299688DF80020019104
:103AAC005A616846D3E90012904704B070BDD2F851
:103ABC001031002BB4D04FF488711046FFF744FF3F
:103ACC000C4BD2F83C0599698842A9D1DC69D968BC
:103ADC0064B1D2F8005225F02005C2F800521A69E0
:103AEC009C61DA60DE61FFF76BFF99E79C61FAE796
:103AFC0000200040A01B00202DE9F347064691460C
:103B0C000C4619B96F49CF2001F032F996F80480B0
:103B1C006D4D242303FB085393F82030002B40F009
:103B2C00CC806A493068FFF777F80746002840F0E8
:103B3C00C68023685A1C13D001A80193FFF70CFF11
:103B4C00019A01239340C0F808352368019301A81A
:103B5C00FFF702FF019B03F5E073032240F82320DB
:103B6C006368581C09D001A80193FFF7F5FE019B6F
:103B7C0003F5E073002240F823203368A269C3F8F0
:103B8C002425217D627D0A43C3F86C25D4E90020ED
:103B9C000129C3F80C25C3F814052AD1A368591CB4
:103BAC0009D001A80193FFF7D7FE019B03F5E07341
:103BBC00002240F82320E3685A1C13D001A801937B
:103BCC00FFF7CAFE019A01239340C0F80835E36859
:103BDC00019301A8FFF7C0FE019B03F5E0730322DC
:103BEC0040F82320D4E902213368C3F80815C3F840
:103BFC001025242303FB08F3EA183068C2F804905C
:103C0C002269EA50B9F1000F45D04FF48871247F36
:103C1C00FFF79AFE4FF49071FFF796FE4FF49271F6
:103C2C00FFF792FE4FF4A271FFF78EFE4FF4AC71CA
:103C3C00FFF78AFE264BC0F80433A31E012B4FEA74
:103C4C00103A40F3073906D9631F022B03D92149D7
:103C5C006B2001F08DF8B9F1000FB6BF1E4B09F1C6
:103C6C0060400AF00F0A4FEA4414E4B2AABF00F510
:103C7C00614003F80A4080F800433368190B43F3A2
:103C8C000733002B07DB012201F01F018A405B097F
:103C9C00124941F8232033680822C3F80025242355
:103CAC0003FB08550023C5E906336B61012385F836
:103CBC002030384602B0BDE8F0870827F9E7112715
:103CCC00F7E700BF31960000A01B0020ED39000083
:103CDC00100342007C95000014ED00E000E100E0D0
:103CEC002DE9F8433D4D06790468242303FB065364
:103CFC0002465B68ABB13A4BC4F8083344F3073364
:103D0C00002B4FEA14300CDB00F01F005B09012183
:103D1C0081402033334840F82310BFF34F8FBFF35B
:103D2C006F8FD4F8003223F02003C4F80032242320
:103D3C0003FB06539B6933B14FF4A2712046FFF786
:103D4C0003FE012363604FF4AC712046FFF7FCFDCA
:103D5C000123E360242303FB0653D4F858110029F4
:103D6C00FBD0996919B1D4F844110029F5D000237E
:103D7C00C4F800351368D3F80C05D3F81495D3F8B0
:103D8C000875D3F810854FF0FF329042C3F80C251C
:103D9C00C3F81425C3F80825C3F8102501D0FFF784
:103DAC0001FEB9F1FF3F02D04846FFF7FBFDB8F129
:103DBC00FF3F02D04046FFF7F5FD7B1C02D0384692
:103DCC00FFF7F0FD2046FEF74FFF242303FB0655BB
:103DDC00002385F820306B60BDE8F883A01B002021
:103DEC001003420000E100E00279044B242101FBA6
:103DFC0002335869003818BF01207047A01B0020FF
:103E0C002DE9F047374F90F80490242303FB0973F6
:103E1C00064693F82030012B8846924604D032494E
:103E2C0040F2531000F0A4FFB8F1000F04D12E495A
:103E3C004FF4AA7000F09CFFBAF1000F04D12A498C
:103E4C0040F2551000F094FF337913B9BAF5803F66
:103E5C0004D325494FF4AB7000F08AFF08F060439F
:103E6C00B3F1005F38D13046FFF7BEFF044600289F
:103E7C0034D12425326805FB09754FF49071104636
:103E8C00C5F814A0C5F80880FFF75EFD4FF4AC71BF
:103E9C00FFF75AFD6B69A968C2F84415C2F848359A
:103EAC00012393606B68DBB9D2F82031D2F858014A
:103EBC001BB90028F8D00F2007E00028FBD1012304
:103ECC00D360D2F85831002BFBD0242303FB0977A5
:103EDC0000237B61BDE8F0871020FBE71120F9E798
:103EEC002046F7E7A01B002031960000C30710B551
:103EFC0007D4F023054A4008145C2340194311549D
:103F0C0010BD0901C9B20F23F4E700BFD81B002074
:103F1C00034B044819680022490800F0FFBA00BF9F
:103F2C00C81B0020B004002038B50B4B1C780B4B81
:103F3C00196800239C4206DC0949882000F018FF10
:103F4C000022104638BD11F83350854201EBC302F4
:103F5C00F7D00133EEE700BFC41B0020F81B002094
:103F6C00B596000013B504460191FFF7DDFF38B19B
:103F7C0043682BB10199204602B0BDE810401847A8
:103F8C0002B010BD10B5C0B2FFF7CEFF04460078EA
:103F9C00FEF758FD63785A1E53425341834208D1B1
:103FAC00044AD2E90032134303D1BDE81040FFF7B5
:103FBC00AFBF10BDD01B002037B54308374AD35CC8
:103FCC00C2074CBF1B0903F00F0304460D46042B1C
:103FDC0025D8DFE803F00326303D4100F9B101217B
:103FEC00FFF784FF00230DF107008DF8073000F078
:103FFC0007FC0122A4F12003C4F12000284922FA75
:10400C0000F002FA03F30343A240D1E90040144349
:10401C001843C1E900409DF8070000F01FFC03B0F5
:10402C0030BD003918BF01214900204603B0BDE85E
:10403C003040FFF75BBF49B10321FFF757FF012168
:10404C00204603B0BDE83040FFF78CBF0121ECE700
:10405C000029E4D10421E8E709B10321E5E7FFF7E2
:10406C0045FF29462046FFF77DFF0DF107008DF82F
:10407C00075000F0C5FB0122A4F12003C4F120007D
:10408C00074922FA00F002FA03F30343A240D1E9F4
:10409C00004024EA020420EA0300BAE7D81B0020FF
:1040AC00D01B00202DE9F041124E134F0024337821
:1040BC00A34208DC114AD2E90032134318D0BDE800
:1040CC00F041FFF725BF3D6805EBC40815F8340037
:1040DC00FEF7B8FC98F801305A1E53425341181A97
:1040EC004142414115F83400FFF766FF0134DEE729
:1040FC00BDE8F081C41B0020F81B0020D01B002061
:10410C00092AF7B505460C4616463ED9FEF79EFB26
:10411C00E8B11F4B1F481D601F4B204F1C70204BDC
:10412C00002120221E6003F0FBFA1E4B0020002110
:10413C00C3E90001013CE4B20326FF2C0DD11A4A5D
:10414C001A48002103B0BDE8F04000F0C5B9FEF7F5
:10415C0043FB0028DDD003B0F0BD9DF8063015F808
:10416C0034008DF8046005EBC40223F007038DF8CE
:10417C00063001A993788DF805303A46FEF770FBAE
:10418C00013CE4B20028D8D0E5E70720E3E700BF04
:10419C00F81B0020D81B0020C41B0020913F0000FE
:1041AC00C81B0020D01B0020B14000004497000029
:1041BC0070B50B4D2B6823B90A4940F2351000F04D
:1041CC00D7FD094E00243378A34201D8002070BDDE
:1041DC002B68012113F83400FEF7D4FB0134F2E70D
:1041EC00F81B0020B5960000C41B002082B00123F0
:1041FC008DF807309DF80730114B1860596044F268
:10420C00010188429A6012D044F20201884206D120
:10421C00DA60DA6812689A61DA685268DA6172B642
:10422C009DF80730002BFBD162B602B070471A61C3
:10423C001A6992685A611A6912689A611A69ECE7EC
:10424C00FC1B002000B583B002900091019244F257
:10425C00010071466A4600F003F803B000BD00008F
:10426C00F0B5064687B00F46154672B601F090FEC3
:10427C0001F07EFC0028FBD1244B254CE41AE40809
:10428C0044F2010324049E4244F001042BD00BD8C9
:10429C00012E14D041F201039E4222D01D493A4610
:1042AC00204601F0BFFD0EE044F202039E42F5D120
:1042BC00D5E900321849204601F0BDFD03E017494D
:1042CC00204601F0ABFD164BD3F8F030DB0700D5E0
:1042DC0000BE2A463946304607B0BDE8F040FFF72D
:1042EC0085BF1049ECE7AA680592104601F016FA52
:1042FC002968029701916968009103460A49059A59
:10430C00204601F0BCFD0949DAE700BFB87F000088
:10431C00E87F0000DB9700008797000048970000BB
:10432C0000ED00E065970000A1970000C797000022
:10433C0010B5D0E90242D1E90203A04293412CBF4F
:10434C000120002010BD000008B50A4800F041FC17
:10435C00094AD2E90031C018084BD3E9002341F1D6
:10436C000001904271EB030303D210F1807041F114
:10437C00000108BDD0040020201C0020981C002047
:10438C0037B505460C460A4801A900F010FD60B18E
:10439C000570446001A9064800F033FD18B10548CA
:1043AC0000F01CFC002003B030BD0420FBE700BF74
:1043BC00841C0020D0040020436973B504461BB94B
:1043CC002949A52000F0D4FC284B1E781EB90026E4
:1043DC00304602B070BDFFF7B7FFD4E9022390421C
:1043EC00994139D300230DF107008DF8073000F007
:1043FC0007FA23692BB94FF0FF324FF0FF33C4E9B2
:10440C0002239DF8070000F029FAD4E905309847FB
:10441C0000250DF107008DF8075000F0F1F9236924
:10442C00C3B1D4E90212B2F1FF3F08BFB1F1FF3FB3
:10443C0005D05B1842F10002C4E9023235469DF802
:10444C00070000F00BFA002DC1D00948214601F0FD
:10445C00F3F8BDE71D46F2E7B3F1FF3F08BFB2F139
:10446C00FF3FB4D0F1E700BFF3970000281C0020F9
:10447C008498000013B5114B11491868019008235A
:10448C001048582200F080FC044698B90E4A0F4898
:10449C0001A900F03BFA044660B90C48012100F078
:1044AC007FFB01230A4A0948194600F0D1FA094B4F
:1044BC0001221A70204602B010BD00BF7E98000089
:1044CC002C1C0020841C002001460000D00400207D
:1044DC00FFFF7F00281C002070B50C4615460646D1
:1044EC0020B90D4940F25A2000F042FC35B940F297
:1044FC005B20094900F03CFC072070BD621E33684C
:10450C0054424FF0FF304FF0FF315441C3E90201E8
:10451C005D611C610020F0E7F3970000F7B50E46D3
:10452C001746044620B9174940F26B2000F020FCD6
:10453C0000250DF107008DF8075000F061F9D4E962
:10454C000223B3F1FF3F08BFB2F1FF3F07D1FFF7E2
:10455C00FBFE301841F10001C4E9020101259DF870
:10456C00070000F07BF955B12369A76103B12661FF
:10457C002146002003B0BDE8F040FFF701BF2846FC
:10458C0003B0F0BDF397000037B5044620B91549C8
:10459C0040F2932000F0ECFB00250DF107008DF8A4
:1045AC00075000F02DF9D4E90223B3F1FF3F08BF07
:1045BC00B2F1FF3F1FBF4FF0FF324FF0FF33C4E9A2
:1045CC00022301259DF8070000F048F935B121467A
:1045DC00012003B0BDE83040FFF7D2BE284603B03F
:1045EC0030BD00BFF3970000014800F0F2BA00BFE5
:1045FC00D00400202DE9F743044600F0D5FA40B171
:10460C006F4AD2E9003113F1807341F10001C2E924
:10461C0000310021204600F0D1FAD0B1694E336848
:10462C00BBB1204600F0D5FA00210546204600F02B
:10463C00CAFA281A20F07F40B0F5960F04D36249CD
:10464C0040F2411000F094FB3068FFF7B5FE0023F8
:10465C0033600121204600F0B1FA20B1FFF774FE5F
:10466C005A4BC3E900015A48564D01A900F0D9FB39
:10467C004FF0FF364FF0FF37A0B9DFF85881514E9D
:10468C00404601F005F8002800F08B80D0E90223A9
:10469C00B3F1FF3F08BFB2F1FF3F33D1404600F00A
:1046AC00E7FFEDE70378012B21D0022B09D1DFF8CE
:1046BC002481404600F0DCFF00287CD0C0E9026772
:1046CC00F7E75BB94168D1E90223B3F1FF3F08BFBB
:1046DC00B2F1FF3F02D03F4800F0AEFF01A93C48C9
:1046EC0000F0CAFB01A93A4800F09BFBC4E7416803
:1046FC002B68994202D100232B60EFE7354800F07C
:10470C00D3FFEBE7316891B13168D1E90201824204
:10471C008B412FD23368D3E90223B3F1FF3F08BF9B
:10472C00B2F1FF3F03D03168404600F085FF4046B0
:10473C0000F09EFFD0E902590746FFF705FE281A44
:10474C0069EB0101012871F1000918DBB0F5350F97
:10475C0013D3FFF749FF204A024420484FF4960335
:10476C00002100F09FF9A0B9336813B9204600F07E
:10477C0053F9376003B0BDE8F0832A46EDE71748DC
:10478C00002100F015FA3846FFF716FE00233360BF
:10479C0076E70D28F7D00C494FF4867000F0E8FA54
:1047AC00F4E7084B1B68002BE4D1204603B0BDE8AE
:1047BC00F04300F03FB90A4B01221A708EE700BF9C
:1047CC00201C0020A01C0020F3970000981C002047
:1047DC00841C002084980000FFFFB400D00400204B
:1047EC00281C0020EFF30583C3F308032BB9EFF368
:1047FC001480C04300F00100704701207047000096
:10480C0070B50446FFF7EEFF012803D00F49432093
:10481C0000F0AEFAEFF3108672B60D4A90680123E1
:10482C0080B993600B4B0C4DD3F88010294011606C
:10483C00C3F88050D3F8841051604FF0FF32C3F8A6
:10484C0084200346237006B962B670BD90980000B0
:10485C00A41C002000E100E0FC06FFBD10B50446DE
:10486C00FFF7C0FF012803D00949512000F080FA5E
:10487C00084B9A685AB154B9EFF3108172B6064AD4
:10488C0018681060586850609C6001B962B610BD21
:10489C0090980000A41C002000E100E038B50C4604
:1048AC00054618B90449B32000F062FA2B68C3F826
:1048BC004843C3F8084338BD1699000070B50C4640
:1048CC001646054618B90549A92000F051FA2B687F
:1048DC00C3F844430EB1C3F8044370BD16990000ED
:1048EC0037B50C46054618B90749BA2000F040FA0E
:1048FC002B68185928B100221A511B590193019B9E
:10490C00012003B030BD00BF169900002DE9F8431B
:10491C000F461546044618B93449552000F028FABC
:10492C001FB93249562000F023FA1DB92F495720E0
:10493C0000F01EFA63792E4ADFF8D88042F8235033
:10494C002C4E2D4A08EBC303B61A1B79F608360415
:10495C003BB146F00200294901F060FA0820BDE89D
:10496C00F8833D88D4F80090B5F5805F04D32449D2
:10497C004FF4BE7000F0FCF9C9F80855BF7894F9F3
:10498C000450BB1E012B06D97B1F022B03D91D49DA
:10499C006B2000F0EDF9002DB6BF1B4B05F1604507
:1049AC0005F00F054FEA4717FFB2AABF05F56145A1
:1049BC005F5585F8007394F90430002B08DB012255
:1049CC00590903F01F0302FA03F3104A42F821308D
:1049DC00637908EBC3020121117146F003000C4905
:1049EC0048F8334001F01AFA0020B8E71699000095
:1049FC00B81C0020F87F0000B87F000093990000DD
:104A0C00B59900007C95000014ED00E000E100E099
:104A1C00E2990000B01C002010B5044618B90449F6
:104A2C00872000F0A5F9236801221A6010BD00BF91
:104A3C001699000010B5044618B904498D2000F0F1
:104A4C0097F9236801225A6010BD00BF1699000027
:104A5C00F7B50C4615461E46074618B91049962060
:104A6C0000F086F925F07F4204F15005AD0038685E
:104A7C00ADB24FF48031A1400023C0F80813C0F848
:104A8C004813435104F5A87443590193019B40F812
:104A9C002420C0F844130EB1C0F8041303B0F0BDC9
:104AAC00169900002DE9F74F0D4614469846074617
:104ABC0018B93949CD2000F05BF94FF4803909FA67
:104ACC0005F949463846FFF7E9FE3A6805F1500604
:104ADC0002EB8500B600B6B2D2F80415D0F840351A
:104AEC00C0F840154FF0000B42F806B05B1A925913
:104AFC00009223F07F43012B009A24F07F444FEA6D
:104B0C00850A0BD1254B4FF4806043F00103984785
:104B1C003B6843F806B09B590193019B3B68D3F863
:104B2C000465C3F84493A21B22F07F42012A1AD1D8
:104B3C0005F5A875013443F82540184B4FF48060F7
:104B4C0043F0010398473B68D3F804359E4208D1E3
:104B5C00384601224946FFF7B1FE002003B0BDE8FC
:104B6C00F08F0D20FAE703EB0A01621EC1F84045F5
:104B7C00D3F80405C8F1FF18121A22F07F4208F589
:104B8C007F489045EDD3002AE2D10134C1F840456D
:104B9C00D3F804359842DAE716990000009A000021
:104BAC000A460221FFF78ABE4FF48271FFF798BEC6
:104BBC004FF4803303FA01F1FFF770BE50318900D6
:104BCC0089B2FFF78DBE036801F5A87153F8210077
:104BDC0070470368D3F804057047000090F904305F
:104BEC00002B09DB5A09012103F01F03994002F144
:104BFC004003024A42F82310704700BF00E100E076
:104C0C00024B034A1B681068184700BFB81C0020F1
:104C1C00B01C00201EF0040F1CBFEFF309800AE04B
:104C2C00EFF308800549064A884201D8904202D821
:104C3C008D464FF00000034B184700000000012088
:104C4C0000E00020794C0000BFF34F8F0549064B64
:104C5C00CA6802F4E0621343CB60BFF34F8F00BF0E
:104C6C00FDE700BF00ED00E00400FA052DE9F34775
:104C7C00054601F08DF900F07BFF0028FBD1304B8D
:104C8C00304C9F6A304BE41AE408240444F00104CD
:104C9C00002D4FD0AA692D49204601F0C3F8EB68CE
:104CAC000193AB682A4900932046D5E9002301F013
:104CBC00D8F8EB6900932749D5E90423204601F085
:104CCC00C4F81F4BDB6A990703D52349204601F032
:104CDC00A5F8DFF89490DFF894A000264FF00108B7
:104CEC0008FA06F33B4206D059F826201AB1514671
:104CFC00204601F097F801361A2EF1D13A0605D567
:104D0C000F4B16495A6B204601F08CF817F4004FE4
:104D1C000B4E04D0B26B1249204601F083F8D6F842
:104D2C00F030DB0700D500BE2846FFF78DFF02B040
:104D3C00BDE8F0870B49204601F070F8C1E700BFD1
:104D4C0000ED00E000800000B87F0000069A000033
:104D5C001B9A0000509A0000AB9A0000FA9A0000CF
:104D6C001A9B0000789A0000F49F0000EF9A000054
:104D7C0007B5CDE900016A46002144F20200FFF7B5
:104D8C006FFA03B05DF804FB10B561B1B2FBF3F43C
:104D9C0003FB1424A4B244B9C0E9001484608281DA
:104DAC00C381204610BD0E20FCE70920FAE737B579
:104DBC0050E8013F9DB2C48925448489A54228BF8F
:104DCC002D1B0489A54202BFBFF32F8F002207E0E1
:104DDC00C5EA030540E80154002CE9D14FF001026B
:104DEC008DF803200193019A0A609DF8031001F0DD
:104DFC00FF0321B1006810FA82F003B030BD1846F1
:104E0C00FBE70A884B889A4209D150E8012FC2EA85
:104E1C00024240E80123002BF7D10120704700200B
:104E2C00704737B550E8023F1FFAA3F5C488A54276
:104E3C0002BFBFF32F8F00220DE0C4892544848963
:104E4C00A54228BF2D1BC3EA054540E80254002C9F
:104E5C00E8D14FF001028DF803200193019A0A600A
:104E6C009DF8031001F0FF0321B1006800EB124024
:104E7C0003B030BD1846FBE70A884B889A4209D12B
:104E8C0050E8022FC2EA224240E80223002BF7D15D
:104E9C00012070470020704710B5034653E8000FFF
:104EAC000A4643E8002494F0000FF7D110BD10B56A
:104EBC00034653E8002F42EA010043E8000494F053
:104ECC00000FF6D110BD10B5034653E8000F00EAF1
:104EDC00010243E8002494F0000FF6D110BD10B588
:104EEC00034653E8002F02EB010043E8000494F062
:104EFC00000FF6D110BD10B5034653E8002FA2EBFE
:104F0C00010043E8000494F0000FF6D110BD01211C
:104F1C00FFF7CDBF0021FFF7D6BF000010B5044648
:104F2C00002834D003681BB91A49FF20FFF720FF73
:104F3C00636823B917494FF48070FFF719FFA36812
:104F4C0023B9144940F20110FFF712FFE36823B9AB
:104F5C0010494FF48170FFF70BFF238A23B90D49D9
:104F6C0040F20310FFF704FFD4E9012321689B1AD8
:104F7C00DBB20A60013BDBB2FF2B226802D10020BE
:104F8C00107110BD1168481C10600B70F2E70E20F8
:104F9C00F7E700BF5CA0000037B5044620B9134901
:104FAC004FF49270FFF7E4FE00250DF107008DF829
:104FBC000750FFF725FC2268616813688B420ED9F5
:104FCC00591E116013F8013C208AE56800FB03555B
:104FDC00A3685B1A1179DBB2994238BF13719DF843
:104FEC000700FFF73BFC284603B030BD5CA0000077
:104FFC0037B50C46054620B9104940F24710FFF76B
:10500C00B7FE24B90D494FF4A470FFF7B1FE00238D
:10501C000DF107008DF80730FFF7F2FB2A681368D3
:10502C00591C1160EA68A41A2A8AB4FBF2F41C70A9
:10503C009DF80700FFF712FC03B030BD5CA0000028
:10504C0010B5044618B906493120FFF791FEA26845
:10505C002AB163692168206998470023A36010BDB9
:10506C00DDA000000EB433B5059D044618B91149F6
:10507C004220FFF77DFE63691BB90E494320FFF701
:10508C0077FE23681BB90B494420FFF771FE636858
:10509C001BB908494520FFF76BFE35B106AB01AAD9
:1050AC0029462046019300F079F802B0BDE8304063
:1050BC0003B07047DDA000000A2938B504460D4640
:1050CC0002D10D21FFF7F8FFA3682268591CA160DB
:1050DC00D554D4E901329A4204D32046BDE8384075
:1050EC00FFF7AEBF38BD00002DE9F84F9846DDE95B
:1050FC000A43154682460F460A464FF00109AA425A
:10510C000FD2C14538BFC14613F0010B01D16CB9A8
:10511C0000240126B8F1010F1BD908F1FF386E43AA
:10512C00F8E709F10109B2FBF5F2E8E79B070ED5A8
:10513C00B8F1000F0CBF30262026A145E9D2013C66
:10514C0031465046FFF7B8FF002CF6D1E0E7202699
:10515C00F3E7B7FBF6F39D42E1D9DFF83C80B7FBF0
:10516C00F6F3504618F8031006FB1377FFF7A4FF6D
:10517C003346AB42B6FBF5F6F1D2BBF1000F02D0D1
:10518C000CB1A14501D3BDE8F88F20215046013C5C
:10519C00FFF792FFF4E700BFD2A100002DE9F74F13
:1051AC0088461746054620B9AF4940F25220FFF712
:1051BC00DFFD6B6923B9AC494FF41570FFF7D8FDCF
:1051CC002B6823B9A84940F25520FFF7D1FD6B6835
:1051DC0023B9A54940F25620FFF7CAFDB8F1000FDC
:1051EC0000F03E8118F8011B49B92B7B002B00F015
:1051FC003781284603B0BDE8F04FFFF721BF2529C2
:10520C0040F0B780002698F800302D2B424608F16C
:10521C00010823D0302B24D02B2B25D000242A2B73
:10522C0002F1010123D13B681A1D1B683A601C4432
:10523C000A4613782E2B26D101324FF0000A104665
:10524C0010F8011BA1F1300CBCF1090F1DD80A2379
:10525C0003FB0A11A1F1300A0246F0E746F0010601
:10526C00D1E746F00206CEE746F00406CBE711F88C
:10527C00013CA3F130000928DBD80A2202FB0434DC
:10528C00303C0A46CBE74FF0000A12F8011B01F044
:10529C00FB0068289046F8D0782909D86F290CD8DB
:1052AC00632962D022D8252963D0582900F0888040
:1052BC0098F80030002B95D197E770390829F7D86A
:1052CC0001A252F821F000BF47540000BD5200006B
:1052DC00BD520000DD530000BD520000BB53000066
:1052EC00BD520000BD520000CD530000642901D016
:1052FC006929DDD13A68D2F80090111D89EAE9726A
:10530C003960A2EBE9724FF0010B092A35DCD34569
:10531C0038BFD3462CB1B9F1000F01DB720700D5B1
:10532C00013CB30702D5BAF1000F03D0F00701D44A
:10533C004CBB0024B9F1000F2DDAC9F100092D2165
:10534C002846FFF7B9FE06F00302022A04D1BAF18F
:10535C00000F01D11CBB0024CDE9004653460A22A4
:10536C0049462846FFF7C0FEA2E73B681A1D19788C
:10537C003A602846FFF7A0FE9AE70A230BF1010BCF
:10538C00B2FBF3F2C1E7A345D4D220212846013C5D
:10539C00FFF792FECCE77107D5D52B21D0E7A345BB
:1053AC00DAD230212846013CFFF786FED2E7396875
:1053BC00CDE900460A1D3A6053460A220968D0E737
:1053CC0039680A1D3A60CDE9004653461022F5E7CC
:1053DC003B681A1D3A6016F00106D3F8009024D1F0
:1053EC00B9F1000F03D0484602F034F90646B44236
:1053FC001DD809F1FF3919F8011F00293FF458AFE6
:10540C002846FFF759FEF6E728460136FFF754FE0B
:10541C0019F806100029F7D1A642BFF449AF202194
:10542C002846013CFFF748FEF6E70026F0E720216E
:10543C002846013CFFF740FED9E73B681A1D3A604D
:10544C00302128461C68FFF737FE78212846FFF7E5
:10545C0033FE00220823CDE900322146102280E7DA
:10546C0003B0BDE8F08F00BF54A100002DE9F74F49
:10547C0099469DF83030009388469346064618B9F5
:10548C002349B620FFF774FCF28871794A43043A39
:10549C004A4505D81E490192C420FFF769FC019AC0
:1054AC00DBF80070B6F806A007EB0901914209F190
:1054BC00040488BFA2EB0907B4FBFAF5CBF8007023
:1054CC000AFB154445B9AAEB040BBB4528BFBB46E8
:1054DC002FB903B0BDE8F08F3668013DF2E7009BB1
:1054EC00043408EB050034445A466BB12146A7EB53
:1054FC000B0702F0DFF8BA455D443668D3464FF02F
:10550C00000428BFBB46E3E701462046EFE700BF97
:10551C00E2A10000FFF702BDF8B546790146721E04
:10552C000546002393422D6803D30024A64202D8DB
:10553C00F8BD0133F6E70F682846FFF759FD013433
:10554C003946F3E72DE9F843068ACD1C0746FFF7E9
:10555C0023FD043E35440446B5FBF6F5F0B14FF49B
:10556C008073EDB28380C680013D076081464FF0A9
:10557C000008A84512D23846FFF70EFD064648B182
:10558C0063790133637108F10108C9F80000076001
:10559C008146EEE72046FFF7BFFF34462046BDE8C4
:1055AC00F88301210430FFF79ABC10B501210446A1
:1055BC000430FFF7A0FCC0B220B92046BDE8104073
:1055CC00FFF7AABF10BD00001FB5144603920022BE
:1055DC00009203AAFFF74AFF039BA34206D004499B
:1055EC00F62004B0BDE81040FFF7C2BB04B010BDFC
:1055FC00E2A100001FB5144603920122009203AAF7
:10560C00FFF734FF039BA34207D005494FF480708A
:10561C0004B0BDE81040FFF7ABBB04B010BD00BF39
:10562C00E2A10000836800225A60C3E904229A6058
:10563C00DA601A607047000070B50C46064618B95F
:10564C000A493A20FFF794FB1CB908493B20FFF7A5
:10565C008FFB7568286818B1B3682146984718B94C
:10566C002B6823602C6070BD2D68F3E763A20000EB
:10567C0010B5044618B905495120FFF779FB63684A
:10568C00186808B102681A6010BD00BF63A2000060
:10569C0010B5044618B903495D20FFF769FB636830
:1056AC00186810BD63A2000038B50C46054618B941
:1056BC000A496920FFF75CFB1CB908496A20FFF70F
:1056CC0057FB6B68186820B1A04203D102681A60BE
:1056DC00012038BD03460068F5E700BF63A2000057
:1056EC0010B50D49A1F59472914201D800200FE03C
:1056FC008C1AE30F03EBE4035B1002EBC30452F8C8
:10570C003330834205D802D204F10802ECE760681A
:10571C0010BD2146E8E700BFD4A7000008B5FFF78D
:10572C00DFFF024B002808BF184608BD97A60000F3
:10573C0038B50C46054618B908495020FFF718FB38
:10574C001CB906495120FFF713FBD4E900329342F0
:10575C0008BF00236B602C6038BD00BFD4A70000CD
:10576C0010B5044618B90B496320FFF701FB2368F9
:10577C001BB908496420FFF7FBFA636843B1226840
:10578C00916852680B449342636004BF00236360CA
:10579C0010BD00BFD4A70000F0B595B01D4616464D
:1057AC0008460C46FFF7FDFE1A9B0D93CDE90865E4
:1057BC0000252B46082205A920460A958DF82C5069
:1057CC000C95FFF717FF079B0293069B03939DF81D
:1057DC0014308DF8115003F00302012A1DD1BDF8CD
:1057EC001420059DC3F3C203C2F383168DF8103049
:1057FC00B20008230EA92046FFF7FCFEC5F3952541
:10580C0008AB0093324602AB0EA9284600F034FCDC
:10581C002046FFF7CAFE15B0F0BD022AF8D1BDF83C
:10582C001650C3F3C203C5F389158DF81030082741
:10583C00082D2E4628BF08263B4632460EA9204688
:10584C00FFF7D8FEAD1B08AB02AA31460EA83744B1
:10585C0000F076FC002DEBD1DAE7704707B5044B6E
:10586C000093044A4023FFF797FF03B05DF804FB55
:10587C00CD580000BD1C002030B50D4D0FCD89B0AA
:10588C006C460FC495E80F0084E80F001D230948EF
:10589C00009300226946FCF703FF18B1064A432126
:1058AC00FEF7D0FC054B00221A7009B030BD00BFCA
:1058BC00FCA80000D80400206EA80000BC1C00202E
:1058CC0038B50E480E4C0F4D002323700378EB5C5B
:1058DC00D2B273B10430FEF793FA18B10A4A5321CD
:1058EC00FEF7B0FC094B1A7812B12378002BFBD0D1
:1058FC0038BD0C30FDF7BCFFEFE700BFD80400202B
:10590C00FD1C0020C41A00206EA80000BC1C002046
:10591C0008B50848084A0378D35C33B10430FEF765
:10592C00DFF9BDE80840FFF7A7BF0C30FDF736FFE5
:10593C00F7E700BFD8040020C41A0020FFF79CBF73
:10594C0008B5FFF7FBFF0748042100F0FFFA002819
:10595C0003DA05494820FFF70BFA044B01225A7170
:10596C0008BD00BF6080000028A90000EC040020E6
:10597C00027812F0040316D002F00303012B03D0BB
:10598C00022B09D0012070470A6800880232C0F34C
:10599C00831002440A60F5E70B684288023303EB7C
:1059AC0092130B60EEE71846704700002DE9F04F9C
:1059BC00454C87B0884600230546871C0DF107002F
:1059CC0016468DF80730FEF71BFF6268C8F80020FA
:1059DC00A36803F580739B1A04F21C4804F5836AD0
:1059EC0004F21449BB4218D30021002E68D005F0F4
:1059FC000F05AD0145F0050565F30F0163689DF8D2
:105A0C000700DAB203323B4444F822106360FEF71D
:105A1C0025FF012007B0BDE8F08F01214046FFF7BC
:105A2C005EFA5046FFF773FA4846FFF770FAA06823
:105A3C000290C0B2033004EB800002A9FFF798FF7C
:105A4C008346C0B9029BDAB204EB8202D16803919F
:105A5C009A1C0133DBB204EB83030292D86801F089
:105A6C000303012B24D0022B08D018494FF4C27029
:105A7C00FFF77EF90CE09DF80800DBE7BDF80E306F
:105A8C00C3F3891303334FEA104B02EB93030293D6
:105A9C004846FFF73FFA08B1029BA36059464046BF
:105AAC00FFF71DFAA368626803F580739B1A99E7E8
:105ABC00BDF80C30C3F383134FEA104B1344E6E7E5
:105ACC00AD0545F0060199E7D01D0020C9A90000DD
